:100000000C9485000C94AD000C94AD000C94AD00E4
:100010000C94AD000C94AD000C9494160C947915CE
:100020000C94AD000C94AD000C94AD000C94AD009C
:100030000C94AD000C94AD000C94AD000C94AD008C
:100040000C94F2150C94AD000C9462160C943C16B2
:100050000C94AD000C94AD000C94AD000C94AD006C
:100060000C9463140C94AD004E414E494E495459C2
:10007000494E46CDCCCC3D0AD7233C17B7D1387773
:10008000CC2B329595E6241FB14F0A000020410089
:1000900000C84200401C4620BCBE4CCA1B0E5AAED3
:1000A000C59D7400000000240027002A002D0000D8
:1000B000000000250028002B002E00040404040486
:1000C0000404040202020202020303030303030501
:1000D0000505050505050102040810204080010200
:1000E0000408102001020408102002080104102056
:1000F0004000000008500201000003040700000057
:1001000000000000000000009E1611241FBECFEF6B
:10011000D8E0DEBFCDBF27E0AEE6B5E001C01D925E
:10012000AA33B207E1F715E0A0E0B1E0E2E7FDE4B1
:1001300002C005900D92AE36B107D9F710E0C5E8C0
:10014000D0E004C02197FE010E946623C438D10785
:10015000C9F70E944C170C94B7260C94000020910C
:100160002F0681E0213208F040C080910B068111FA
:10017000FCCF80912E0692E090930B0691E0909335
:100180000A069FEF9093090610920806209307062F
:10019000AEE0B6E0E7EEF5E090E029132DC0109256
:1001A000E6059091E605880F892B8093E6058091FE
:1001B000E505813031F41092E5058091E6058093E4
:1001C000BB0085EE8093BC0080910B068230E1F38A
:1001D000809109068F3FA1F080910906803291F04D
:1001E00080910906803381F084E010920D06109210
:1001F0002F0610920C0608953D9131939F5FCDCF4D
:1002000080E0F3CF82E0F1CF83E0EFCF81BD12BC7D
:10021000F89A0000000080B5089585ED8093BC0039
:100220008091BC0084FDFCCF10920B0608956132D2
:1002300098F420910B06243089F46093AD05282FA3
:10024000ADE8B5E0FC018E2F821B861710F080E030
:10025000089581918D93F7CF81E0089582E008950C
:10026000089581E090E030918C0520918B05321744
:1002700010F490E080E09195819591090895809126
:100280008C0590918B05891730F48F5F80938C05D6
:1002900090E080E008958FEF9FEF089580918B05A7
:1002A00090918C05891B990B0895CF92DF92EF9264
:1002B000FF920F931F93CF93DF937C01CB018A01B1
:1002C00020910C06222389F0EB016B01C40ED51E90
:1002D000CC15DD0569F06991D701ED91FC91019094
:1002E000F081E02DC7010995F3CF642F0E9417011B
:1002F000C801DF91CF911F910F91FF90EF90DF9098
:10030000CF900895CF93DF931F92CDB7DEB7698367
:1003100020910C062223F9F020912F06203258F06C
:1003200021E030E0FC013383228390E080E00F90F5
:10033000DF91CF91089580910D06E82FF0E0E25F04
:10034000F94F998190838F5F80930D0680932F06DC
:1003500081E090E0ECCF61E0CE0101960E941701B0
:10036000F7CF682F80E396E00C9482011F93CF9320
:10037000DF938091E40591E090930C0680932E0624
:1003800010920D0610922F0660E080E396E00E9426
:100390008201C4EDD5E068811981229680E396E060
:1003A0000E948201612F80E396E00E94820185E035
:1003B000C43ED80781F7DF91CF911F910C94AF0015
:1003C000E4EDF5E089E390E09183808387E790E0B6
:1003D0009383828388E390E0978386838BE590E024
:1003E000918780870C94B60190E0FC01EF50FF4F9D
:1003F0002491FC01EA52FF4F349185549F4FFC0138
:100400008491882361F12223C9F021502B30B0F46C
:10041000E22FF0E0E25FFD4F0C94662334023802D5
:10042000190230021E021E023B02410245024B022B
:100430004F02909180009F7790938000E82FF0E02A
:10044000EE0FFF1FE155FF4FA591B4918FB7F894C0
:10045000EC91611128C030953E233C938FBF0895E5
:10046000909180009F7DE8CF94B59F7794BDE6CFB3
:1004700094B59F7DFBCF9091B0009F779093B00093
:10048000DDCF9091B0009F7DF9CF909190009F7744
:1004900090939000D3CF909190009F7DF9CF909151
:1004A0009000977FF5CF3E2BD8CFCF93DF93282FA7
:1004B00030E0F901EA52FF4F449125543F4FF901D2
:1004C0002491843011F583E08093A0002223D1F0A1
:1004D000822F90E0880F991FFC01ED55FF4FA591E9
:1004E000B491FC01E155FF4FC591D491611122C037
:1004F0009FB7F8948C91409584238C9388814823EE
:1005000048839FBFDF91CF9108959AEE980F923064
:1005100020F48FEF84BF84BFD9CF8A31B9F68091A0
:10052000F00082608EBB80E88093F0008EB38093F1
:10053000F000CCCF8FB7F894EC914E2B4C938FBF3B
:10054000E1CF3FB7F8948091780590917905A0911B
:100550007A05B0917B0526B5A89B05C02F3F19F001
:100560000196A11DB11D3FBFBA2FA92F982F882733
:10057000BC01CD01620F711D811D911D42E0660F0E
:10058000771F881F991F4A95D1F708958F929F92E0
:10059000AF92BF92CF92DF92EF92FF926B017C01FC
:1005A0000E94A1024B015C01C114D104E104F104D9
:1005B000B9F00E94A102681979098A099B09683E6D
:1005C00073408105910580F321E0C21AD108E1084A
:1005D000F10888EE880E83E0981EA11CB11CE4CFC0
:1005E000FF90EF90DF90CF90BF90AF909F908F9053
:1005F00008951F93CF93DF93EC018091F2008093D5
:10060000D005809161008093D1058091CF008093C7
:10061000D305809160008093D2051FB7F894809134
:10062000F2008F70806590E89093F2008093F20062
:10063000000000009093610010926100CF3FD1054F
:10064000F9F0A895809160008776282F2069886945
:1006500080936000209360008091F2008069909305
:10066000F2008093F2008C2F8770C830D10508F01B
:100670008062982F906588658093600090936000F9
:1006800080E88093CF0092E09093CF009DE093BFED
:1006900088950000000098E093BF8093CF00909170
:1006A000D3059093CF00809361008091D105809312
:1006B00061008091D00585FF06C064E670E080E0AF
:1006C00090E00E94C60280E88093F2008091D005FD
:1006D0008093F200CF3FD10539F08091D20580613F
:1006E00080936000809360001FBFDF91CF911F91C6
:1006F00008952FB7F89460917405709175058091F5
:100700007605909177052FBF0895AF92BF92CF9253
:10071000DF92EF92FF920F931F93CF93DF936C01C1
:100720007B018B01040F151FEB015E01AE18BF08A2
:10073000C017D10759F06991D601ED91FC91019054
:10074000F081E02DC6010995892B79F7C501DF916C
:10075000CF911F910F91FF90EF90DF90CF90BF90BE
:10076000AF90089590E080E00895FC01538D448D92
:10077000252F30E0842F90E0821B930B541710F04C
:10078000CF96089501970895FC01918D828D981759
:1007900061F0A28DAE0FBF2FB11D5D968C91928D31
:1007A0009F5F9F73928F90E008958FEF9FEF089562
:1007B000FC01918D828D981731F0828DE80FF11D2B
:1007C000858D90E008958FEF9FEF0895FC01918D46
:1007D000228D892F90E0805C9F4F821B91098F733F
:1007E000992708958CE396E00E94E60321E0892B87
:1007F00009F420E0822F089580E090E0892B29F011
:100800000E94F20381110C9400000895FC01A48D54
:10081000A80FB92FB11DA35ABF4F2C91848D90E022
:1008200001968F739927848FA689B7892C93A08905
:10083000B1898C9180648C93938D848D981306C0BC
:100840000288F389E02D80818F7D80830895EF9267
:10085000FF920F931F93CF93DF93EC0181E0888F7A
:100860009B8D8C8D981316C0E889F989808185FF4E
:1008700011C0EE89FF896083E889F98980818064ED
:10088000808381E090E0DF91CF911F910F91FF90E5
:10089000EF900895F62E0B8D10E00F5F1F4F0F7332
:1008A0001127E02E8C8D8E110CC00FB607FCFACFED
:1008B000E889F989808185FFF5CFCE010E94060481
:1008C000F1CFEB8DEC0FFD2FF11DE35AFF4FF082BE
:1008D0000B8FEA89FB8980818062D2CFCF93DF932F
:1008E000EC01888D8823B9F0AA89BB89E889F98948
:1008F0008C9185FD03C0808186FD0DC00FB607FC7D
:10090000F7CF8C9185FFF2CF808185FFEDCFCE01AF
:100910000E940604E9CFDF91CF910895CF93DF9332
:10092000EC0160E070E0CB010E94C6026C8170E0D7
:1009300088EE93E00E94522310928805109287055A
:1009400010928A05109289051092810510928205F5
:10095000109283051092840510927C05809180008E
:1009600080937205809181008093710510928100BF
:1009700010928000109285001092840081E086BB66
:1009800010926F008091B000809370058091B1004B
:1009900080936F051092B10082E08093B000CB018C
:1009A00087709927892B09F059C023E076956795C0
:1009B0002A95E1F78CE78093B30087E080936E057A
:1009C00082E087BB1092B200709386056093850524
:1009D0009FB7F89483BD20916E052093B10080935A
:1009E00070008BE08150F1F787E0809381009FBF1A
:1009F00080917C058823E1F31092B1001092700081
:100A0000809170058093B00080916F058093B10054
:100A10001092810080917205809380008091710511
:100A2000809381008FB7F89420917D0530917E05E9
:100A300040917F055091800510927C058FBFAC815D
:100A4000B0E00E9401232EE130E040E050E00E943F
:100A5000DF22CA01B901DF91CF910895CB018370E4
:100A60009927892B49F4769567957695679589EF4F
:100A70008093B30086E0A2CF60FD04C076956795B1
:100A80008CE7F6CF8CE78093B30085E097CFCF93C8
:100A9000DF93EC0160E08A810E94F40160E08B81C9
:100AA0000E94F40160E089810E94F40160E0888185
:100AB000DF91CF910C94F4018F929F92AF92BF92ED
:100AC000CF92DF92EF92FF92CF936B017C01AC014A
:100AD0009B010E949A2481114CC046015701E89461
:100AE000B7F82FEF3FEF4FE75FE7C501B4010E9472
:100AF0009A2481110AC02FEF3FEF4FE75FE7C5014E
:100B0000B4010E94AB211816A4F12FEF3FEF4FE77D
:100B10005FE4C701B6010E949524181654F12FEF27
:100B20003FEF4FE75FECC701B6010E94AB2187FDA5
:100B300020C020E030E040E05FE4C701B6010E9441
:100B4000AB21C1E0882351F020E030E040E05FECD1
:100B5000C701B6010E94AB218111C0E08C2FCF915B
:100B6000FF90EF90DF90CF90BF90AF909F908F90CD
:100B70000895C1E0F3CFFC0160838091E40591E02A
:100B800090930C0680932E0610920D0610922F065D
:100B9000606E862F90E00E94B1010C94AF00E4EDEE
:100BA000F5E011821082138212821782168211865A
:100BB00010860C94B601E4EDF5E080E490E09183BA
:100BC00080839383828397838683918780870C9425
:100BD000B601E4EDF5E089E790E0918380839383AB
:100BE000828397838683918780870C94B6016530D2
:100BF00010F00C94E905E62FF0E0EE0FFF1FEC5229
:100C0000FA4F50E05183408308956230A9F010926A
:100C1000D5051092D4051092D7051092D6051092E2
:100C2000DB051092DA051092DD051092DC0540E438
:100C30000E94F7050C94B60108953F924F925F927F
:100C40006F927F928F929F92AF92BF92CF92DF92DC
:100C5000EF92FF920F931F93CF93DF9300D000D0BA
:100C60001F92CDB7DEB76C01CB0168EE73E00E9436
:100C70005223695F7E4FFB014081498364E670E047
:100C80000E945223695F7E4FFB0130813A836AE004
:100C900070E00E945223695F7E4FFB0120812C830C
:100CA000FC01E95FFE4F80818D834F3339F4198257
:100CB0003F3321F41A822F3309F41C82C6010E94AB
:100CC000CF05CE0101967C0110E000E0312C2C0113
:100CD0009DE1692E91E0792E20E1822E912C023047
:100CE000110569F10115110509F052C09092D50561
:100CF0008092D4050E94B6016AE070E080E090E046
:100D00000E94C60287E1A82E81E0B82EF5018191EC
:100D10005F01F70190818923382AF5014081432939
:100D2000602FC6010E94F7050E94B6016AE070E0DC
:100D300080E090E00E94C6026A147B0439F70F5FDE
:100D40001F4FFFEFEF1AFF0A0530110541F64D81E5
:100D500042704068432950E05093DD054093DC0524
:100D60000F900F900F900F900F90DF91CF911F91E8
:100D70000F91FF90EF90DF90CF90BF90AF909F903A
:100D80008F907F906F905F904F903F900C94B60142
:100D9000B801615071090330110511F461E070E090
:100DA000F201E60FF71F408142704329C6010E94FD
:100DB000F70540E1602FC6010E94F7050E94B601C9
:100DC0006AE070E080E090E00E94C602312C9ACF89
:100DD000BF92CF92DF92EF92FF920F931F93CF9328
:100DE000DF937C018B01CB0189519C4F873F9A4255
:100DF00018F0C7010E94E90517FF2AC01195019557
:100E00001109BB24B394C4E08AE0C82ED12CDC2F96
:100E1000C150D53030F4C801B6010E945223803150
:100E200050F1C7010E94E905C23011F4CEEFCD0F99
:100E3000C801B6010E9452238B01672B41F7BB20EA
:100E400089F06C2F40E4C150C7010E94F7050AC029
:100E50000115110521F58FE390E09093DD05809356
:100E6000DC05C3E0C7FD10C040E06C2FC7010E9445
:100E7000F705C150F7CF895F9E4FFC0140816D2F70
:100E8000C7010E94F705D0CFDF91CF911F910F913D
:100E9000FF90EF90DF90CF90BF900C94B601B12CF3
:100EA000B2CFFC0101900020E9F73197AF01481B58
:100EB000590BBC018CE396E00C94850382E491E02D
:100EC0000C9451078F929F92AF92BF920F931F93F2
:100ED000CF93DF93CDB7DEB7A1970FB6F894DEBFFF
:100EE0000FBECDBF19A2423008F44AE08E010F5D5B
:100EF0001F4F842E912CB12CA12CA50194010E948E
:100F0000DF22E62FB901CA01EA30F4F4E05DD8012E
:100F1000EE938D01232B242B252B79F790E080E095
:100F2000109719F0CD010E945107A1960FB6F894C1
:100F3000DEBF0FBECDBFDF91CF911F910F91BF904C
:100F4000AF909F908F900895E95CE1CF682F70E09B
:100F500090E080E04AE00C946207CF93DF930E9418
:100F6000A607EC010E945E078C0F9D1FDF91CF91B9
:100F70000895CF92DF92EF92FF92CF93DF9397FF86
:100F80001BC06B017C016DE28CE396E00E9427049C
:100F9000EC0166277727CB016C197D098E099F0923
:100FA0004AE00E9462078C0F9D1FDF91CF91FF9056
:100FB000EF90DF90CF9008954AE0DF91CF91FF90BE
:100FC000EF90DF90CF900C946207CF93DF930E9455
:100FD000B907EC010E945E078C0F9D1FDF91CF9136
:100FE0000895009711F00C94510790E080E0089567
:100FF000CF92DF92EF92FF920F931F93CF93DF93E5
:10100000C82FD62F0AE010E03AE2F32E44E0E42E97
:1010100052E0D52EC8010E9406018A3259F185E4BA
:1010200091E00E94F107802F0E94A6078FE491E0D3
:101030000E94F107C8010E9406010E94A60786E5EA
:1010400091E00E94F1076AE270E080E090E00E9487
:10105000B9078FB701BD12BCF0BCF894EFBADFBA84
:101060008FBF8BE591E00E94F107C8010E94060145
:101070000E94AD07025E1F4F0436110559F60E940B
:101080005E078AE5E82EEC0EF12C94E0D92E22E0E2
:10109000C22E8EE591E00E94F1078C2F0E94A607D8
:1010A00082E495E00E94F1070C2F10E0C8010E9435
:1010B00006010E94AD07C8010E9406018D17B9F113
:1010C00085E491E00E94F1078C2F0E94A6078FE42F
:1010D00091E00E94F107C8010E9406010E94A60744
:1010E00086E591E00E94F1078D2F0E94A6078FB739
:1010F000C1BD12BCD0BDF894DFBACFBA8FBF8BE5AB
:1011000091E00E94F107C8010E9406010E94AD070C
:10111000FF24F394C25ECE11BCCF8F2DDF91CF910F
:101120001F910F91FF90EF90DF90CF90089589E687
:1011300091E00E94F107C8010E9406010E94AD07DC
:10114000E9CFFC0164838EE00C94F807CF93FC0197
:1011500082819381009751F0C62F603110F40E9474
:10116000BB056C2F8CE0CF910C94F807CF910895BC
:10117000DC01ED91FC918FEF860F843628F084819D
:1011800084838BE00C94F807862FFACF84E791E0F4
:101190000E94F10780910507909106070E94F107D0
:1011A00083E491E00E94F107E4EDF5E083E790E04D
:1011B0009183808389E390E09383828317821682F0
:1011C000118610860C94B6018CE791E00E94F1071D
:1011D000E0910907F0910A0780810E94A60783E445
:1011E00091E00C94F1078BE891E00E94F107E09107
:1011F0000B07F0910C0784810E94A60783E491E01D
:101200000C94F10788E991E00E94F107E0910B0747
:10121000F0910C0785810E94A60783E491E00C946D
:10122000F10782EA91E00E94F107E0910707F0914F
:101230000807648170E090E080E00E94B90783E4D1
:1012400091E00C94F1078EEA91E00E94F107E091A1
:101250000707F091080785810E94A60783E491E0C3
:101260000C94F107CF93DF93EC018A81623049F04F
:10127000633081F0613081F460E00E94F40160E04D
:1012800004C061E00E94F40161E08B81DF91CF91A5
:101290000C94F40160E0F6CF61E0EFCFCF93C62F5E
:1012A0002FEF260F2F3060F08AEB91E00E94F107BC
:1012B0008C2F0E94AD076C2F8DE0CF910C94F80716
:1012C000DC01ED91FC916583F6CFCF93DF930E9413
:1012D0005107EC010E945E078C0F9D1FDF91CF919B
:1012E0000895CF92DF92EF92FF92CF93C0911907AA
:1012F00084E68093190760E0809116070E94F4014C
:1013000061E0809115070E94F40160E085E197E0BB
:101310000E94320961E070E080E090E00E94C60225
:1013200085E197E00E948E046B017C0185E197E0E6
:101330000E944705C093190783EC91E00E94F107D2
:101340004AE0C701B6010E94620785E392E00E946D
:10135000F10788ECC816D104E104F10490F485E8A3
:1013600092E00E94650981E098ECC916D104E1047D
:10137000F10408F480E0CF91FF90EF90DF90CF90E0
:1013800008958FE494E0EDCF8F929F92AF92BF9239
:10139000CF92DF92EF92FF920F931F93CF93DF9341
:1013A00000D01F92CDB7DEB7982E8CEC91E00E9452
:1013B000F107CE0101966C010AE5090D7C01192D9A
:1013C0005C0182E691E00E94F107812F0E94A6074E
:1013D00082E495E00E94F107812F90E00E940601CF
:1013E000F70181937F010E94A607125E0113E9CFE6
:1013F0000E945E07812C00E0F12CF601E1906F0164
:10140000FF2031F0F501E00FF11D8081E81611F1A8
:1014100011E089818E1110E08A818E1101C01F5F59
:101420008B81E81201C01F5F81ED91E00E94F107FE
:101430008E2D0E94A60785E392E00E94F107812F7E
:101440000E94A60788ED91E00E946509811610F4BC
:101450000F2D812EF394F3E0FF12CFCFF501E00FB3
:10146000F11D108183E0881601F18EED91E00E945C
:10147000F107812F0E94A60785EE91E00E94650981
:10148000612F892D0E94F807812F0F900F900F90E8
:10149000DF91CF911F910F91FF90EF90DF90CF9050
:1014A000BF90AF909F908F9008958EED91E00E9435
:1014B000F107812F0E94A60782EF91E00E94650943
:1014C000E3CFCF92DF92EF92FF921F93CF93DF9300
:1014D000182F6A017B010E9479036C197D098E091E
:1014E0009F09613E734984409105E8F183E397E0E9
:1014F0000E94CF05CCE4D0E086E090E00E94F902A3
:101500008CE396E00E94E603181619066CF483E358
:1015100097E00E94DB05DF91CF911F91FF90EF9044
:10152000DF90CF900C947903111154C00E9471097F
:101530008111EDCF68EC70E080E090E00E94C6027F
:1015400021971C161D06C4F287EF91E00E946509E1
:1015500064EF71E080E090E00E94C6028FEF90E0BF
:101560000E94F902C9CF0E94790320910001AB01CA
:10157000BC014C195D096E097F09413C544D614025
:101580007105D8F027FF0FC0E0911107F091120705
:1015900080E0309709F080818093000161E083E36F
:1015A00097E00E94BB05C701B601DF91CF911F9163
:1015B000FF90EF90DF90CF90089527FDF4CF20317A
:1015C0002CF4622F83E397E00E94BB058FEF80939A
:1015D0000001E9CF0E9471098111ACCF98CF4F92E1
:1015E0005F926F927F928F929F92AF92BF92CF92B3
:1015F000DF92EF92FF920F931F93CF936B017C01C9
:10160000742EAC019B010E949A24882399F082E0F9
:1016100092E0CF911F910F91FF90EF90DF90CF90CC
:10162000BF90AF909F908F907F906F905F904F9002
:101630000C94510746015701E894B7F82FEF3FEF9C
:101640004FE75FE7C501B4010E949A2481110DC0E4
:101650002FEF3FEF4FE75FE7C501B4010E94AB21D9
:1016600018161CF486E092E0D4CF2FEF3FEF4FE73F
:101670005FE4C701B6010E94952418161CF48AE0A5
:1016800092E0C7CF2FEF3FEF4FE75FECC701B60106
:101690000E94AB2187FDF3CF20E030E0A901C70114
:1016A000B6010E94AB2110E000E087FF0AC06DE2A6
:1016B0008CE396E00E9427048C01F7FAF094F7F887
:1016C000F094C0E060E070E080E09FE37C1641F0C1
:1016D00020E030E040E251E40E94ED23CF5FF6CFFE
:1016E000A70196010E9481232B013C010E946624E0
:1016F0004B015C014AE00E9462077C01E00EF11E92
:10170000CC23C1F1C501B4010E94B0219B01AC0101
:10171000C301B2010E9480234B015C016EE28CE3A5
:1017200096E00E942704E80EF91EC15018F120E04F
:1017300030E040E251E4C501B4010E9411222B01C6
:101740003C010E9466244B01B12CA12C4AE0C5014A
:10175000B4010E946207E80EF91EC501B4010E949F
:10176000B0219B01AC01C301B2010E9480234B0157
:101770005C01DBCFC701CF911F910F91FF90EF90DC
:10178000DF90CF90BF90AF909F908F907F906F90A1
:101790005F904F9008950C94EF0A8F929F92AF92B2
:1017A000BF92CF92DF92EF92FF92E0910B07F09100
:1017B0000C0786889788A08CB18CC28CD38CE48C63
:1017C000F58C8EE092E00E94F10746E050E0C50102
:1017D000B4010E94CB0B85E392E00E94F10746E042
:1017E00050E0C701B6010E94CB0B85E392E00E9456
:1017F000F10783E491E0FF90EF90DF90CF90BF90EE
:10180000AF909F908F900C94F107EF92FF920F93FF
:101810001F93CF93DF93CDB7DEB760970FB6F894E1
:10182000DEBF0FBECDBFE0910B07F0910C078681A4
:101830009781A085B18589839A83AB83BC83828598
:101840009385A485B5858D839E83AF83B887868570
:101850009785A089B18989879A87AB87BC87828958
:101860009389A489B5898D879E87AF87B88B86E1D8
:1018700092E00E94F1078E010F5F1F4F7E0181E110
:10188000E80EF11CF80161917191819191918F01A4
:1018900046E050E00E94CB0B85E392E00E94F10706
:1018A0000E151F0579F783E491E060960FB6F89462
:1018B000DEBF0FBECDBFDF91CF911F910F91FF9083
:1018C000EF900C94F1074F925F926F927F928F92FC
:1018D0009F92BF92CF92DF92EF92FF920F931F934E
:1018E000CF93DF9300D000D0CDB7DEB77B01DC0112
:1018F000ED91FC913696CB014096DB014D915D91C7
:101900006D917D914193519361937193A817B9079C
:10191000A9F718E14E01B5E08B0E911CF70141903B
:101920005190619071907F0149825A826B827C82D2
:1019300082E292E00E94F10746E050E0C301B2016A
:101940000E94CB0B8BE292E00E946509CE010196CA
:101950006C01012FD601BD906D018B2D0E94A60751
:1019600085E392E00E94F1076B2D802F0E94F8071B
:101970000F5F8C149D0471F70E945E071C5F183284
:1019800069F60F900F900F900F90DF91CF911F91FC
:101990000F91FF90EF90DF90CF90BF909F908F902E
:1019A0007F906F905F904F9008954F925F926F92EB
:1019B0007F928F929F92BF92CF92DF92EF92FF928F
:1019C0000F931F93CF93DF9300D000D0CDB7DEB736
:1019D000DC012D913C91FB0180819181A281B38139
:1019E000F901868B978BA08FB18FFB018481958144
:1019F000A681B781F901828F938FA48FB58F6B0178
:101A000010E14E01F5E08F0E911CD6014D905D90D6
:101A10006D907D906D0149825A826B827C828FE24B
:101A200092E00E94F10746E050E0C301B2010E943B
:101A3000CB0B8BE292E00E946509FE0131967F019B
:101A4000012FD701BD907D018B2D0E94A60785E354
:101A500092E00E94F1076B2D802F0E94F8070F5F24
:101A60008E149F0471F70E945E071C5F183169F69F
:101A70000F900F900F900F90DF91CF911F910F91CA
:101A8000FF90EF90DF90CF90BF909F908F907F90CE
:101A90006F905F904F9008950F931F93CF93DF93B4
:101AA000CDB7DEB760970FB6F894DEBF0FBECDBFDF
:101AB0008C0187E392E00E94650981E492E00E9434
:101AC000F10762E0C8010E94B8088CE492E00E942D
:101AD000F1076FE0C8010E94A60885E592E00E9428
:101AE000F1076AE0C8010E944E0980E692E00E9478
:101AF000F10761E0C8010E94A1088EE692E00E9411
:101B0000F1078AE0F80185836AE08FE00E94F80718
:101B10008BE897E8A1E8BFE389839A83AB83BC8312
:101B20008FE19DEBA1ECBDEB8D839E83AF83B887E6
:101B3000BE016F5F7F4FC8010E94D50C19821A82C7
:101B40001B821C821D821E821F82188683EA9BE8EC
:101B5000ACECB2E489879A87AB87BC878AEB98E6BE
:101B6000A0E0B3EC8D879E87AF87B88BBE016F5F17
:101B70007F4FC8010E94630C60960FB6F894DEBFD9
:101B80000FBECDBFDF91CF911F910F91089580912E
:101B90000707909108070E944C0D8EE792E00E9483
:101BA000F10783E491E00C94F107CF93DF930E9457
:101BB000EF0AEC010E945E078C0F9D1FDF91CF9111
:101BC00008954F925F926F927F928F929F92AF9201
:101BD000BF92CF92DF92EF92FF920F931F93CF931A
:101BE000DF93CDB7DEB768970FB6F894DEBF0FBEB0
:101BF000CDBF6C015B01542E490119821A821B82F0
:101C00001C821D821E821F82188619861A861B86D8
:101C10001C861D861E861F86188A198A1A8A1B8AA8
:101C20001C8A60900D0770900E076114710419F002
:101C3000C3010E94CF0561E0D6018C910E94F4019E
:101C4000002329F061E0F60181810E94F40161E046
:101C500070E080E090E00E94C602D60115968C915B
:101C600010E080FF17C0552009F4DBC06114710437
:101C700009F4D7C060E0C3010E94050611E060E0EE
:101C8000C6010E943209C6010E948E0469837A83CC
:101C90008B839C83F601858181FF2BC0552069F0E1
:101CA00080910D0790910E07009739F0612F0E94E7
:101CB0000506113009F0B7C013E061E0C6010E94CB
:101CC0003209D60114960C91802F90E0880F991F4D
:101CD0008536910514F084E690E0F6018483C60110
:101CE0000E948E046D837E838F839887D60114961D
:101CF0000C93F601858183FF19C0552061F0809116
:101D00000D0790910E07009731F0612F0E94050694
:101D1000123009F413E063E0C6010E943209C601E3
:101D20000E948E046D877E878F87988BD6011596CB
:101D30008C9182FF16C0552049F080910D0790913B
:101D40000E07009719F0612F0E94050662E0C60198
:101D50000E943209C6010E948E0469877A878B87A8
:101D60009C87C6010E94470587E892E00E94F10720
:101D70008E010F5F1F4F2E01B1E14B0E511C380138
:101D8000F30161917191819191913F010E94B90795
:101D900085E392E00E94F1076414750489F74D848D
:101DA0005E846F8478884114510461047104E9F5FC
:101DB0008DE892E00E946509CC24CA94DC2C76015F
:101DC00081149104A9F0F401C4014096D8014D9109
:101DD0005D916D917D918D014193519361937193CB
:101DE000E817F90799F7F401C08AD18AE28AF38AE1
:101DF000C701B60168960FB6F894DEBF0FBECDBF1F
:101E0000DF91CF911F910F91FF90EF90DF90CF90D6
:101E1000BF90AF909F908F907F906F905F904F900A
:101E2000089510E02CCF11E048CF6D817E818F8125
:101E300098850E94B2216D8B7E8B8F8B988FC3010A
:101E4000B2010E94B2219B01AC016D897E898F890C
:101E5000988D0E94ED23D60156962D913D914D917E
:101E60005C9159970E941122F601228D338D448D89
:101E7000558D0E9481232B013C01A114B10491F1E5
:101E8000D5018D919D910D90BC91A02D8D8B9E8B38
:101E9000AF8BB88F20E030E0A901BC01CD010E94DA
:101EA000AB218823F9F02D893E894F89588DC301D4
:101EB000B2010E9480236D8B7E8B8F8B988F20E0E8
:101EC00030E0A9010E949524181694F428E539E31E
:101ED00044E35DE36D897E898F89988D0E94AB21F3
:101EE00087FD12C0E114F104E9F1D7011C923AC058
:101EF00028E539E344E35DEB6D897E898F89988D10
:101F00000E949524181674F78DE992E00E946509E5
:101F100042E050E0C301B2010E94CB0B85E392E0A6
:101F20000E94F107F501608171818281938142E015
:101F300050E00E94D50DD5012D913D914D915C91C0
:101F4000C301B2010E94812320E030E040E05FE362
:101F50000E9411222B013C01E114F10419F081E0EF
:101F6000F701808342E050E0C301B2010E94CB0B35
:101F700085E392E00E94F107F601268137814085D2
:101F80005185C301B2010E941122A30192010E9456
:101F90001122A30192010E9411226D8B7E8B8F8BE7
:101FA000988FD6011A962D913D914D915C911D9778
:101FB000C301B2010E941122A30192010E941122C9
:101FC0009B01AC016D897E898F89988D0E94812348
:101FD0006D8B7E8B8F8B988FF60126853785408998
:101FE0005189C301B2010E9411229B01AC016D898C
:101FF0007E898F89988D0E948123D60152962D91DA
:102000003D914D915C9155970E94812320E030E0F5
:1020100040E05FE30E9481230E945F246B017C010A
:1020200087EA92E00E94F107C701B6010E94E50726
:10203000A114B10409F4C4CEF50140825182628238
:102040007382BECECF92DF92EF92FF920F93F12C6C
:10205000E12C01E030E020E040E070E060E08091C1
:102060000B0790910C070E94E10D6B017C0184EB42
:1020700092E00E94F107C701B6010E94B90783E40C
:1020800091E00E94F1078091090790910A0720E1F1
:10209000C21627E2D206E104F10438F00F91FF9056
:1020A000EF90DF90CF900C94DB05B6010F91FF907D
:1020B000EF90DF90CF900C941D06CF92DF92EF92BD
:1020C000FF920F93CF93DF9300D000D0CDB7DEB750
:1020D00019821A821B821C82F12CE12C01E030E073
:1020E00020E040E0BE016F5F7F4F80910B07909131
:1020F0000C070E94E10D6B017C018AEA92E00E94CC
:10210000F10769817A818B819C8146E050E00E94D1
:10211000CB0B83E491E00E94F107B701A60149517E
:102120005C4F6F4F7F4F8091090790910A07473F9F
:102130005A426105710570F00E94DB050F900F9007
:102140000F900F90DF91CF910F91FF90EF90DF9064
:10215000CF900895B6010E94E806F0CFAF92BF92EB
:10216000CF92DF92EF92FF920F931F93CF93DF9363
:10217000CDB7DEB764970FB6F894DEBF0FBECDBF04
:10218000F12CE12C01E09E012F5F3F4F40E070E019
:1021900060E080910B0790910C070E94E10D6B01AC
:1021A0007C0189EA92E00E94F1078E010F5F1F4FC8
:1021B0005E0125E1A20EB11CF8016191719181913E
:1021C00091918F010E94B90785E392E00E94F10787
:1021D0000A151B0589F783E491E00E94F1078091BD
:1021E000090790910A07B701A60149515C4F6F4F4B
:1021F0007F4F473F5A426105710598F00E94DB0509
:1022000064960FB6F894DEBF0FBECDBFDF91CF91BD
:102210001F910F91FF90EF90DF90CF90BF90AF9004
:102220000895B6010E94E806EBCFEF92FF920F935C
:102230001F93CF93DF93CDB7DEB764970FB6F894B3
:10224000DEBF0FBECDBFF12CE12C00E09E012F5F61
:102250003F4F40E070E060E080910B0790910C07E9
:102260000E94E10D82EB92E00E94F1078E010F5F68
:102270001F4F7E0181E1E80EF11CF801619171911F
:10228000819191918F010E94B90785E392E00E94AC
:10229000F1070E151F0589F783E491E00E94F1070D
:1022A00064960FB6F894DEBF0FBECDBFDF91CF911D
:1022B0001F910F91FF90EF900895EF92FF920F936F
:1022C000CF93DF931F92CDB7DEB719829E012F5FA8
:1022D0003F4F790101E030E020E041E0BC0185E1C1
:1022E00097E00E94E10D97FF23C069313CEF73072F
:1022F0003FEF83079307BCF483E397E00E94DB057D
:102300008091D405998190FB87F990E09093D50551
:102310008093D4050E94B6010F90DF91CF910F9169
:10232000FF90EF90089583E397E00E94E806E8CFDE
:10233000603127E2720781059105F4F683E397E0A7
:102340000E941D06DDCFDF92EF92FF920F931F9345
:10235000CF93DF937C018B01C9EDD6E08A8190E0B9
:1023600001962BE0D22ED89EB001D99E700D11247B
:10237000888199810E949F24998388832A8148E0DB
:1023800050E0B7012D9D800D911D11240E948325E1
:102390008A81E881F9818D9DE00DF11D112412875C
:1023A00001878F5F8A83DF91CF911F910F91FF90FB
:1023B000EF90DF90089543E057E06EED76E090E017
:1023C00080E00C9411208F929F92AF92BF92CF9297
:1023D000DF92EF92FF920F931F93CF93DF93CDB7CE
:1023E000DEB728970FB6F894DEBF0FBECDBFCE0183
:1023F00001967C0110E000E06C010E94DB110E945C
:10240000E61F4B015C01F70181929192A192B1927A
:102410007F010E945C05882389F18AEB92E00E948B
:10242000F107000F111F000F111FC00ED11EF60182
:10243000608171818281938142E050E00E94D50DDC
:102440008EEC92E00E94F10783E491E00E94F10794
:1024500028960FB6F894DEBF0FBECDBFDF91CF91A7
:102460001F910F91FF90EF90DF90CF90BF90AF90B2
:102470009F908F90089501E010E0BFCF42E050E0C0
:10248000C501B4010E94CB0B85E392E00E94F107E5
:102490000130110581F70E945E07B60180910707A0
:1024A000909108070E94D50C8BED92E0CBCF8F92D4
:1024B0009F92AF92BF92CF92DF92EF92FF920F93D3
:1024C0001F93CF93DF93CDB7DEB760970FB6F89425
:1024D000DEBF0FBECDBF82EE92E00E94F107CE01BB
:1024E00001967C0110E000E06C010E94DB110E946B
:1024F000E61F4B015C01F70181929192A192B1928A
:102500007F010E945C05882371F18BEE92E00E94AE
:10251000F107000F111F000F111FC00ED11EF60191
:10252000608171818281938142E050E00E94D50DEB
:1025300083E093E00E94F10783E491E00E94F107B9
:1025400060960FB6F894DEBF0FBECDBFDF91CF917E
:102550001F910F91FF90EF90DF90CF90BF90AF90C1
:102560009F908F90089542E050E0C501B4010E9411
:10257000CB0B85E392E00E94F1070F5F1F4F043001
:10258000110509F0B2CF0E945E07B60180910707DE
:10259000909108070E94630C84E193E0CBCFCF9227
:1025A000DF92EF92FF920E94DB114AE050E070E070
:1025B00060E00E94CF1E6B017C010E94B2210E944C
:1025C0005C058823A1F08FE193E00E94F107C70129
:1025D000B6010E94E5078AE393E00E94F10783E4D5
:1025E00091E0FF90EF90DF90CF900C94F10780E1A5
:1025F000C816D104E104F10418F08EE493E0E5CFAD
:102600006C2D80910707909108070E94A60887E625
:1026100093E0E3CFCF92DF92EF92FF920E94DB1123
:102620004AE050E070E060E00E94CF1E6B017C0148
:102630000E94B2210E945C058823A1F085E793E007
:102640000E94F107C701B6010E94E5078EE893E0FA
:102650000E94F10783E491E0FF90EF90DF90CF902C
:102660000C94F107D701C6010197A109B10984367D
:102670009105A105B10518F080EA93E0E1CF6C2D3A
:1026800080910707909108070E94B80887EB93E0B4
:10269000DFCFCF92DF92EF92FF920E94DB114AE0F0
:1026A00050E070E060E00E94CF1E6B017C010E9450
:1026B000B2210E945C058823A1F083EC93E00E9484
:1026C000F107C701B6010E94E50785ED93E00E947E
:1026D000F10783E491E0FF90EF90DF90CF900C94AE
:1026E000F107D701C6010197A109B1090F97A1050B
:1026F000B10518F084EE93E0E2CF6C2D80910707CE
:10270000909108070E944E0988EF93E0E0CFCF92A6
:10271000DF92EF92FF920E94DB114AE050E070E0FE
:1027200060E00E94CF1E6B017C010E94B2210E94DA
:102730005C058823A1F081E094E00E94F107C701C5
:10274000B6010E94E50784E194E00E94F10783E46A
:1027500091E0FF90EF90DF90CF900C94F1078FEF16
:10276000C816D104E104F10421F018F085E294E0E8
:10277000E4CFE0910707F0910807C5826C2D8FE048
:102780000E94F8078BE394E0E0CFCF93DF930E94A1
:10279000DB110E94EA1FEC010E94DB11892BA9F4D6
:1027A000C230D10590F46C2F617080910707909131
:1027B00008070E94A10886E494E00E94F10783E4E0
:1027C00091E0DF91CF910C94F10781E594E0F5CF92
:1027D000AF92BF92CF92DF92EF92FF920F931F932F
:1027E000CF93DF938CE396E00E94E6031816190658
:1027F0000CF05DC08CE396E00E94C403C82F80916A
:10280000E006C81338C043E057E06EED76E081EE95
:1028100096E00E9411208C01892BD9F0C090DB0634
:10282000D12CC091D906D091DA06F12CE12CEC1410
:10283000FD04C4F45E0148E050E0BE01C8010E94FE
:1028400075252B96892B51F4D5011996ED91FC91A4
:1028500009951092E10610920207C4CFBFEFEB1A60
:10286000FB0AE5CFE091DC06F091DD06309789F3B5
:10287000C8010995EECF8C2F0C2E000C990B0E94ED
:102880005E25892B09F4AECFE0910207E03208F013
:10289000A9CF81E08E0F80930207F0E0E752F94F55
:1028A000C087E82FF0E0E752F94F10869BCF80E019
:1028B000DF91CF911F910F91FF90EF90DF90CF901C
:1028C000BF90AF9008951F920F920FB60F921124F0
:1028D0002F933F934F935F936F937F938F939F9328
:1028E000AF93BF93EF93FF938091B900887F8036B9
:1028F00009F44AC0F0F5883209F4A5C018F5803112
:1029000009F499C0B8F4882309F4F0C0883009F4B8
:1029100092C0FF91EF91BF91AF919F918F917F9165
:102920006F915F914F913F912F910F900FBE0F903C
:102930001F901895883109F486C0803251F7809332
:10294000090614C0803409F49BC040F48033B9F305
:102950008833F9F68093090685ECAEC0803509F41A
:1029600083C0883509F494C0883499F60E940D011B
:10297000D0CF883909F48AC038F5883729F050F467
:10298000883611F0803729F683E080930B06109289
:10299000CF0555C0883809F479C0803919F08038DE
:1029A00009F0B7CF8091CF05803208F06FC0E09179
:1029B000CF0581E08E0F8093CF058091BB00F0E0C2
:1029C000E155FA4F80833BC0803B39F0D0F4803A28
:1029D00009F477C0883A09F09CCF84E080930B0615
:1029E0001092AE051092AD05F0E0E0E009958091FF
:1029F000AD0581110FC081E08093AD0510928D056A
:102A000009C0803C09F4A8CF883C09F4A5CF883BD5
:102A100009F07FCFE091AE0581E08E0F8093AE0587
:102A2000F0E0E357FA4F80818093BB009091AE05B0
:102A30008091AD0529C08091E6058093BB0085ECAF
:102A40008093BC0066CF9091080680910706981786
:102A500058F5E091080681E08E0F80930806F0E0BB
:102A6000E951FA4F8081E9CFE091080681E08E0FAD
:102A7000809308068091BB00F0E0E951FA4F808313
:102A800090910806809107069817C8F285E8D8CF7C
:102A9000E091080681E08E0F809308068091BB00CC
:102AA000F0E0E951FA4F808380910A0681115ECFF0
:102AB00081E08093E50584EA8093BC0010920B06C8
:102AC00028CF8091CF05803230F4E091CF05F0E03F
:102AD000E155FA4F10826091CF0570E08FEA95E0E2
:102AE000F0E0E0E009951092CF0536CF109209068C
:102AF0003DCF1F920F920FB60F9211240F931F9389
:102B00002F933F934F935F936F937F938F939F93F5
:102B1000AF93BF932091840030918500B09B0BC090
:102B200081E086BB8091890590918A0501969093FA
:102B30008A05809389058091870590918805019683
:102B400040918505509186058417950708F445C086
:102B500010928805109287058091890590918A05C9
:102B6000B0E0A0E0DC0199278827820F931FA11D08
:102B7000B11D40918105509182056091830570914E
:102B800084058C019D01041B150B260B370BB90125
:102B9000A80140937D0550937E0560937F05709357
:102BA00080058093810590938205A0938305B0935F
:102BB000840581E080937C05BF91AF919F918F91B7
:102BC0007F916F915F914F913F912F911F910F9145
:102BD0000F900FBE0F901F901895909388058093CB
:102BE0008705EACF1F920F920FB60F9211242F93F1
:102BF0003F938F939F93AF93BF9380917405909170
:102C00007505A0917605B09177053091730523E0A5
:102C1000230F2D3758F50196A11DB11D2093730583
:102C20008093740590937505A0937605B09377050E
:102C30008091780590917905A0917A05B0917B05F6
:102C40000196A11DB11D8093780590937905A093FD
:102C50007A05B0937B05BF91AF919F918F913F9182
:102C60002F910F900FBE0F901F90189526E8230FFD
:102C70000296A11DB11DD2CF1F920F920FB60F92D7
:102C800011242F933F934F935F936F937F938F9371
:102C90009F93AF93BF93EF93FF938CE396E00E94D3
:102CA0000604FF91EF91BF91AF919F918F917F911A
:102CB0006F915F914F913F912F910F900FBE0F90A9
:102CC0001F9018951F920F920FB60F9211242F93F9
:102CD0008F939F93EF93FF93E0914C06F0914D06F5
:102CE0008081E0915206F091530682FD1BC09081D5
:102CF000809155068F5F8F7320915606821741F0A1
:102D0000E0915506F0E0E45CF94F958F809355060D
:102D1000FF91EF919F918F912F910F900FBE0F9088
:102D20001F9018958081F4CF1F920F920FB60F92CB
:102D300011240F900FBE0F901F901895CF93DF9323
:102D4000E0E3F6E01382128288EE93E0A0E0B0E0C8
:102D500084839583A683B78322E231E03183208385
:102D600020E826BF2CE426BFECE3F6E013821282B3
:102D700084839583A683B78384E391E091838083E2
:102D800085EC90E09587848784EC90E09787868730
:102D900080EC90E0918B808B81EC90E0938B828B28
:102DA00082EC90E0958B848B86EC90E0978B868B01
:102DB000118E128E138E148EC9EDD6E019821882F0
:102DC0001A821C821B828AE08F831BA61AA665E3E7
:102DD00072E08EED96E00E946E25188619A6E5E158
:102DE000F7E082E0808383E0818396E0928397E03E
:102DF000938384838FE0858383E397E090930E072A
:102E000080930D074BE857E861E87FE3468B578BCB
:102E1000608F718F4FE15DEB61EC7DEB428F538FE3
:102E2000648F758F1682178210861186128613861C
:102E30001486158643EA5BE86CEC72E44687578794
:102E4000608B718B4AEB58E660E073EC428B538BDE
:102E5000648B758BAFE0B7E01196FC93EE931396FD
:102E60009C938E93129721E014962C931497F093D1
:102E70000C07E0930B0790930A0780930907B09320
:102E80000807A093070782E694E0909306078093D3
:102E90000507DF91CF910895CF93DF93CDB7DEB7CC
:102EA000A0970FB6F894DEBF0FBECDBF8091F200A1
:102EB00080618EBB80E88093F2009EB39093F20015
:102EC0008093610091E09093610080936100909302
:102ED0006100789484B5826084BD84B5816084BDCE
:102EE00085B5826085BD85B5816085BD80916E00A8
:102EF000816080936E0010928100809181008260D9
:102F00008093810080918100816080938100809115
:102F100080008160809380008091B1008460809304
:102F2000B1008091B00081608093B00080919100E9
:102F300082608093910080919100816080939100E4
:102F40008091900081608093900080917A008460ED
:102F500080937A0080917A00826080937A008091D9
:102F60007A00816080937A0080917A0080688093F3
:102F70007A001092C10010E060E0812F0E9455029B
:102F800060E0812F0E94F4011F5F1631A9F7809144
:102F90007E008F6380937E0080917A008F7780938C
:102FA0007A0061E08DE00E94550261E08DE00E94B0
:102FB000F401E0914C06F0914D0682E08083E091AF
:102FC0004806F09149061082E0914A06F0914B06BE
:102FD00080E1808310925406E0915006F0915106F2
:102FE00086E08083E0914E06F0914F0680818061FB
:102FF0008083E0914E06F0914F0680818860808347
:10300000E0914E06F0914F06808180688083E091C8
:103010004E06F0914F0680818F7D808366EC78E0CC
:1030200088E694E00E94A31162E270E189E794E0EF
:103030000E94A3116DE570E180E794E00E94A31166
:103040006EEA70E18FE694E00E94A31165E171E100
:1030500087E794E00E94A31163EE71E18BED92E0AB
:103060000E94A3116DEC7BE08EE794E00E94A31117
:1030700067E572E185E894E00E94A31165E07CE0D9
:103080008EE894E00E94A3116FEC72E187E994E06E
:103090000E94A31164EE78E080EA94E00E94A311FC
:1030A0006AE073E189EA94E00E94A31163EF78E09B
:1030B00082EB94E00E94A31169E473E188EF93E04E
:1030C0000E94A31162E079E08BEB94E00E94A311CF
:1030D00065EC73E184EC94E00E94A31161E179E076
:1030E0008DEC94E00E94A31167E873E186ED94E013
:1030F0000E94A31163E279E08FED94E00E94A31196
:1031000067EC7DE08EE792E00E94A3110E94E81335
:1031100080E78093E40510928C0510928B05109245
:103120000D0610922F0680917E008F7C80937E008A
:1031300010920B0611E010930A061092E50561E06B
:1031400082E10E94F40161E083E10E94F401809138
:10315000B9008E7F8093B9008091B9008D7F8093F4
:10316000B90088E48093B80085E48093BC00809126
:10317000E40510930C0680932E0610920D06109213
:103180002F0681E290E00E94B1010E94AF001093EF
:103190000C0610920D0610922F0681E890E00E9416
:1031A000B1010E94AF0010930C0610920D06109210
:1031B0002F068FEE90E00E94B1010E94AF0083E3E2
:1031C00097E00E94CF0561E0809117070E945502A9
:1031D00061E0809118070E94550261E08091160716
:1031E0000E94550261E0809115070E94550285E119
:1031F00097E00E9447058AE00E94C4098A3209F0DC
:103200009CC388EE94E00E94650984EF94E00E94DC
:10321000F1078BE00E94C40962E0853608F4682F4C
:103220008FE097E00E94B808E0910F07F091100737
:1032300084810E94A6070E945E078EEF94E00E94A0
:10324000F1078091110790911207892B09F48BC027
:103250008CE00E94C4096FE0803108F4682F8FE091
:1032600097E00E94A608E0911107F091120780E014
:10327000309709F080810E94A6070E945E078FE0C8
:1032800095E00E94F1078DE00E94C4099FEF980F1E
:103290006AE09F3008F4682F8FE097E00E944E09A3
:1032A000E0910F07F091100785810E94A6070E9408
:1032B0005E0789E195E00E94F1078EE00E94C40953
:1032C00061E08F3F09F054C08FE097E00E94A108B1
:1032D0006091130770E090E080E00E94B9070E94BF
:1032E0005E0786E295E00E94F1078FE00E94C40924
:1032F0008F3F09F041C08AE0809314076AE08FE0B5
:103300000E94F807809114070E94A60785E395E0C4
:103310000E9465098CE395E00E946509CE01019643
:103320007C016C016624639410E1782E0F2DE4E09B
:103330008E2E810EFE0175965F01181509F19924F4
:103340009394910E812F0E94C409F50181935F012E
:103350008F3F09F0612C0E94A60785E392E00E944E
:10336000F107192DEACF86E095E00E94F10785CF9D
:103370008111AACF60E0A8CF80931407682FBFCF38
:103380008D889E88AF88B88C46E050E0C501B401B6
:103390000E94D50DC501B4010E945C058823A9F0E7
:1033A00084E495E00E9465098BE897E8A1E8BFE313
:1033B00089839A83AB83BC838FE19DEBA1ECBDEB4A
:1033C0008D839E83AF83B8870BC0F6018192919263
:1033D000A192B1926F01183109F0A9CF6110E4CF29
:1033E000B7018FE097E00E94D50C81E595E00E943F
:1033F0006509DD24D39418E174E0972E910ECE0177
:1034000045965C011915A1F0CC24C394C10E812FFF
:103410000E94C409F50181935F018F3F09F0D12C0F
:103420000E94A60785E392E00E94F1071C2DEACFD7
:103430008D889E88AF88B88C46E050E0C501B40105
:103440000E94D50DC501B4010E945C058823E9F0F6
:1034500084E495E00E94650919821A821B821C820D
:103460001D821E821F82188683EA9BE8ACECB2E4C0
:1034700089879A87AB87BC878AEB98E6A0E0B3EC94
:103480008D879E87AF87B88B0BC0F7018192919291
:10349000A192B1927F01183209F0AECFD110DCCFEA
:1034A000672D702F8FE097E00E94630C0FE710E00C
:1034B0001093D5050093D4051092D7051092D60528
:1034C0001092DB051092DA051092DD051092DC05F2
:1034D0000E94B6016AEF70E080E090E00E94C602B0
:1034E0001092D5051092D4051093D7050093D605F8
:1034F0000E94B6016AEF70E080E090E00E94C60290
:103500001092D7051092D6051093DB050093DA05CB
:103510000E94B6016AEF70E080E090E00E94C6026F
:103520001092DB051092DA051093DD050093DC059F
:103530000E94B6016AEF70E080E090E00E94C6024F
:1035400060E08DE00E94F40160E08DE00E94550291
:103550000E947109811112C380911307882309F415
:1035600008C388E595E00E9465091091190784E673
:103570008093190780910D0790910E07009711F025
:103580000E94CF0561E0809115070E94F40161E07F
:10359000809116070E94F40161E070E080E090E005
:1035A0000E94C60261E085E197E00E94320985E150
:1035B00097E00E948E044B015C0163E085E197E097
:1035C0000E94320985E197E00E948E046B017C0124
:1035D000C501B4010E94E507C701B6010E94E507D5
:1035E00085E197E00E94470510931907F9E28F16CD
:1035F000FAE09F06A104B1040CF4A4C1D501C401F2
:1036000088529A40A109B10984339840A105B105B7
:10361000A4F481E4C81686E0D806E104F1040CF4B1
:103620009AC1D701C60180549640A109B10911E0A1
:103630008C3D9540A105B10544F1F9E98F16FAE3F7
:103640009F06A104B1040CF48FC1D501C4018859AF
:103650009A43A109B10988359B41A105B105A4F49C
:1036600081E1C8168EE0D806E104F1040CF485C1AE
:10367000D701C60180519E40A109B10912E08433EF
:103680009840A105B1050CF010E088E595E00E9496
:10369000F107C501B4010E94B90781E695E00E94D7
:1036A000F107C701B6010E94B9078BE591E00E94BE
:1036B000F107812F0E94AD07113009F05AC283E350
:1036C00097E00E94CF0539E3632E712C7092D505E7
:1036D0006092D40547E7842E912C9092D705809272
:1036E000D60558E3A52EB12CB092DB05A092DA05E1
:1036F00066E0C62ED12CD092DD05C092DC050E947A
:10370000B60183E695E00E94650964EF71E080E010
:1037100090E00E94C602F12CE12C01E09E012F5F97
:103720003F4F40E070E060E085E197E00E94E10DEE
:103730000E94E8138111A9C07092D5056092D4054A
:103740009092D7058092D605B092DB05A092DA055B
:10375000D092DD05C092DC050E94B60164EF71E0F5
:1037600080E090E00E94C6020E94E81381118DC0A3
:103770006D817E818F8198850E94B2212B013C0151
:103780006D857E858F8598890E94B2216B017C01B1
:1037900020E030E842E255E4C301B2010E948023F8
:1037A0004B015C0120E030E0A9010E94952418162D
:1037B00024F0B7FAB094B7F8B09420E030E443E0D6
:1037C00055E4C501B4010E94AB2187FFC7C120E0C9
:1037D00030E048EC54E4C701B6010E9480234B015D
:1037E0005C0120E030E0A9010E949524181624F025
:1037F000B7FAB094B7F8B09420E030E84BEB54E45B
:10380000C501B4010E94AB2187FFA8C1A7019601A1
:10381000C301B2010E94ED234B015C0142E050E084
:10382000C301B2010E94CB0B88E695E00E94F1072C
:1038300042E050E0C701B6010E94CB0B87EA92E05C
:103840000E94F10745E050E0C501B4010E94CB0B96
:103850008AE695E00E94F107C0901407F4E6CF9E37
:10386000600111240E94E00126010D2C000C660865
:1038700077080E947109811189C0C301B2010E94B9
:10388000C6020E94E8138823A1F319821A821B82C0
:103890001C82812C912C540122242394312C08E089
:1038A00010E0C090140724E6C29E600111240E941B
:1038B000E813882321F00E9479034B015C010E94E8
:1038C00071090D2C000CEE08FF08882309F43EC294
:1038D0000E9479034B015C018EE390E09093D50543
:1038E0008093D405E3E7F0E0F093D705E093D605A5
:1038F0001092DB051092DA051092DD051092DC05BE
:103900000E94B601B501A40181E00E94610A2B0169
:103910003C010E947109882309F435C1C701B60131
:103920000E94C6020E94E813882321F00E947903B6
:103930002B013C01B301A201E7CF8FE097E00E9489
:103940004C0DB4CD88E29AE0A0E0B0E08819990966
:10395000AA09BB0959CE80E496E0A0E0B0E08C193A
:103960009D09AE09BF0963CE88E99AE3A0E0B0E003
:1039700088199909AA09BB096ECE80E19EE0A0E0F2
:10398000B0E08C199D09AE09BF0978CE8EE390E0B6
:103990009093D5058093D40583E790E09093D70565
:1039A0008093D6051092DB051092DA051092DD05A2
:1039B0001092DC050E94B6010D2C000CEE08FF08E9
:1039C0000E947109882349F0C701B6010E94C6020E
:1039D0000E94E8138823A1F358CF0E94E00164EF0E
:1039E00071E080E090E00E94C602F12CE12C01E041
:1039F0009E012F5F3F4F40E070E060E085E197E07F
:103A00000E94E10D0E94E81381113FCF0E94E00166
:103A100064EF71E080E090E00E94C6020E94E8132B
:103A2000811133CF6D817E818F8198850E94B22173
:103A30002B013C016D857E858F8598890E94B2217E
:103A40006D8F7E8F8F8F98A39B01AC01C301B20154
:103A50000E94ED236B017C01A50194010E9480234B
:103A60009B01AC016DEC7CEC8CE090E40E94ED23BA
:103A70009B01AC012D8B3E8B4F8B588FC501B40140
:103A80000E9411229B01AC0160E070E080EC9FE39A
:103A90000E948023698F7A8F8B8F9C8F42E050E049
:103AA000C301B2010E94CB0B88E695E00E94F107AA
:103AB00042E050E06D8D7E8D8F8D98A10E94CB0BE2
:103AC00087EA92E00E94F10745E050E0C701B601A5
:103AD0000E94CB0B8BE591E00E94F1076D897E89F6
:103AE0008F89988D45E050E00E94CB0B81E695E0F0
:103AF0000E94F107698D7A8D8B8D9C8D45E050E099
:103B00000E94D50D0E94E8138111BFCEBE016B5EED
:103B10007F4F8FE097E00E94D50C6AE070E080E074
:103B200090E00E94C6028EE590E09093D5058093C8
:103B3000D4058FE390E09093D7058093D60584E574
:103B400090E09093DB058093DA0589E790E090930D
:103B5000DD058093DC050E94B60197CE83E397E0F4
:103B60000E94E90568EB7BE080E090E00E94C602DD
:103B70008CCE90E080E00E945D1187CE83E397E0D9
:103B80000E94CF0582CE68EE73E080E090E00E9454
:103B9000C60292E0A92EB12C3092D5052092D40510
:103BA0000E94B60169E270E080E090E00E94C602E7
:103BB0001092D5051092D4053092D7052092D605E3
:103BC0000E94B60169E270E080E090E00E94C602C7
:103BD0001092D7051092D6053092DB052092DA05B7
:103BE0000E94B60169E270E080E090E00E94C602A7
:103BF0001092DB051092DA053092DD052092DC058B
:103C00000E94B60169E270E080E090E00E94C60286
:103C100082E090E09093DD058093DC050E94B60180
:103C200069E270E080E090E00E94C602E4E0F0E02B
:103C3000F093DD05E093DC050E94B60169E270E0D7
:103C400080E090E00E94C6021093DD050093DC0541
:103C50000E94B60169E270E080E090E00E94C60236
:103C60001092DD051092DC051093DB050093DA0558
:103C70000E94B60169E270E080E090E00E94C60216
:103C80001092DB051092DA051093D7050093D60544
:103C90000E94B60169E270E080E090E00E94C602F6
:103CA0001092D7051092D6051093D5050093D40530
:103CB0000E94B60169E270E080E090E00E94C602D6
:103CC00080E190E09093D5058093D4050E94B601E1
:103CD00069E270E080E090E00E94C602E0E2F0E07D
:103CE000F093D505E093D4050E94B60169E270E037
:103CF00080E090E00E94C602AA94AB2809F04BC075
:103D000083E397E00E94CF0564E670E080E090E0F6
:103D10000E94C6020E9479036419750986099709F1
:103D2000613A7F408105910520F019821A821B8239
:103D30001C82CE0101960E945D110E947903AB01A5
:103D4000BC0180E00E94610A4B015C01C701B60121
:103D50000E94C6020E947903681979098A099B09A1
:103D6000613A7F408105910570F019821A821B82A9
:103D70001C828091D4058F7790E09093D505809335
:103D8000D4050E94B601B501A40180E00E94610A39
:103D90004B015C0186CDAA24A394B12CFDCEB0E0EA
:103DA000A0E0E5EDFEE10C940D235C016B017A01CE
:103DB0006115710519F0FB0191838083E114F10411
:103DC00051F0C7010297839730F040E030E020E0E7
:103DD00090E072C05E01E5012196F5011081812F0E
:103DE00090E00E940820892BA9F71D3201F5219649
:103DF000F501118101E0E114F10409F4DAC0F0E108
:103E0000EF16F10409F082C0103359F488818F7DD8
:103E1000883509F076C0198122960260F0E1EF2E14
:103E2000F12C812C912CA12C88E0B82E8CC01B3257
:103E300021F4E5012296F501118100E0DCCFEAE0F2
:103E4000EE16F10409F4BBC0F0E1EF16F10409F03D
:103E50006DC0E7CF78E0E72EF12C812C912CA12CBE
:103E600060E1B62E70C03FE9310F3A3128F439EAEB
:103E7000332E80C021E09AC0302F3170C114D1049C
:103E800031F0222309F12197F601D183C08327FF66
:103E900021C060E070E080E090E8311104C06FEF75
:103EA0007FEF8FEF9FE722E230E0309335072093DA
:103EB0003407462F372F282F642F732F822FCDB72B
:103EC000DEB7E1E10C94292301FF04C02297F6013B
:103ED000D183C083332341F090958095709561958F
:103EE0007F4F8F4F9F4FE5CF97FFE3CF82E290E068
:103EF00090933507809334076FEF7FEF8FEF9FE745
:103F0000D8CF10E3E114F10409F4A4CF28E0E216BD
:103F1000F10409F4A2CF0CF092CF812C912CA12CAA
:103F2000E0E4BE2E82E0E816F10469F060E070E0A3
:103F300080E090E897010F2C000C440B550B0E9479
:103F4000DF2249015A0120E060E070E0CB01270147
:103F50000F2C000C66087708FE0150ED352E310E4F
:103F600039E0331540F43FEB310F3A3108F07BCFA5
:103F700049EC342E310E3E141F040CF07DCF27FD8A
:103F800015C086169706A806B90678F0A301920117
:103F90000E94CF22630D711D811D911D613071053D
:103FA000810520E8920708F465CF2FEF2196108154
:103FB000D3CF103309F42ACF2AE0E22EF12C9CEC67
:103FC000892E982CA82C9CE0B92EBDCF6627772788
:103FD0000C944020FC0188279927E89421912032F5
:103FE000E9F3293010F02E30C8F32B3241F02D3296
:103FF00039F4689404C00E943820820F911D2191E9
:1040000020532A30C0F31EF4909581959F4F089558
:1040100091110C949021803219F089508550C8F785
:104020000895FA01A191B081009719F41097E1F079
:10403000CD01DC01CD010D90002011F4C00113C0B1
:10404000FB012191222319F02015D9F7F3CFFB01B1
:104050002191201519F41E92119606C02223C1F752
:104060000D900020A1F7D001FA01A193B08308952B
:104070007AE0979F902D879F802D910D11240895B0
:10408000B0E0A0E0E6E4F0E20C9412235C017B01D6
:104090006115710519F0DB018D939C9385010F5F0C
:1040A0001F4FF501D0818D2F90E00E9408206C01F8
:1040B000892BB9F5DD32B9F50F5F1F4FD501119688
:1040C000DC91C1E05801F1E0AF1AB10843E050E0E3
:1040D00060E770E0C5010E949321892B69F56801B2
:1040E00082E0C80ED11C45E050E06BE670E0C601EE
:1040F0000E949321892B21F4680197E0C90ED11CFD
:10410000E114F10419F0D701CD92DC9260E070E087
:1041100080E89FEFC111FFC060E070E080E89FE79A
:10412000FAC05801BBCFDB3229F485010E5F1F4F67
:10413000F501D181C0E0C6CF43E050E068E670E011
:10414000C5010E949321892BE9F0F80110E000E0FD
:1041500020E030E0A9015F01B0ED8B2E8D0E89E0EB
:104160008815C8F19C2E689491F88C2F8870C2FF36
:1041700016C0811102C00F5F1F4F3196D501DC912F
:10418000C92DE9CFE114F10429F00E5F1F4FF701AB
:104190001183008360E070E080EC9FE7BCC088235F
:1041A00011F001501109A5E0B0E00E9401239B012C
:1041B000AC01220F331F441F551F280D311D411D17
:1041C000511D283999E93907490799E15907A8F29A
:1041D000C6609C2ED2CFAEEF8A1206C0C3FD3CC093
:1041E0009C2E689493F8C9CFDF7DD534A9F58081E2
:1041F0008D3239F4C061DF011296818162E070E096
:1042000006C0DF018B32C1F3119661E070E080538C
:104210005D01A61AB70A8A30F8F4E0E8CE16ECE0A1
:10422000DE065CF4B601660F771F660F771FC60EB9
:10423000D71ECC0CDD1CC80ED11C5D01FFEFAF1AE0
:10424000BF0A8C9180538A30A8F1C4FF03C0D19477
:10425000C194D1080C0D1D1DC1FF09C0E114F1046A
:1042600031F081E0A81AB108D701AD92BC92CA0121
:10427000B9010E94B021C370C33009F490584B01BA
:104280005C0120E030E0A9010E94AB21882309F401
:1042900040C0CFE9D0E017FF05C011950195110985
:1042A000C7E8D0E06E01B8E1CB1AD10880E2E82E71
:1042B000F12C0FC0D501B1CFFE012591359145916B
:1042C00054910E191F09C501B4010E9411224B011E
:1042D0005C01D501C4010E151F0574F72497F594F0
:1042E000E794CC16DD06A9F78A2F880F8B2F881F3D
:1042F0008F3F49F020E030E0A901C501B4010E94E0
:10430000AB21811106C082E290E090933507809343
:104310003407C501B401CDB7DEB7ECE00C942E2311
:10432000992788270895FB01DC014150504088F00F
:104330008D9181341CF08B350CF4805E6591613475
:104340001CF06B350CF4605E861B611171F3990BE8
:104350000895881BFCCF0E94ED2108F481E00895A8
:10436000E89409C097FB3EF490958095709561950F
:104370007F4F8F4F9F4F9923A9F0F92F96E9BB27C5
:104380009395F695879577956795B795F111F8CF41
:10439000FAF4BB0F11F460FF1BC06F5F7F4F8F4FAC
:1043A0009F4F16C0882311F096E911C0772321F0A2
:1043B0009EE8872F762F05C0662371F096E8862F3A
:1043C00070E060E02AF09A95660F771F881FDAF791
:1043D000880F9695879597F90895990F0008550FBE
:1043E000AA0BE0E8FEEF16161706E807F907C0F07B
:1043F00012161306E407F50798F0621B730B840B83
:10440000950B39F40A2661F0232B242B252B21F45C
:1044100008950A2609F4A140A6958FEF811D811DFC
:1044200008950E9424220C9495220E94872238F03D
:104430000E948E2220F0952311F00C947E220C9481
:10444000842211240C94C9220E94A62270F3959F05
:10445000C1F3950F50E0551F629FF001729FBB277B
:10446000F00DB11D639FAA27F00DB11DAA1F649F17
:104470006627B00DA11D661F829F2227B00DA11DCA
:10448000621F739FB00DA11D621F839FA00D611D50
:10449000221F749F3327A00D611D231F849F600D71
:1044A000211D822F762F6A2F11249F5750409AF09A
:1044B000F1F088234AF0EE0FFF1FBB1F661F771F26
:1044C000881F91505040A9F79E3F510580F00C94F1
:1044D0007E220C94C9225F3FE4F3983ED4F3869584
:1044E00077956795B795F795E7959F5FC1F7FE2B91
:1044F000880F911D9695879597F9089597F99F676D
:1045000080E870E060E008959FEF80EC089500245B
:104510000A941616170618060906089500240A9428
:1045200012161306140605060895092E0394000CAE
:1045300011F4882352F0BB0F40F4BF2B11F460FF3D
:1045400004C06F5F7F4F8F4F9F4F089557FD905866
:10455000440F551F59F05F3F71F04795880F97FB47
:10456000991F61F09F3F79F0879508951216130601
:104570001406551FF2CF4695F1DF08C01616170630
:104580001806991FF1CF8695710561050894089565
:10459000E894BB2766277727CB0197F90895DB01BD
:1045A0008F939F930E940123BF91AF91A29F800D93
:1045B000911DA39F900DB29F900D11240895A1E22B
:1045C0001A2EAA1BBB1BFD010DC0AA1FBB1FEE1F8D
:1045D000FF1FA217B307E407F50720F0A21BB30BD8
:1045E000E40BF50B661F771F881F991F1A9469F754
:1045F00060957095809590959B01AC01BD01CF01B0
:1046000008950E944323A59F900DB49F900DA49FF1
:10461000800D911D112408952F923F924F925F9229
:104620006F927F928F929F92AF92BF92CF92DF92C2
:10463000EF92FF920F931F93CF93DF93CDB7DEB727
:10464000CA1BDB0B0FB6F894DEBF0FBECDBF0994BB
:104650002A88398848885F846E847D848C849B8412
:10466000AA84B984C884DF80EE80FD800C811B8120
:10467000AA81B981CE0FD11D0FB6F894DEBF0FBE4F
:10468000CDBFED010895A29FB001B39FC001A39FCC
:10469000700D811D1124911DB29F700D811D11247B
:1046A000911D089597FB072E16F4009407D077FD0F
:1046B00009D00E946C2307FC05D03EF490958195AB
:1046C0009F4F0895709561957F4F0895EE0FFF1FDE
:1046D0000590F491E02D0994AA1BBB1B51E107C082
:1046E000AA1FBB1FA617B70710F0A61BB70B881F82
:1046F000991F5A95A9F780959095BC01CD01089511
:104700005058BB27AA270E9498230C9495220E94F8
:10471000872238F00E948E2220F039F49F3F19F44E
:1047200026F40C9484220EF4E095E7FB0C947E2290
:10473000E92F0E94A62258F3BA176207730784076D
:10474000950720F079F4A6F50C94C8220EF4E095B4
:104750000B2EBA2FA02D0B01B90190010C01CA013B
:10476000A0011124FF27591B99F0593F50F4503EE6
:1047700068F11A16F040A22F232F342F4427585FD8
:10478000F3CF469537952795A795F0405395C9F7F0
:104790007EF41F16BA0B620B730B840BBAF09150A8
:1047A000A1F0FF0FBB1F661F771F881FC2F70EC047
:1047B000BA0F621F731F841F48F48795779567951A
:1047C000B795F7959E3F08F0B0CF9395880F08F006
:1047D0009927EE0F9795879508950E9401240C94D0
:1047E00095220E948E2258F00E94872240F029F4E0
:1047F0005F3F29F00C947E2251110C94C9220C9435
:1048000084220E94A62268F39923B1F3552391F3E1
:10481000951B550BBB27AA2762177307840738F02F
:104820009F5F5F4F220F331F441FAA1FA9F335D08C
:104830000E2E3AF0E0E832D091505040E695001C40
:10484000CAF72BD0FE2F29D0660F771F881FBB1FFA
:10485000261737074807AB07B0E809F0BB0B802DD8
:10486000BF01FF2793585F4F3AF09E3F510578F004
:104870000C947E220C94C9225F3FE4F3983ED4F35B
:10488000869577956795B795F7959F5FC9F7880FD8
:10489000911D9695879597F90895E1E0660F771F2A
:1048A000881FBB1F621773078407BA0720F0621BBB
:1048B000730B840BBA0BEE1F88F7E09508950E94E6
:1048C00066246894B1110C94C92208950E94AE2206
:1048D00088F09F5798F0B92F9927B751B0F0E1F0C1
:1048E000660F771F881F991F1AF0BA95C9F714C071
:1048F000B13091F00E94C822B1E008950C94C82212
:10490000672F782F8827B85F39F0B93FCCF38695A9
:1049100077956795B395D9F73EF490958095709506
:1049200061957F4F8F4F9F4F08950E94ED2108F4AE
:104930008FEF08950E94ED21880B990B0895B0E048
:10494000A0E0E5EAF4E20C940E238C01009751F408
:10495000CB010E9492258C01C801CDB7DEB7E0E102
:104960000C942A23FC01E60FF71F9C012250310909
:10497000E217F30708F49DC0D901CD91DC9111979E
:10498000C617D70798F0C530D10530F3CE0104978C
:104990008617970708F3C61BD70B2297C193D193AD
:1049A0006D937C93CF010E942E26D6CF5B01AC1A6B
:1049B000BD0A4C018C0E9D1EA0913807B09139079D
:1049C000512C412CF12CE12C109731F580913607B8
:1049D000909137078815990509F05CC0461657066F
:1049E00008F058C08091010190910201009741F4B4
:1049F0008DB79EB74091050150910601841B950B20
:104A0000E817F90708F055C0F0933707E093360729
:104A1000F90171836083A0CF8D919C9111971296BB
:104A20006C90129713967C901397A815B90559F5B9
:104A30006C0142E0C40ED11CCA14DB0420F1AC01AD
:104A40004A195B09DA011296159780F06282738227
:104A500051834083D9016D937C93E114F10471F08B
:104A6000D7011396FC93EE93129776CF22968C0F74
:104A70009D1FF90191838083F301EFCFF0933907F4
:104A8000E093380769CF4816590608F42C017D01D8
:104A9000D3019ACFCB010E9492257C01009749F067
:104AA000AE01B8010E946525C8010E942E2687012B
:104AB00053CF10E000E050CF803209F091110C94F8
:104AC000902180528F55D8F70895FB01DC0102C078
:104AD00001900D9241505040D8F70895FB01DC0140
:104AE00001900D920020E1F70895FB01DC01415097
:104AF000504030F08D910190801919F40020B9F7E1
:104B0000881B990B0895FB01DC014150504048F08F
:104B100001900D920020C9F701C01D9241505040F4
:104B2000E0F708950F931F93CF93DF9382309105A1
:104B300010F482E090E0E0913807F091390730E01E
:104B400020E0B0E0A0E0309799F42115310509F498
:104B50004AC0281B390B24303105D8F58A819B8146
:104B60006115710589F1FB0193838283FE0111C0F8
:104B7000408151810281138148175907E0F048179D
:104B8000590799F4109761F012960C9312971396A7
:104B90001C933296CF01DF91CF911F910F91089511
:104BA0000093380710933907F4CF2115310551F0E0
:104BB0004217530738F0A901DB019A01BD01DF015B
:104BC000F801C1CFEF01F9CF9093390780933807EF
:104BD000CDCFFE01E20FF31F819391932250310953
:104BE00039832883D7CF2091360730913707232B7D
:104BF00041F4209103013091040130933707209351
:104C0000360720910101309102012115310541F44F
:104C10002DB73EB74091050150910601241B350B7D
:104C2000E0913607F0913707E217F307A0F42E1B47
:104C30003F0B2817390778F0AC014E5F5F4F241700
:104C4000350748F04E0F5F1F5093370740933607E4
:104C5000819391939FCFF0E0E0E09CCFCF93DF93DF
:104C60000097E9F0FC01329713821282A091380775
:104C7000B0913907ED0130E020E01097A1F42081D8
:104C80003181820F931F2091360730913707281703
:104C9000390709F061C0F0933707E0933607DF91D9
:104CA000CF910895EA01CE17DF07E8F54A815B81CD
:104CB0009E0141155105B1F7E901FB83EA83499152
:104CC0005991C40FD51FEC17FD0761F480819181C4
:104CD0000296840F951FE9019983888382819381CD
:104CE0009B838A83F0E0E0E012968D919C9113976C
:104CF0000097B9F52D913C911197CD010296820F45
:104D0000931F20913607309137072817390739F656
:104D1000309751F51092390710923807B093370742
:104D2000A0933607BCCFD383C28340815181840FC7
:104D3000951FC817D90761F44E5F5F4F888199812D
:104D4000480F591F518340838A819B8193838283BB
:104D50002115310509F0B0CFF0933907E0933807FA
:104D60009ECFFD01DC01C0CF13821282D7CFF89411
:024D7000FFCF73
:104D7200FF00003A0780003F065B4F666D7D077FAC
:104D82006F777C395E7971100804402001020000BF
:104D9200000082015501B20330014E013F01310191
:104DA2000000000027048503B5036E04E603C40374
:104DB200D8030D0A007570642061646472200020BB
:104DC20066726F6D200020746F20003D3E00726598
:104DD2006164206164647220006E6F20757064618A
:104DE20074652000544F4E494E4F3A004745544295
:104DF20052494748544E4553533A0047455453414C
:104E02004D504C494E473A00474554434D4F444557
:104E12003A0047455443414C494E49543A004745AC
:104E2200544C5444454C41593A004552523A756EDD
:104E32006B200069734C696768743A00726561643B
:104E420000666F756E64200074696D65730075731A
:104E5200696E6720002D3E636F7272656374696EBE
:104E620067002D3E6F6B00706F77657220646F77FD
:104E72006E006E616E00696E66006F766600474571
:104E82005443414C3A004745545343414C494E47E1
:104E92003A005363616C696E6720002061730043BE
:104EA200616C69622E200053746F726520646566BE
:104EB2000053616D706C696E673A200042726967D7
:104EC20068743A2000436F6C206D6F64653A20006D
:104ED200446F5F696E69745F63616C3A2000446578
:104EE2006C61795F74696C6C5F75703A2000524531
:104EF200534554444546007363616E3A004552522D
:104F02003A6469762F3028626C756529006176658E
:104F120072616765643A003D0049495F5343414EFF
:104F22003A00445F5343414E3A0053455443414C87
:104F3200204552523A696E76206E756D20005345B7
:104F42005443414C204552524F5200534554434121
:104F52004C005B7363616C655D20005345545343A1
:104F6200414C494E47204552523A696E76206E7541
:104F72006D20005345545343414C494E47204552FE
:104F8200524F52005345545343414C494E470053EC
:104F920045544252494748544E4553532045525274
:104FA2003A696E76206E756D20005345544252491F
:104FB2004748544E455353204552524F5200534591
:104FC200544252494748544E455353204552523A4F
:104FD20072616E67652000534554425249474854F6
:104FE2004E4553530053455453414D504C494E473F
:104FF200204552523A696E76206E756D20005345F7
:105002005453414D504C494E47204552524F520045
:1050120053455453414D504C494E47204552523A04
:1050220072616E6765200053455453414D504C499F
:105032004E4700534554434D4F4445204552523A42
:10504200696E762000534554434D4F4445204552E6
:10505200524F5200534554434D4F444520455252FE
:105062003A72616E67652000534554434D4F444583
:10507200005345544C5444454C4159204552523AF0
:10508200696E76005345544C5444454C4159204571
:1050920052524F52005345544C5444454C415920AE
:1050A2004552523A72616E676520005345544C5422
:1050B20044454C41590053455443414C494E49548F
:1050C2000053455443414C494E4954204552524F96
:1050D2005200312031203800544F4E494E4F004982
:1050E200495F5343414E00445F5343414E0047459D
:1050F2005443414C005345545343414C49004745A6
:10510200545343414C490053455442524947480085
:1051120047455442524947480053455453414D5024
:105122004C0047455453414D504C00474554434D64
:105132004F44450053455443414C494E0047455462
:1051420043414C494E005345544C5444454C00474E
:1051520045544C5444454C005265616420454550C9
:10516200524F4D0053616D706C696E673A00427226
:10517200696768743A002069676E6F7265640043FC
:105182006F6C206D6F64653A00446F5F696E69747D
:105192005F63616C3A0044656C61795F74696C6C41
:1051A2005F75703A002A3130306D730043616C696B
:1051B200622E3A006572722D3E64656661756C748A
:1051C200005363616C653A00697343616C69623ACA
:0E51D200002C0043616C2E002F003B200000DB
:00000001FF
