:100000000C9485000C94AD000C94AD000C94AD00E4
:100010000C94AD000C94AD000C9438140C941D138A
:100020000C94AD000C94AD000C94AD000C94AD009C
:100030000C94AD000C94AD000C94AD000C94AD008C
:100040000C9496130C94AD000C9406140C94E013CD
:100050000C94AD000C94AD000C94AD000C94AD006C
:100060000C9407120C94AD004E414E494E49545920
:10007000494E46CDCCCC3D0AD7233C17B7D1387773
:10008000CC2B329595E6241FB14F0A000020410089
:1000900000C84200401C4620BCBE4CCA1B0E5AAED3
:1000A000C59D7400000000240027002A002D0000D8
:1000B000000000250028002B002E00040404040486
:1000C0000404040202020202020303030303030501
:1000D0000505050505050102040810204080010200
:1000E0000408102001020408102002080104102056
:1000F0004000000008500201000003040700000057
:100100000000000000000000421411241FBECFEFC9
:10011000D8E0DEBFCDBF24E0ACE0B3E001C01D926B
:10012000A83DB207E1F713E0A0E0B1E0E8E8F6E4AB
:1001300002C005900D92AC30B107D9F710E0C5E8C8
:10014000D0E004C02197FE010E94F11FC438D107FE
:10015000C9F70E94F0140C9442230C9400002091E3
:10016000CD0381E0213208F040C08091A9038111C4
:10017000FCCF8091CC0392E09093A90391E09093FF
:10018000A8039FEF9093A7031092A6032093A503C3
:10019000ACEAB3E0E5E8F3E090E029132DC010925B
:1001A000840390918403880F892B8093840380912A
:1001B0008303813031F41092830380918403809310
:1001C000BB0085EE8093BC008091A9038230E1F3EF
:1001D0008091A7038F3FA1F08091A703803291F017
:1001E0008091A703803381F084E01092AB031092DA
:1001F000CD031092AA0308953D9131939F5FCDCF17
:1002000080E0F3CF82E0F1CF83E0EFCF81BD12BC7D
:10021000F89A0000000080B50895DF92EF92FF92F7
:100220000F931F93CF93DF93C82FD62F0AE010E0D0
:100230002AE2F22E34E0E32E42E0D42EC8010E94DE
:1002400006018A3241F08FB701BD12BCF0BCF894B0
:10025000EFBADFBA8FBF025E1F4F0436110571F788
:100260000AE50C0F10E084E0F82E92E0E92E8C2FC6
:1002700090E00E9406018D1749F08FB7C1BD12BCF6
:10028000D0BDF894FFBAEFBA8FBF11E0C25E0C1375
:10029000EECF812FDF91CF911F910F91FF90EF90C3
:1002A000DF900895CF92DF92FF920F931F93CF9329
:1002B000DF9300D01F92CDB7DEB7182F90E00E94D9
:1002C0000601082F89838EE1810F90E00E940601CC
:1002D000F82E8A838CE3810F90E00E9406018B83C5
:1002E000DE01119640E050E020E0BD013D91222367
:1002F00039F06B01C50ED11CF6019081931769F09E
:1003000091E0301390E03F1101C09F5F831301C063
:100310009F5F491710F4522F492F2F5F233031F779
:10032000FB01E50FF11D0081433021F0602F812F8B
:100330000E940D01802F0F900F900F90DF91CF91B1
:100340001F910F91FF90DF90CF90089585ED8093DE
:10035000BC008091BC0084FDFCCF1092A9030895DD
:10036000613298F42091A903243089F460934B03FF
:10037000282FABE2B3E0FC018E2F821B861710F012
:1003800080E0089581918D93F7CF81E0089582E018
:100390000895089581E090E030912A032091290387
:1003A000321710F490E080E09195819591090895BD
:1003B00080912A0390912903891730F48F5F8093ED
:1003C0002A0390E080E008958FEF9FEF08958091D9
:1003D000290390912A03891B990B0895CF92DF92EC
:1003E000EF92FF920F931F93CF93DF937C01CB018A
:1003F0008A012091AA03222389F0EB016B01C40E2C
:10040000D51ECC15DD0569F06991D701ED91FC9100
:100410000190F081E02DC7010995F3CF642F0E9470
:10042000B001C801DF91CF911F910F91FF90EF9024
:10043000DF90CF900895CF93DF931F92CDB7DEB7B3
:1004400069832091AA032223F9F02091CD03203261
:1004500058F021E030E0FC013383228390E080E01B
:100460000F90DF91CF9108958091AB03E82FF0E0DA
:10047000E455FC4F998190838F5F8093AB03809309
:10048000CD0381E090E0ECCF61E0CE0101960E94C7
:10049000B001F7CF682F8EEC93E00C941B021F93F2
:1004A000CF93DF938091820391E09093AA0380938E
:1004B000CC031092AB031092CD0360E08EEC93E07E
:1004C0000E941B02C2E7D3E06881198122968EEC5C
:1004D00093E00E941B02612F8EEC93E00E941B02AE
:1004E00083E0C238D80781F7DF91CF911F910C9438
:1004F000AF00E2E7F3E089E390E09183808387E750
:1005000090E09383828388E390E0978386838BE5F2
:1005100090E0918780870C944F0290E0FC01EF50AF
:10052000FF4F2491FC01EA52FF4F349185549F4FB5
:10053000FC018491882361F12223C9F021502B30E2
:10054000B0F4E22FF0E0E955FD4F0C94F11FCD021D
:10055000D102B202C902B702B702D402DA02DE0245
:10056000E402E802909180009F7790938000E82F4A
:10057000F0E0EE0FFF1FE155FF4FA591B4918FB74B
:10058000F894EC91611128C030953E233C938FBFC5
:100590000895909180009F7DE8CF94B59F7794BD9A
:1005A000E6CF94B59F7DFBCF9091B0009F7790935D
:1005B000B000DDCF9091B0009F7DF9CF9091900079
:1005C0009F7790939000D3CF909190009F7DF9CF2B
:1005D00090919000977FF5CF3E2BD8CFCF93DF93AC
:1005E000282F30E0F901EA52FF4F449125543F4F44
:1005F000F9012491843011F583E08093A000222337
:10060000D1F0822F90E0880F991FFC01ED55FF4F2C
:10061000A591B491FC01E155FF4FC591D4916111B1
:1006200022C09FB7F8948C91409584238C93888145
:10063000482348839FBFDF91CF9108959AEE980F8A
:10064000923020F48FEF84BF84BFD9CF8A31B9F6BE
:100650008091F00082608EBB80E88093F0008EB3C2
:100660008093F000CCCF8FB7F894EC914E2B4C9345
:100670008FBFE1CF3FB7F894809116039091170395
:10068000A0911803B091190326B5A89B05C02F3F70
:1006900019F00196A11DB11D3FBFBA2FA92F982FA8
:1006A0008827BC01CD01620F711D811D911D42E0A3
:1006B000660F771F881F991F4A95D1F708958F926B
:1006C0009F92AF92BF92CF92DF92EF92FF926B0117
:1006D0007C010E943A034B015C01C114D104E10486
:1006E000F104B9F00E943A03681979098A099B0953
:1006F000683E73408105910580F321E0C21AD1085C
:10070000E108F10888EE880E83E0981EA11CB11C58
:10071000E4CFFF90EF90DF90CF90BF90AF909F908D
:100720008F9008951F93CF93DF93EC018091F20097
:1007300080936E038091610080936F038091CF005E
:100740008093710380916000809370031FB7F894C9
:100750008091F2008F70806590E89093F200809312
:10076000F200000000009093610010926100CF3F02
:10077000D105F9F0A895809160008776282F20692F
:10078000886980936000209360008091F200806906
:100790009093F2008093F2008C2F8770C830D105BF
:1007A00008F08062982F9065886580936000909330
:1007B000600080E88093CF0092E09093CF009DE0AE
:1007C00093BF88950000000098E093BF8093CF000E
:1007D000909171039093CF008093610080916F039B
:1007E0008093610080916E0385FF06C064E670E02F
:1007F00080E090E00E945F0380E88093F2008091A7
:100800006E038093F200CF3FD10539F080917003E1
:10081000806180936000809360001FBFDF91CF9163
:100820001F9108952FB7F8946091120370911303EC
:1008300080911403909115032FBF0895AF92BF923A
:10084000CF92DF92EF92FF920F931F93CF93DF939C
:100850006C017B018B01040F151FEB015E01AE18CB
:10086000BF08C017D10759F06991D601ED91FC91ED
:100870000190F081E02DC6010995892B79F7C5011A
:10088000DF91CF911F910F91FF90EF90DF90CF906C
:10089000BF90AF90089590E080E00895FC01538DE3
:1008A000448D252F30E0842F90E0821B930B54174A
:1008B00010F0CF96089501970895FC01918D828DD7
:1008C000981761F0A28DAE0FBF2FB11D5D968C9170
:1008D000928D9F5F9F73928F90E008958FEF9FEFAF
:1008E0000895FC01918D828D981731F0828DE80F6B
:1008F000F11D858D90E008958FEF9FEF0895FC0125
:10090000918D228D892F90E0805C9F4F821B9109F1
:100910008F73992708958AED93E00E947F0421E068
:10092000892B09F420E0822F089580E090E0892B44
:1009300029F00E948B0481110C9400000895FC01A1
:10094000A48DA80FB92FB11DA35ABF4F2C91848D30
:1009500090E001968F739927848FA689B7892C938D
:10096000A089B1898C9180648C93938D848D981328
:1009700006C00288F389E02D80818F7D80830895F1
:10098000EF92FF920F931F93CF93DF93EC0181E0DF
:10099000888F9B8D8C8D981316C0E889F98980818A
:1009A00085FF11C0EE89FF896083E889F98980811C
:1009B0008064808381E090E0DF91CF911F910F915F
:1009C000FF90EF900895F62E0B8D10E00F5F1F4FF4
:1009D0000F731127E02E8C8D8E110CC00FB607FC03
:1009E000FACFE889F989808185FFF5CFCE010E9491
:1009F0009F04F1CFEB8DEC0FFD2FF11DE35AFF4F5C
:100A0000F0820B8FEA89FB8980818062D2CFCF93FD
:100A1000DF93EC01888D8823B9F0AA89BB89E88926
:100A2000F9898C9185FD03C0808186FD0DC00FB6CC
:100A300007FCF7CF8C9185FFF2CF808185FFEDCF4A
:100A4000CE010E949F04E9CFDF91CF910895CF930B
:100A5000DF93EC0160E070E0CB010E945F036C81EA
:100A600070E088EE93E00E94DD1F10922603109242
:100A70002503109228031092270310921F0310924F
:100A80002003109221031092220310921A038091E6
:100A90008000809310038091810080930F03109257
:100AA000810010928000109285001092840081E0F5
:100AB00086BB10926F008091B00080930E038091EE
:100AC000B10080930D031092B10082E08093B000DA
:100AD000CB0187709927892B09F059C023E07695BF
:100AE00067952A95E1F78CE78093B30087E08093C0
:100AF0000C0382E087BB1092B200709324036093D2
:100B000023039FB7F89483BD20910C032093B10079
:100B1000809370008BE08150F1F787E08093810033
:100B20009FBF80911A038823E1F31092B1001092C5
:100B3000700080910E038093B00080910D0380932C
:100B4000B100109281008091100380938000809109
:100B50000F03809381008FB7F89420911B0330918D
:100B60001C0340911D0350911E0310921A038FBF66
:100B7000AC81B0E00E948C1F2EE130E040E050E0FC
:100B80000E946A1FCA01B901DF91CF910895CB017C
:100B900083709927892B49F47695679576956795A3
:100BA00089EF8093B30086E0A2CF60FD04C0769504
:100BB00067958CE7F6CF8CE78093B30085E097CFFD
:100BC000CF93DF93EC0160E08A810E948D0260E0A8
:100BD0008B810E948D0260E089810E948D0260E01D
:100BE0008881DF91CF910C948D02CF92DF92EF92AA
:100BF000FF92CF93C091B70484E68093B70460E07E
:100C00008091B4040E948D0261E08091B3040E943F
:100C10008D0261E08091B5040E948D0260E08091B8
:100C2000B6040E948D0261E070E080E090E00E94D6
:100C30005F0383EB94E00E9427056B017C0183EB4B
:100C400094E00E94E005C093B70481E098ECC916D7
:100C5000D104E104F10408F480E0CF91FF90EF901B
:100C6000DF90CF9008958F929F92AF92BF92CF92D4
:100C7000DF92EF92FF92CF936B017C01AC019B015D
:100C80000E94252181114CC046015701E894B7F814
:100C90002FEF3FEF4FE75FE7C501B4010E94252129
:100CA00081110AC02FEF3FEF4FE75FE7C501B401A5
:100CB0000E94361E1816A4F12FEF3FEF4FE75FE4B6
:100CC000C701B6010E942021181654F12FEF3FEF03
:100CD0004FE75FECC701B6010E94361E87FD20C0BA
:100CE00020E030E040E05FE4C701B6010E94361E1C
:100CF000C1E0882351F020E030E040E05FECC70124
:100D0000B6010E94361E8111C0E08C2FCF91FF905A
:100D1000EF90DF90CF90BF90AF909F908F9008950D
:100D2000C1E0F3CFFC0160838091820391E0909356
:100D3000AA038093CC031092AB031092CD03606E94
:100D4000862F90E00E944A020C94AF00E2E7F3E0A5
:100D500011821082138212821782168211861086E7
:100D60000C944F02E2E7F3E080E490E0918380830B
:100D70009383828397838683918780870C944F0225
:100D8000FC0164838EE00C940D012FEF260F2F30B1
:100D900020F4DC01ED91FC9165838DE00C940D0154
:100DA000CF93FC0182819381009751F0C62F60316F
:100DB00010F40E9492066C2F8CE0CF910C940D01E0
:100DC000CF910895DC01ED91FC918FEF860F843671
:100DD00028F0848184838BE00C940D01862FFACF58
:100DE000AF92BF92CF92DF92EF92FF920F931F9339
:100DF000CF93DF9300D000D0CDB7DEB77B01DC010D
:100E0000ED91FC913696CB014096DB014D915D91C1
:100E10006D917D914193519361937193A817B90797
:100E2000A9F718E15E01B5E0AB0EB11CF7018191A5
:100E30009191A191B1917F0189839A83AB83BC8306
:100E4000CE0101966C01012FD6016D916D01802FAD
:100E50000E940D010F5FAC14BD04B1F71C5F183286
:100E600029F70F900F900F900F90DF91CF911F9166
:100E70000F91FF90EF90DF90CF90BF90AF900895CB
:100E8000AF92BF92CF92DF92EF92FF921F93CF93D8
:100E9000DF9300D000D0CDB7DEB77B01DC012D9110
:100EA0003C91FB0180819181A281B381F901868B04
:100EB000978BA08FB18FFB0184819581A681B7812B
:100EC000F901828F938FA48FB58FFB01808191816F
:100ED000A281B38189839A83AB83BC83CE010196BF
:100EE0006C015C0110E1D5016D915D01812F0E94C3
:100EF0000D011F5F1431B9F7F70184819581A68137
:100F0000B78189839A83AB83BC83D6016D916D01D0
:100F1000812F0E940D011F5F1831B9F70F900F90BC
:100F20000F900F90DF91CF911F91FF90EF90DF9086
:100F3000CF90BF90AF9008950F931F93CF93DF93FF
:100F4000CDB7DEB760970FB6F894DEBF0FBECDBF4A
:100F50008C0162E00E94E2066FE0C8010E94D006A8
:100F60006AE0C8010E94C50661E0C8010E94C0068F
:100F70008AE0F80185836AE08FE00E940D0185E533
:100F800095E1A4EFBFE389839A83AB83BC838EEAA8
:100F90009DE9A4E4BFEB8D839E83AF83B887BE0138
:100FA0006F5F7F4FC8010E94400719821A821B821F
:100FB0001C821D821E821F82188683EA9BE8ACEC8D
:100FC000B2E489879A87AB87BC878AEB98E6A0E072
:100FD000B3EC8D879E87AF87B88BBE016F5F7F4F65
:100FE000C8010E94F00660960FB6F894DEBF0FBEEF
:100FF000CDBFDF91CF911F910F910895CF92DF92D6
:10100000EF92FF921F93CF93DF93182F6A017B011A
:101010000E9412046C197D098E099F09613E734973
:101020008440910598F181ED94E00E94A606CCE4FD
:10103000D0E086E090E00E9492038AED93E00E9467
:101040007F04181619066CF481ED94E00E94B20634
:10105000DF91CF911F91FF90EF90DF90CF900C9494
:10106000120411114AC00E94F5058111EDCF21979C
:101070001C161D06F4F264EF71E080E090E00E941F
:101080005F038FEF90E00E949203D3CF0E9412047F
:1010900020910001AB01BC014C195D096E097F096B
:1010A000413C544D61407105D8F027FF0FC0E091DD
:1010B000AF04F091B00480E0309709F08081809314
:1010C000000161E081ED94E00E949206C701B60143
:1010D000DF91CF911F91FF90EF90DF90CF90089517
:1010E00027FDF4CF20312CF4622F81ED94E00E9493
:1010F00092068FEF80930001E9CF0E94F5058111E0
:10110000B6CFA2CFE2E7F3E089E790E09183808356
:101110009383828397838683918780870C944F0281
:10112000653010F00C948208E62FF0E0EE0FFF1F00
:10113000EE58FC4F50E05183408308956230A9F08F
:10114000109273031092720310927503109274033D
:10115000109279031092780310927B0310927A0315
:1011600040E40E9490080C944F0208952F923F9201
:101170004F925F926F927F928F929F92AF92BF92A7
:10118000CF92DF92EF92FF920F931F93CF93DF9353
:10119000CDB7DEB76A970FB6F894DEBF0FBECDBFEE
:1011A0006C017E8B6D8B942E190119821A821B8221
:1011B0001C821D821E821F82188619861A861B8633
:1011C0001C861D861E861F86188A198A1A8A1B8A03
:1011D0001C8AA090AB04B090AC04A114B10419F027
:1011E000C5010E94A60661E0F60180810E948D0281
:1011F000002329F061E0F60181810E948D0261E007
:1012000070E080E090E00E945F03F601858110E0CD
:1012100080FF1DC0992009F4F2C0A114B10409F4A3
:10122000EEC060E0C5010E949E0811E061E0F60199
:1012300082810E948D0260E0F60183810E948D020E
:10124000C6010E94270569837A838B839C83F601FC
:10125000858181FF2DC0992059F0A114B10441F07E
:10126000612FC5010E949E08113009F0CAC013E029
:1012700060E0F60182810E948D0260E0F6018381C8
:101280000E948D02F6018480882D90E0880F991FBE
:101290008536910514F084E690E0F6018483C6015A
:1012A0000E9427056D837E838F839887F601848251
:1012B000F601858183FF1DC0992051F0A114B1046E
:1012C00039F0612FC5010E949E08123009F413E025
:1012D00060E0F60182810E948D0261E0F601838167
:1012E0000E948D02C6010E9427056D877E878F8729
:1012F000988BF601858182FF1AC0992039F0A114DC
:10130000B10421F0612FC5010E949E0861E0F60141
:1013100082810E948D0261E0F60183810E948D022C
:10132000C6010E94270569877A878B879C87C6013B
:101330000E94E0058D849E84AF84B8886FEF7FEFB4
:10134000CB0181149104A104B10409F4CCC06D81D6
:101350007E818F8198850E943D1E2B013C01C50135
:10136000B4010E943D1E9B01AC01C301B2010E9469
:101370007820F60126893789408D518D0E949C1E68
:10138000F601228D338D448D558D0E940C204B012A
:101390005C012D893E892115310559F1F901408003
:1013A00051806280738020E030E0A901C301B20166
:1013B0000E94361E8823E9F0A3019201C501B40101
:1013C0000E940B206F8B788F898F9A8F20E030E0FE
:1013D000A9010E9420211816B4F428E539E344E35A
:1013E0005DE36F89788D898D9A8D0E94361E87FD09
:1013F00016C0E114F10439F1F701108224C010E0A5
:1014000015CF11E035CF28E539E344E35DEB6F8973
:10141000788D898D9A8D0E942021181654F7A3018A
:101420009201C501B4010E940C2020E030E040E0B0
:101430005FE30E949C1E4B015C01E114F10419F072
:1014400081E0F7018083F60126813781408551854F
:10145000C501B4010E949C1EA50194010E949C1E1E
:10146000A50194010E949C1E2B013C01F6012285DE
:10147000338544855585C501B4010E949C1EA50194
:1014800094010E949C1E9B01AC01C301B2010E9409
:101490000C202B013C01F6012685378540895189B6
:1014A000C501B4010E949C1E9B01AC01C301B201A5
:1014B0000E940C20F60122893389448955890E94B3
:1014C0000C2020E030E040E05FE30E940C200E940E
:1014D000EA202D893E892115310529F0F901808204
:1014E0009182A282B38221143104B1F0DE011196FF
:1014F000F1019101205F3F4FCD90DD90ED90FD9087
:10150000C192D192E192F1922E173F07A9F7F10112
:10151000608B718B828B938B6A960FB6F894DEBFCB
:101520000FBECDBFDF91CF911F910F91FF90EF9034
:10153000DF90CF90BF90AF909F908F907F906F90F3
:101540005F904F903F902F9008953F924F925F92FF
:101550006F927F928F929F92AF92BF92CF92DF92C3
:10156000EF92FF920F931F93CF93DF9300D000D0A1
:101570001F92CDB7DEB76C01CB0168EE73E00E941D
:10158000DD1F695F7E4FFB014081498364E670E0A7
:101590000E94DD1F695F7E4FFB0130813A836AE064
:1015A00070E00E94DD1F695F7E4FFB0120812C836C
:1015B000FC01E95FFE4F80818D834F3339F419823E
:1015C0003F3321F41A822F3309F41C82C6010E9492
:1015D000A606CE0101967C0110E000E0312C2C0122
:1015E0009DE1692E91E0792E20E1822E912C02302E
:1015F000110569F10115110509F052C090927303AC
:10160000809272030E944F026AE070E080E090E0F6
:101610000E945F0387E1A82E81E0B82EF501819139
:101620005F01F70190818923382AF5014081432920
:10163000602FC6010E9490080E944F026AE070E08D
:1016400080E090E00E945F036A147B0439F70F5F2B
:101650001F4FFFEFEF1AFF0A0530110541F64D81CC
:1016600042704068432950E050937B0340937A03D3
:101670000F900F900F900F900F90DF91CF911F91CF
:101680000F91FF90EF90DF90CF90BF90AF909F9021
:101690008F907F906F905F904F903F900C944F028F
:1016A000B801615071090330110511F461E070E077
:1016B000F201E60FF71F408142704329C6010E94E4
:1016C000900840E1602FC6010E9490080E944F02DE
:1016D0006AE070E080E090E00E945F03312C9ACFD6
:1016E000BF92CF92DF92EF92FF920F931F93CF930F
:1016F000DF937C018B01CB0189519C4F873F9A423C
:1017000018F0C7010E94820817FF2AC011950195A1
:101710001109BB24B394C4E08AE0C82ED12CDC2F7D
:10172000C150D53030F4C801B6010E94DD1F8031B0
:1017300050F1C7010E948208C23011F4CEEFCD0FE4
:10174000C801B6010E94DD1F8B01672B41F7BB204A
:1017500089F06C2F40E4C150C7010E9490080AC074
:101760000115110521F58FE390E090937B038093A1
:101770007A03C3E0C7FD10C040E06C2FC7010E9490
:101780009008C150F7CF895F9E4FFC0140816D2FBB
:10179000C7010E949008D0CFDF91CF911F910F9188
:1017A000FF90EF90DF90CF90BF900C944F02B12C40
:1017B000B2CFEF92FF920F93CF93DF931F92CDB7EB
:1017C000DEB719829E012F5F3F4F790101E030E0C3
:1017D00020E041E0BC0183EB94E00E94B60897FF53
:1017E00023C069313CEF73073FEF83079307BCF4D5
:1017F00081ED94E00E94B20680917203998190FB82
:1018000087F990E090937303809372030E944F02D4
:101810000F90DF91CF910F91FF90EF90089581EDA0
:1018200094E00E94700BE8CF603127E272078105D7
:101830009105F4F681ED94E00E94A50ADDCFDF92D8
:10184000EF92FF920F931F93CF93DF937C018B0155
:10185000C7E7D4E08A8190E001962BE0D22ED89E93
:10186000B001D99E700D1124888199810E942A218E
:10187000998388832A8148E050E0B7012D9D800D2F
:10188000911D11240E940E228A81E881F9818D9D8B
:10189000E00DF11D1124128701878F5F8A83DF918C
:1018A000CF911F910F91FF90EF90DF900895FC0171
:1018B00001900020E9F73197AF01481B590BBC019B
:1018C0008AED93E00C941E048F929F92AF92BF9288
:1018D0000F931F93CF93DF93CDB7DEB7A1970FB6CA
:1018E000F894DEBF0FBECDBF19A2423008F44AE023
:1018F0008E010F5D1F4F842E912CB12CA12CA501C0
:1019000094010E946A1FE62FB901CA01EA30F4F47B
:10191000E05DD801EE938D01232B242B252B79F745
:1019200090E080E0109719F0CD010E94570CA1962D
:101930000FB6F894DEBF0FBECDBFDF91CF911F91E0
:101940000F91BF90AF909F908F900895E95CE1CF89
:10195000CF92DF92EF92FF92CF93DF9397FF1BC05E
:101960006B017C016DE28AED93E00E94C004EC0102
:1019700066277727CB016C197D098E099F094AE0FC
:101980000E94640C8C0F9D1FDF91CF91FF90EF9010
:10199000DF90CF9008954AE0DF91CF91FF90EF90D4
:1019A000DF90CF900C94640C009711F00C94570CBE
:1019B00090E080E0089582E491E00E94D40C809150
:1019C000A3049091A4040E94D40C8AE491E00E94A4
:1019D000D40CE2E7F3E083E790E09183808389E32E
:1019E00090E09383828317821682118610860C946E
:1019F0004F02CF92DF92EF92FF920F93F12CE12CE6
:101A000001E030E020E040E070E060E08091A90477
:101A10009091AA040E94B6086B017C0189E591E0CF
:101A20000E94D40CC701B6010E94A80C8AE491E080
:101A30000E94D40C8091A7049091A80420E1C216C2
:101A400027E2D206E104F10438F00F91FF90EF9005
:101A5000DF90CF900C94B206B6010F91FF90EF90FB
:101A6000DF90CF900C94A50AAF92BF92CF92DF92F5
:101A7000EF92FF920F931F93CF93DF93CDB7DEB713
:101A800064970FB6F894DEBF0FBECDBFF12CE12CEA
:101A900001E09E012F5F3F4F40E070E060E08091E9
:101AA000A9049091AA040E94B6086B017C018CE401
:101AB00091E00E94D40C8E010F5F1F4F5E0125E163
:101AC000A20EB11CF80161917191819191918F01E8
:101AD0000E94A80C85E591E00E94D40C0A151B0514
:101AE00089F78AE491E00E94D40C8091A704909138
:101AF000A804B701A60149515C4F6F4F7F4F473F84
:101B00005A426105710598F00E94B20664960FB6BC
:101B1000F894DEBF0FBECDBFDF91CF911F910F9123
:101B2000FF90EF90DF90CF90BF90AF900895B601F7
:101B30000E94700BEBCFEF92FF920F931F93CF9306
:101B4000DF93CDB7DEB764970FB6F894DEBF0FBE54
:101B5000CDBFF12CE12C00E09E012F5F3F4F40E014
:101B600070E060E08091A9049091AA040E94B608F8
:101B700087E591E00E94D40C8E010F5F1F4F7E011C
:101B800081E1E80EF11CF8016191719181919191CF
:101B90008F010E94A80C85E591E00E94D40C0E15DF
:101BA0001F0589F78AE491E00E94D40C64960FB671
:101BB000F894DEBF0FBECDBFDF91CF911F910F9183
:101BC000FF90EF9008958FE591E00E94D40CE09192
:101BD000A704F091A804608170E090E080E04AE002
:101BE0000E94640C8AE491E00C94D40C8EE691E09F
:101BF0000E94D40CE091A904F091AA04648170E0E1
:101C000090E080E04AE00E94640C8AE491E00C9449
:101C1000D40C8BE791E00E94D40CE091A904F091E0
:101C2000AA04658170E090E080E04AE00E94640CC4
:101C30008AE491E00C94D40C85E891E00E94D40CE5
:101C4000E091A504F091A604648170E090E080E04A
:101C50000E94A80C8AE491E00C94D40C81E991E0F4
:101C60000E94D40CE091A504F091A604658170E077
:101C700090E080E04AE00E94640C8AE491E00C94D9
:101C8000D40C8091A5049091A6040E949C078DE934
:101C900091E00E94D40C8AE491E00C94D40C4F9211
:101CA0005F926F927F928F929F92AF92BF92CF92EC
:101CB000DF92EF92FF920F931F93CF936B017C0102
:101CC000742EAC019B010E942521882399F086EA9D
:101CD00091E0CF911F910F91FF90EF90DF90CF9007
:101CE000BF90AF909F908F907F906F905F904F903C
:101CF0000C94570C46015701E894B7F82FEF3FEFCB
:101D00004FE75FE7C501B4010E94252181110DC095
:101D10002FEF3FEF4FE75FE7C501B4010E94361E8A
:101D200018161CF48AEA91E0D4CF2FEF3FEF4FE76B
:101D30005FE4C701B6010E94202118161CF48EEA48
:101D400091E0C7CF2FEF3FEF4FE75FECC701B60140
:101D50000E94361E87FDF3CF20E030E0A901C701C5
:101D6000B6010E94361E10E000E087FF0AC06DE257
:101D70008AED93E00E94C0048C01F7FAF094F7F822
:101D8000F094C0E060E070E080E09FE37C1641F0FA
:101D900020E030E040E251E40E947820CF5FF6CFAF
:101DA000A70196010E940C202B013C010E94F1200A
:101DB0004B015C014AE00E94640C7C01E00EF11EC4
:101DC000CC23C1F1C501B4010E943B1E9B01AC01B3
:101DD000C301B2010E940B204B015C016EE28AED4F
:101DE00093E00E94C004E80EF91EC15018F120E0F3
:101DF00030E040E251E4C501B4010E949C1E2B0179
:101E00003C010E94F1204B01B12CA12C4AE0C501FC
:101E1000B4010E94640CE80EF91EC501B4010E94D1
:101E20003B1E9B01AC01C301B2010E940B204B0180
:101E30005C01DBCFC701CF911F910F91FF90EF9015
:101E4000DF90CF90BF90AF909F908F907F906F90DA
:101E50005F904F900895CF92DF92EF92FF920F9391
:101E6000CF93DF9300D000D0CDB7DEB719821A82AE
:101E70001B821C82F12CE12C01E030E020E040E0EC
:101E8000BE016F5F7F4F8091A9049091AA040E94C8
:101E9000B6086B017C018DE491E00E94D40C69814D
:101EA0007A818B819C8146E00E944F0E8AE491E00A
:101EB0000E94D40CB701A60149515C4F6F4F7F4F70
:101EC0008091A7049091A804473F5A42610571058B
:101ED00070F00E94B2060F900F900F900F90DF915C
:101EE000CF910F91FF90EF90DF90CF900895B601C2
:101EF0000E94700BF0CFEF92FF920F931F93CF933E
:101F0000DF93CDB7DEB760970FB6F894DEBF0FBE94
:101F1000CDBFE091A904F091AA0486819781A085A4
:101F2000B18589839A83AB83BC8382859385A4859D
:101F3000B5858D839E83AF83B88786859785A08975
:101F4000B18989879A87AB87BC8782899389A4895D
:101F5000B5898D879E87AF87B88B82EB91E00E9411
:101F6000D40C8E010F5F1F4F7E0181E1E80EF11C42
:101F7000F80161917191819191918F0146E00E94E8
:101F80004F0E85E591E00E94D40C0E151F0581F7D8
:101F90008AE491E060960FB6F894DEBF0FBECDBF25
:101FA000DF91CF911F910F91FF90EF900C94D40C83
:101FB0008F929F92AF92BF92CF92DF92EF92FF9259
:101FC000E091A904F091AA0486889788A08CB18C2E
:101FD000C28CD38CE48CF58C8EEB91E00E94D40CF7
:101FE00046E0C501B4010E944F0E85E591E00E94D4
:101FF000D40C46E0C701B6010E944F0E85E591E082
:102000000E94D40C8AE491E0FF90EF90DF90CF9093
:10201000BF90AF909F908F900C94D40C41EA54E005
:102020006CE774E090E080E00C949C1CCF93DF930D
:10203000CDB7DEB728970FB6F894DEBF0FBECDBF81
:102040000E940E100E94711C69837A838B839C838B
:102050000E94330681110CC00E940E100E94711C58
:102060006D837E838F8398870E943306882389F04F
:1020700086EC91E00E94D40C8AE491E00E94D40C9A
:1020800028960FB6F894DEBF0FBECDBFDF91CF917B
:102090000895BE016F5F7F4F8091A5049091A604C3
:1020A0000E94400783ED91E0E5CFCF92DF92EF925F
:1020B000FF920F931F93CF93DF93CDB7DEB7609757
:1020C0000FB6F894DEBF0FBECDBF8E010F5F1F4F5E
:1020D0006E0181E1C80ED11C78010E940E100E9491
:1020E000711CF80161937193819391938F010E9408
:1020F00033068823B9F08AED91E00E94D40C8AE47B
:1021000091E00E94D40C60960FB6F894DEBF0FBE2B
:10211000CDBFDF91CF911F910F91FF90EF90DF9096
:10212000CF9008950C151D05C1F6B7018091A50447
:102130009091A6040E94F0068BEE91E0DECFCF9244
:10214000DF92EF92FF920E940E104AE050E070E0A2
:1021500060E00E945A1B6B017C010E943D1E0E94A0
:102160003306882361F086EF91E00E94D40C8AE464
:1021700091E0FF90EF90DF90CF900C94D40C80E131
:10218000C816D104E104F10470F76C2D8091A50408
:102190009091A6040E94D0068AE092E0E6CFCF920A
:1021A000DF92EF92FF920E940E104AE050E070E042
:1021B00060E00E945A1B6B017C010E943D1E0E9440
:1021C0003306882361F088E192E00E94D40C8AE40F
:1021D00091E0FF90EF90DF90CF900C94D40CD7015A
:1021E000C6010197A109B10984369105A105B10580
:1021F00050F76C2D8091A5049091A6040E94E206F0
:102200008AE292E0E2CFCF92DF92EF92FF920E94B9
:102210000E104AE050E070E060E00E945A1B6B0133
:102220007C010E943D1E0E943306882361F086E3F4
:1022300092E00E94D40C8AE491E0FF90EF90DF904E
:10224000CF900C94D40CD701C6010197A109B10914
:102250000F97A105B10558F76C2D8091A5049091B9
:10226000A6040E94C50685E492E0E3CFCF92DF92F8
:10227000EF92FF920E940E104AE050E070E060E0A2
:102280000E945A1B6B017C010E943D1E0E94330676
:10229000882361F08EE492E00E94D40C8AE491E0FD
:1022A000FF90EF90DF90CF900C94D40C8FEFC81676
:1022B000D104E104F10409F068F7E091A504F0917C
:1022C000A604C5826C2D8FE00E940D018FE592E07F
:1022D000E3CFCF93DF930E940E100E94751CEC0198
:1022E0000E940E10892BA9F4C230D10590F46C2FF6
:1022F00061708091A5049091A6040E94C0068AE6B0
:1023000092E00E94D40C8AE491E0DF91CF910C948A
:10231000D40C85E792E0F5CFAF92BF92CF92DF92D7
:10232000EF92FF920F931F93CF93DF938AED93E089
:102330000E947F04181619060CF05DC08AED93E028
:102340000E945D04C82F80917E04C81338C041EA02
:1023500054E06CE774E08FE794E00E949C1C8C01D1
:10236000892BD9F0C0907904D12CC0917704D091F9
:102370007804F12CE12CEC14FD04C4F45E0148E077
:1023800050E0BE01C8010E9400222B96892B51F417
:10239000D5011996ED91FC91099510927F04109248
:1023A000A004C4CFBFEFEB1AFB0AE5CFE0917A049B
:1023B000F0917B04309789F3C8010995EECF8C2FFB
:1023C0000C2E000C990B0E94E921892B09F4AECF49
:1023D000E091A004E03208F0A9CF81E08E0F809355
:1023E000A004F0E0E958FB4FC087E82FF0E0E9587F
:1023F000FB4F10869BCF80E0DF91CF911F910F9113
:10240000FF90EF90DF90CF90BF90AF9008951F9214
:102410000F920FB60F9211242F933F934F935F9318
:102420006F937F938F939F93AF93BF93EF93FF939C
:102430008091B900887F803609F44AC0F0F588326F
:1024400009F4A5C018F5803109F499C0B8F48823BF
:1024500009F4F0C0883009F492C0FF91EF91BF9168
:10246000AF919F918F917F916F915F914F913F912C
:102470002F910F900FBE0F901F901895883109F47F
:1024800086C0803251F78093A70314C0803409F4CA
:102490009BC040F48033B9F38833F9F68093A703E7
:1024A00085ECAEC0803509F483C0883509F494C04A
:1024B000883499F60E94A601D0CF883909F48AC0E1
:1024C00038F5883729F050F4883611F0803729F62E
:1024D00083E08093A90310926D0355C0883809F4F6
:1024E00079C0803919F0803809F0B7CF80916D0339
:1024F000803208F06FC0E0916D0381E08E0F809311
:102500006D038091BB00F0E0E35BFC4F80833BC038
:10251000803B39F0D0F4803A09F477C0883A09F06A
:102520009CCF84E08093A90310924C0310924B033C
:10253000F0E0E0E0099580914B0381110FC081E04C
:1025400080934B0310922B0309C0803C09F4A8CF61
:10255000883C09F4A5CF883B09F07FCFE0914C037C
:1025600081E08E0F80934C03F0E0E55DFC4F8081AD
:102570008093BB0090914C0380914B0329C08091C4
:1025800084038093BB0085EC8093BC0066CF909160
:10259000A6038091A503981758F5E091A60381E062
:1025A0008E0F8093A603F0E0EB57FC4F8081E9CFBC
:1025B000E091A60381E08E0F8093A6038091BB007B
:1025C000F0E0EB57FC4F80839091A6038091A50328
:1025D0009817C8F285E8D8CFE091A60381E08E0F66
:1025E0008093A6038091BB00F0E0EB57FC4F808303
:1025F0008091A80381115ECF81E08093830384EAF8
:102600008093BC001092A90328CF80916D03803283
:1026100030F4E0916D03F0E0E35BFC4F10826091D9
:102620006D0370E08DE493E0F0E0E0E00995109236
:102630006D0336CF1092A7033DCF1F920F920FB6B6
:102640000F9211240F931F932F933F934F935F93F8
:102650006F937F938F939F93AF93BF932091840049
:1026600030918500B09B0BC081E086BB8091270331
:1026700090912803019690932803809327038091DB
:102680002503909126030196409123035091240342
:102690008417950708F445C010922603109225036D
:1026A0008091270390912803B0E0A0E0DC019927F6
:1026B0008827820F931FA11DB11D40911F035091C8
:1026C000200360912103709122038C019D01041B62
:1026D000150B260B370BB901A80140931B03509330
:1026E0001C0360931D0370931E0380931F0390933C
:1026F0002003A0932103B093220381E080931A0367
:10270000BF91AF919F918F917F916F915F914F9109
:102710003F912F911F910F910F900FBE0F901F901F
:1027200018959093260380932503EACF1F920F926A
:102730000FB60F9211242F933F938F939F93AF93D4
:10274000BF938091120390911303A0911403B09151
:1027500015033091110323E0230F2D3758F501960F
:10276000A11DB11D209311038093120390931303B5
:10277000A0931403B093150380911603909117034F
:10278000A0911803B09119030196A11DB11D80936A
:10279000160390931703A0931803B0931903BF91E6
:1027A000AF919F918F913F912F910F900FBE0F90FE
:1027B0001F90189526E8230F0296A11DB11DD2CFB8
:1027C0001F920F920FB60F9211242F933F934F93A6
:1027D0005F936F937F938F939F93AF93BF93EF9389
:1027E000FF938AED93E00E949F04FF91EF91BF91C8
:1027F000AF919F918F917F916F915F914F913F9199
:102800002F910F900FBE0F901F9018951F920F924F
:102810000FB60F9211242F938F939F93EF93FF93F3
:10282000E091EA03F091EB038081E091F003F091F5
:10283000F10382FD1BC090818091F3038F5F8F7342
:102840002091F403821741F0E091F303F0E0E652A7
:10285000FC4F958F8093F303FF91EF919F918F91A0
:102860002F910F900FBE0F901F9018958081F4CF7D
:102870001F920F920FB60F9211240F900FBE0F9060
:102880001F901895CF93DF93EEECF3E01382128242
:1028900088EE93E0A0E0B0E084839583A683B783BD
:1028A00022E231E03183208320E826BF2CE426BFDA
:1028B000EAEDF3E01382128284839583A683B783C3
:1028C00084E391E09183808385EC90E09587848711
:1028D00084EC90E09787868780EC90E0918B808BEA
:1028E00081EC90E0938B828B82EC90E0958B848BD3
:1028F00086EC90E0978B868B118E128E138E148E41
:10290000C7E7D4E0198218821A821C821B828AE0EF
:102910008F831BA61AA665E571E08CE794E00E9400
:10292000F921188619A6E3EBF4E082E0808383E0C6
:10293000818396E0928397E0938384838FE08583FD
:1029400081ED94E09093AC048093AB0445E555E1B0
:1029500064EF7FE3468B578B608F718F4EEA5DE9A2
:1029600064E47FEB428F538F648F758F16821782DA
:1029700010861186128613861486158643EA5BE854
:102980006CEC72E446875787608B718B4AEB58E694
:1029900060E073EC428B538B648B758BADEAB4E0D3
:1029A0001196FC93EE9313969C938E93129721E0CD
:1029B00014962C931497F093AA04E093A90490938F
:1029C000A8048093A704B093A604A093A50486E866
:1029D00092E09093A4048093A304DF91CF91089593
:1029E000CF93DF93CDB7DEB76C970FB6F894DEBF09
:1029F0000FBECDBF8091F20080618EBB80E88093D6
:102A0000F2009EB39093F2008093610091E0909366
:102A100061008093610090936100789484B5826036
:102A200084BD84B5816084BD85B5826085BD85B572
:102A3000816085BD80916E00816080936E001092F0
:102A4000810080918100826080938100809181006B
:102A500081608093810080918000816080938000FC
:102A60008091B10084608093B1008091B00081605A
:102A70008093B0008091910082608093910080915A
:102A8000910081608093910080919000816080939B
:102A9000900080917A00846080937A0080917A001F
:102AA000826080937A0080917A00816080937A00BE
:102AB00080917A00806880937A001092C10010E0C3
:102AC00060E0812F0E94EE0260E0812F0E948D0263
:102AD0001F5F1631A9F780917E008F6380937E007F
:102AE00080917A008F7780937A00E091EA03F091E9
:102AF000EB0382E08083E091EA03F091EB03108224
:102B0000E091E603F091E7031082E091E803F09191
:102B1000E90380E180831092F203E091EE03F091EB
:102B2000EF0386E08083E091EC03F091ED03808178
:102B300080618083E091EC03F091ED0380818860F7
:102B40008083E091EC03F091ED03808180688083C5
:102B5000E091EC03F091ED0380818F7D80836BED3C
:102B60007CE08CE892E00E941F0C69EF7CE08DE92C
:102B700092E00E941F0C6BE27FE084E992E00E94E9
:102B80001F0C64E37DE083E992E00E941F0C6BE977
:102B90007DE08BE992E00E941F0C66E170E183ED1D
:102BA00091E00E941F0C68ED7FE082EA92E00E94B3
:102BB0001F0C65E570E189EA92E00E941F0C6BE74B
:102BC0007FE082EB92E00E941F0C6FE970E18BEBDB
:102BD00092E00E941F0C63EE7DE084EC92E00E9484
:102BE0001F0C6FEC70E18DEC92E00E941F0C66EF01
:102BF0007DE086ED92E00E941F0C63E071E185E4C8
:102C000092E00E941F0C69E07EE08FED92E00E944E
:102C10001F0C69E671E188EE92E00E941F0C6CE1E6
:102C20007EE081EF92E00E941F0C66E371E18AEF83
:102C300092E00E941F0C6EE27EE083E093E00E942F
:102C40001F0C61E47EE08DE991E00E941F0C0E9460
:102C50008C1180E78093820310922A03109229033B
:102C60001092AB031092CD0380917E008F7C8093F5
:102C70007E001092A90311E01093A8031092830321
:102C800061E082E10E948D0261E083E10E948D0299
:102C90008091B9008E7F8093B9008091B9008D7FBB
:102CA0008093B90088E48093B80085E48093BC00E9
:102CB000809182031093AA038093CC031092AB03FC
:102CC0001092CD0381E290E00E944A020E94AF0080
:102CD0001093AA031092AB031092CD0381E890E009
:102CE0000E944A020E94AF001093AA031092AB0305
:102CF0001092CD038FEE90E00E944A020E94AF0036
:102D000081ED94E00E94A60661E08091B5040E94E6
:102D1000EE0261E08091B6040E94EE0261E08091D3
:102D2000B4040E94EE0261E08091B3040E94EE02BE
:102D300083EB94E00E94E0058AE00E9452018A320F
:102D400009F0C4C28BE00E94520162E0853608F4AB
:102D5000682F8DEA94E00E94E2068091AF04909182
:102D6000B004892B59F08CE00E9452016FE0803151
:102D700008F4682F8DEA94E00E94D0068DE00E944E
:102D800052019FEF980F6AE09F3008F4682F8DEA98
:102D900094E00E94C5068EE00E94520161E08F3FE0
:102DA00079F58DEA94E00E94C0068FE00E945201FE
:102DB0008F3F51F58AE08093B2046AE08FE00E9471
:102DC0000D019E012F5F3F4F7901690101E010E184
:102DD0003901E4E08E2E810EAE014B5E5F4F5A0149
:102DE0001815B1F099249394910E812F0E945201ED
:102DF000F50181935F018F3F09F000E0192DF0CFBD
:102E00008111CFCF60E0CDCF8093B204682FD6CFB1
:102E10008D889E88AF88B88CC501B4010E943306A6
:102E2000882371F185E595E1A4EFBFE389839A8357
:102E3000AB83BC838EEA9DE9A4E4BFEB8D839E83C4
:102E4000AF83B887B7018DEA94E00E94400701E0A4
:102E500018E174E0A72EA10E9E012B5E3F4F690181
:102E60001A15D1F0BB24B394B10E812F0E945201E8
:102E7000F60181936F018F3F09F000E01B2DF0CF29
:102E8000F60181929192A192B1926F01183109F0ED
:102E9000A0CF0111C7CFD6CF8D889E88AF88B88CC0
:102EA000C501B4010E943306882309F403C21982C4
:102EB0001A821B821C821D821E821F82188683EA50
:102EC0009BE8ACECB2E489879A87AB87BC878AEB36
:102ED00098E6A0E0B3EC8D879E87AF87B88BB301EF
:102EE0008DEA94E00E94F0060FE710E01093730360
:102EF0000093720310927503109274031092790379
:102F00001092780310927B0310927A030E944F0272
:102F10006AEF70E080E090E00E945F03109273031C
:102F20001092720310937503009374030E944F0272
:102F30006AEF70E080E090E00E945F0310927503FA
:102F40001092740310937903009378030E944F0248
:102F50006AEF70E080E090E00E945F0310927903D6
:102F60001092780310937B0300937A030E944F0220
:102F70006AEF70E080E090E00E945F0360E08DE027
:102F80000E948D0260E08DE00E94EE020E94F50535
:102F900081117FC28091B104882309F475C2109118
:102FA000B70484E68093B7048091AB049091AC049D
:102FB000009711F00E94A60661E08091B3040E9480
:102FC0008D0261E08091B4040E948D0261E070E0A6
:102FD00080E090E00E945F0360E08091B5040E9471
:102FE0008D0260E08091B6040E948D0283EB94E034
:102FF0000E9427054B015C0160E08091B5040E94AE
:103000008D0261E08091B6040E948D0283EB94E012
:103010000E9427056B017C0183EB94E00E94E00590
:103020001093B704F9E28F16FAE09F06A104B104E9
:103030000CF451C128E2821A2AE0920AA108B108D0
:1030400034E3831638E09306A104B1040CF01CC2EB
:1030500041E4C41646E0D406E104F1040CF448C18E
:1030600050E4C51A56E0D50AE108F1083CEDC31654
:1030700035E0D306E104F1040CF006C281ED94E0E2
:103080000E94A60639E3632E712C7092730360923E
:10309000720347E7842E912C9092750380927403FB
:1030A00058E3A52EB12CB0927903A092780366E084
:1030B000C62ED12CD0927B03C0927A030E944F027D
:1030C00064EF71E080E090E00E945F03F12CE12C5E
:1030D00001E09E012F5F3F4F40E070E060E083EB36
:1030E00094E00E94B6080E948C1181118BC07092EE
:1030F0007303609272039092750380927403B0928E
:103100007903A0927803D0927B03C0927A030E9445
:103110004F0264EF71E080E090E00E945F030E9444
:103120008C1181116FC06D817E818F8198850E9485
:103130003D1E4B015C016D857E858F8598890E94BF
:103140003D1E2B013C0120E030E842E255E4C50180
:10315000B4010E940B206B017C0120E030E0A9014A
:103160000E942021181624F0F7FAF094F7F8F09452
:1031700020E030E443E055E4C701B6010E94361E6A
:1031800087FF77C120E030E048EC54E4C301B2018E
:103190000E940B206B017C0120E030E0A9010E941D
:1031A0002021181624F0F7FAF094F7F8F09420E0B4
:1031B00030E84BEB54E4C701B6010E94361E87FF8E
:1031C00058C1A3019201C501B4010E9478204B01AE
:1031D0005C01C090B20448ECC49E600111240E94BE
:1031E000790226010D2C000C660877080E94F5056F
:1031F00081118BC0C301B2010E945F030E948C1138
:103200008823A1F319821A821B821C82812C912CA3
:10321000540122242394312C08E010E0C090B20421
:1032200054E6C59E600111240E948C11882321F070
:103230000E9412044B015C010E94F5050D2C000C4C
:10324000EE08FF08882309F40CC20E9412044B0107
:103250005C018EE390E09093730380937203E3E745
:10326000F0E0F0937503E0937403109279031092E9
:10327000780310927B0310927A030E944F02B501EB
:10328000A40181E00E94FE072B013C010E94F5058C
:10329000882309F403C1C701B6010E945F030E949D
:1032A0008C11882321F00E9412042B013C01B301F0
:1032B000A201E7CFF70181929192A192B1927F0191
:1032C000183209F0C6CD0111F2CD09CE8DEA94E095
:1032D0000E949C0709CE88E29AE0A0E0B0E09C0141
:1032E000AD01281939094A095B0949015A01A8CEDB
:1032F00080E496E0A0E0B0E09C01AD012C193D090E
:103300004E095F0969017A01B1CE8EE390E0909396
:1033100073038093720383E790E090937503809327
:103320007403109279031092780310927B03109229
:103330007A030E944F020D2C000CEE08FF080E9439
:10334000F505882349F0C701B6010E945F030E947A
:103350008C118823A1F356CF0E94790264EF71E0AB
:1033600080E090E00E945F03F12CE12C01E09E01DF
:103370002F5F3F4F40E070E060E083EB94E00E94FD
:10338000B6080E948C1181113DCF0E94790264EF32
:1033900071E080E090E00E945F030E948C11811137
:1033A00031CF6D817E818F8198850E943D1E6B019A
:1033B0007C016D857E858F8598890E943D1E9B01CD
:1033C000AC01C701B6010E947820A50194010E94BA
:1033D0000B209B01AC016DEC7CEC8CE090E40E9436
:1033E000782027E139ED4EE05FE30E949C1E9B01AF
:1033F000AC012D8B3E8B4F8B588FC501B4010E94C1
:103400009C1E9B01AC0160E070E080EC9FE30E9499
:103410000B20698F7A8F8B8F9C8F0E948C1181116A
:10342000F1CEBE016B5E7F4F8DEA94E00E944007B3
:103430006AE070E080E090E00E945F038EE590E03B
:1034400090937303809372038FE390E090937503DE
:103450008093740384E590E09093790380937803DC
:1034600089E790E090937B0380937A030E944F0258
:10347000C9CE81ED94E00E94820868EB7BE080E099
:1034800090E00E945F03BECE90E080E00E94D90BE6
:10349000B9CE81ED94E00E94A606B4CE68EE73E04A
:1034A00080E090E00E945F0392E0A92EB12C309260
:1034B0007303209272030E944F0269E270E080E081
:1034C00090E00E945F031092730310927203309297
:1034D0007503209274030E944F0269E270E080E05D
:1034E00090E00E945F031092750310927403309273
:1034F0007903209278030E944F0269E270E080E035
:1035000090E00E945F03109279031092780330924A
:103510007B0320927A030E944F0269E270E080E010
:1035200090E00E945F0322E030E030937B03209321
:103530007A030E944F0269E270E080E090E00E940E
:103540005F0344E050E050937B0340937A030E9472
:103550004F0269E270E080E090E00E945F03109308
:103560007B0300937A030E944F0269E270E080E0DF
:1035700090E00E945F0310927B0310927A031093F5
:103580007903009378030E944F0269E270E080E0C3
:1035900090E00E945F0310927903109278031093D9
:1035A0007503009374030E944F0269E270E080E0AB
:1035B00090E00E945F0310927503109274031093C1
:1035C0007303009372030E944F0269E270E080E08F
:1035D00090E00E945F0380E190E0909373038093FA
:1035E00072030E944F0269E270E080E090E00E9466
:1035F0005F03E0E2F0E0F0937303E09372030E9454
:103600004F0269E270E080E090E00E945F03AA94BC
:10361000AB2809F04BC081ED94E00E94A60664E659
:1036200070E080E090E00E945F030E941204641941
:10363000750986099709613A7F408105910520F057
:1036400019821A821B821C82CE0101960E94D90B1C
:103650000E941204AB01BC0180E00E94FE074B01F6
:103660005C01C701B6010E945F030E941204681941
:1036700079098A099B09613A7F408105910570F0BB
:1036800019821A821B821C82809172038F7790E0CC
:1036900090937303809372030E944F02B501A401BB
:1036A00080E00E94FE074B015C01B8CDAA24A394E0
:1036B000B12CFDCEB0E0A0E0E0E6FBE10C94981F59
:1036C0005C016B017A016115710519F0FB019183B1
:1036D0008083E114F10451F0C7010297839730F021
:1036E00040E030E020E090E072C05E01E50121960C
:1036F000F5011081812F90E00E94931C892BA9F77E
:103700001D3201F52196F501118101E0E114F1046A
:1037100009F4DAC0F0E1EF16F10409F082C01033C9
:1037200059F488818F7D883509F076C019812296F9
:103730000260F0E1EF2EF12C812C912CA12C88E07D
:10374000B82E8CC01B3221F4E5012296F5011181BF
:1037500000E0DCCFEAE0EE16F10409F4BBC0F0E1D2
:10376000EF16F10409F06DC0E7CF78E0E72EF12CF9
:10377000812C912CA12C60E1B62E70C03FE9310F55
:103780003A3128F439EA332E80C021E09AC0302F34
:103790003170C114D10431F0222309F12197F601CF
:1037A000D183C08327FF21C060E070E080E090E813
:1037B000311104C06FEF7FEF8FEF9FE722E230E01F
:1037C0003093D3042093D204462F372F282F642F11
:1037D000732F822FCDB7DEB7E1E10C94B41F01FF48
:1037E00004C02297F601D183C083332341F0909522
:1037F0008095709561957F4F8F4F9F4FE5CF97FFD5
:10380000E3CF82E290E09093D3048093D2046FEFF1
:103810007FEF8FEF9FE7D8CF10E3E114F10409F4B5
:10382000A4CF28E0E216F10409F4A2CF0CF092CF65
:10383000812C912CA12CE0E4BE2E82E0E816F1044C
:1038400069F060E070E080E090E897010F2C000CD8
:10385000440B550B0E946A1F49015A0120E060E0A9
:1038600070E0CB0127010F2C000C66087708FE01E1
:1038700050ED352E310E39E0331540F43FEB310F6A
:103880003A3108F07BCF49EC342E310E3E141F0440
:103890000CF07DCF27FD15C086169706A806B90641
:1038A00078F0A30192010E945A1F630D711D811DC2
:1038B000911D61307105810520E8920708F465CFFC
:1038C0002FEF21961081D3CF103309F42ACF2AE0AD
:1038D000E22EF12C9CEC892E982CA82C9CE0B92E81
:1038E000BDCF662777270C94CB1CFC01882799272E
:1038F000E89421912032E9F3293010F02E30C8F3FA
:103900002B3241F02D3239F4689404C00E94C31C5C
:10391000820F911D219120532A30C0F31EF49095FF
:1039200081959F4F089591110C941B1E803219F0C0
:1039300089508550C8F70895FA01A191B081009788
:1039400019F41097E1F0CD01DC01CD010D900020BC
:1039500011F4C00113C0FB012191222319F020159D
:10396000D9F7F3CFFB012191201519F41E9211967E
:1039700006C02223C1F70D900020A1F7D001FA0163
:10398000A193B08308957AE0979F902D879F802D13
:10399000910D11240895B0E0A0E0E1EDFCE10C945C
:1039A0009D1F5C017B016115710519F0DB018D9391
:1039B0009C9385010F5F1F4FF501D0818D2F90E003
:1039C0000E94931C6C01892BB9F5DD32B9F50F5FAC
:1039D0001F4FD5011196DC91C1E05801F1E0AF1AFB
:1039E000B10843E050E060E770E0C5010E941E1E90
:1039F000892B69F5680182E0C80ED11C45E050E0D2
:103A00006BE670E0C6010E941E1E892B21F468013E
:103A100097E0C90ED11CE114F10419F0D701CD9241
:103A2000DC9260E070E080E89FEFC111FFC060E0D1
:103A300070E080E89FE7FAC05801BBCFDB3229F481
:103A400085010E5F1F4FF501D181C0E0C6CF43E075
:103A500050E068E670E0C5010E941E1E892BE9F067
:103A6000F80110E000E020E030E0A9015F01B0EDD6
:103A70008B2E8D0E89E08815C8F19C2E689491F8E4
:103A80008C2F8870C2FF16C0811102C00F5F1F4FBC
:103A90003196D501DC91C92DE9CFE114F10429F06B
:103AA0000E5F1F4FF7011183008360E070E080EC30
:103AB0009FE7BCC0882311F001501109A5E0B0E0D8
:103AC0000E948C1F9B01AC01220F331F441F551F06
:103AD000280D311D411D511D283999E93907490724
:103AE00099E15907A8F2C6609C2ED2CFAEEF8A1298
:103AF00006C0C3FD3CC09C2E689493F8C9CFDF7DFF
:103B0000D534A9F580818D3239F4C061DF01129678
:103B1000818162E070E006C0DF018B32C1F3119653
:103B200061E070E080535D01A61AB70A8A30F8F4AC
:103B3000E0E8CE16ECE0DE065CF4B601660F771F17
:103B4000660F771FC60ED71ECC0CDD1CC80ED11C0D
:103B50005D01FFEFAF1ABF0A8C9180538A30A8F144
:103B6000C4FF03C0D194C194D1080C0D1D1DC1FF29
:103B700009C0E114F10431F081E0A81AB108D701BD
:103B8000AD92BC92CA01B9010E943B1EC370C33002
:103B900009F490584B015C0120E030E0A9010E943B
:103BA000361E882309F440C0CFE9D0E017FF05C0D6
:103BB000119501951109C7E8D0E06E01B8E1CB1A63
:103BC000D10880E2E82EF12C0FC0D501B1CFFE0163
:103BD00025913591459154910E191F09C501B401E4
:103BE0000E949C1E4B015C01D501C4010E151F05EE
:103BF00074F72497F594E794CC16DD06A9F78A2F7D
:103C0000880F8B2F881F8F3F49F020E030E0A901FB
:103C1000C501B4010E94361E811106C082E290E007
:103C20009093D3048093D204C501B401CDB7DEB71D
:103C3000ECE00C94B91F992788270895FB01DC015B
:103C40004150504088F08D9181341CF08B350CF43C
:103C5000805E659161341CF06B350CF4605E861BF0
:103C6000611171F3990B0895881BFCCF0E94781E97
:103C700008F481E00895E89409C097FB3EF490951C
:103C80008095709561957F4F8F4F9F4F9923A9F035
:103C9000F92F96E9BB279395F695879577956795C4
:103CA000B795F111F8CFFAF4BB0F11F460FF1BC008
:103CB0006F5F7F4F8F4F9F4F16C0882311F096E99B
:103CC00011C0772321F09EE8872F762F05C0662349
:103CD00071F096E8862F70E060E02AF09A95660F02
:103CE000771F881FDAF7880F9695879597F90895BB
:103CF000990F0008550FAA0BE0E8FEEF16161706FD
:103D0000E807F907C0F012161306E407F50798F064
:103D1000621B730B840B950B39F40A2661F0232B7D
:103D2000242B252B21F408950A2609F4A140A695F9
:103D30008FEF811D811D08950E94AF1E0C94201FDE
:103D40000E94121F38F00E94191F20F0952311F0D5
:103D50000C94091F0C940F1F11240C94541F0E94E3
:103D6000311F70F3959FC1F3950F50E0551F629F6F
:103D7000F001729FBB27F00DB11D639FAA27F00DC4
:103D8000B11DAA1F649F6627B00DA11D661F829FEB
:103D90002227B00DA11D621F739FB00DA11D621FD0
:103DA000839FA00D611D221F749F3327A00D611DED
:103DB000231F849F600D211D822F762F6A2F1124CF
:103DC0009F5750409AF0F1F088234AF0EE0FFF1F02
:103DD000BB1F661F771F881F91505040A9F79E3F59
:103DE000510580F00C94091F0C94541F5F3FE4F3BD
:103DF000983ED4F3869577956795B795F795E795AF
:103E00009F5FC1F7FE2B880F911D9695879597F9B7
:103E1000089597F99F6780E870E060E008959FEF4C
:103E200080EC089500240A94161617061806090651
:103E3000089500240A941216130614060506089520
:103E4000092E0394000C11F4882352F0BB0F40F4A8
:103E5000BF2B11F460FF04C06F5F7F4F8F4F9F4FE8
:103E6000089557FD9058440F551F59F05F3F71F06A
:103E70004795880F97FB991F61F09F3F79F08795D1
:103E80000895121613061406551FF2CF4695F1DF5A
:103E900008C0161617061806991FF1CF86957105EA
:103EA000610508940895E894BB2766277727CB011E
:103EB00097F90895DB018F939F930E948C1FBF9108
:103EC000AF91A29F800D911DA39F900DB29F900D69
:103ED00011240895A1E21A2EAA1BBB1BFD010DC0DF
:103EE000AA1FBB1FEE1FFF1FA217B307E407F507AA
:103EF00020F0A21BB30BE40BF50B661F771F881F86
:103F0000991F1A9469F760957095809590959B011B
:103F1000AC01BD01CF0108950E94CE1FA59F900D59
:103F2000B49F900DA49F800D911D112408952F9290
:103F30003F924F925F926F927F928F929F92AF9239
:103F4000BF92CF92DF92EF92FF920F931F93CF9386
:103F5000DF93CDB7DEB7CA1BDB0B0FB6F894DEBF1D
:103F60000FBECDBF09942A88398848885F846E8443
:103F70007D848C849B84AA84B984C884DF80EE808D
:103F8000FD800C811B81AA81B981CE0FD11D0FB696
:103F9000F894DEBF0FBECDBFED010895A29FB00122
:103FA000B39FC001A39F700D811D1124911DB29F6D
:103FB000700D811D1124911D089597FB072E16F495
:103FC000009407D077FD09D00E94F71F07FC05D0A9
:103FD0003EF4909581959F4F0895709561957F4F20
:103FE0000895EE0FFF1F0590F491E02D0994AA1B90
:103FF000BB1B51E107C0AA1FBB1FA617B70710F0D4
:10400000A61BB70B881F991F5A95A9F78095909505
:10401000BC01CD0108955058BB27AA270E94232038
:104020000C94201F0E94121F38F00E94191F20F0CC
:1040300039F49F3F19F426F40C940F1F0EF4E09509
:10404000E7FB0C94091FE92F0E94311F58F3BA17A0
:10405000620773078407950720F079F4A6F50C949E
:10406000531F0EF4E0950B2EBA2FA02D0B01B901B2
:1040700090010C01CA01A0011124FF27591B99F0DE
:10408000593F50F4503E68F11A16F040A22F232FEA
:10409000342F4427585FF3CF469537952795A7953A
:1040A000F0405395C9F77EF41F16BA0B620B730BE1
:1040B000840BBAF09150A1F0FF0FBB1F661F771F52
:1040C000881FC2F70EC0BA0F621F731F841F48F407
:1040D000879577956795B795F7959E3F08F0B0CF90
:1040E0009395880F08F09927EE0F97958795089577
:1040F0000E948C200C94201F0E94191F58F00E94CF
:10410000121F40F029F45F3F29F00C94091F511150
:104110000C94541F0C940F1F0E94311F68F39923B5
:10412000B1F3552391F3951B550BBB27AA276217B3
:104130007307840738F09F5F5F4F220F331F441FC0
:10414000AA1FA9F335D00E2E3AF0E0E832D09150F4
:104150005040E695001CCAF72BD0FE2F29D0660FE1
:10416000771F881FBB1F261737074807AB07B0E824
:1041700009F0BB0B802DBF01FF2793585F4F3AF02A
:104180009E3F510578F00C94091F0C94541F5F3F1B
:10419000E4F3983ED4F3869577956795B795F795B0
:1041A0009F5FC9F7880F911D9695879597F9089598
:1041B000E1E0660F771F881FBB1F62177307840734
:1041C000BA0720F0621B730B840BBA0BEE1F88F743
:1041D000E09508950E94F1206894B1110C94541F49
:1041E00008950E94391F88F09F5798F0B92F99279A
:1041F000B751B0F0E1F0660F771F881F991F1AF0D2
:10420000BA95C9F714C0B13091F00E94531FB1E0C4
:1042100008950C94531F672F782F8827B85F39F0C3
:10422000B93FCCF3869577956795B395D9F73EF46A
:1042300090958095709561957F4F8F4F9F4F089512
:104240000E94781E08F48FEF08950E94781E880B54
:10425000990B0895B0E0A0E0E0E3F1E20C94991F1F
:104260008C01009751F4CB010E941D228C01C801E2
:10427000CDB7DEB7E0E10C94B51FFC01E60FF71FE8
:104280009C0122503109E217F30708F49DC0D901BF
:10429000CD91DC911197C617D70798F0C530D1059D
:1042A00030F3CE0104978617970708F3C61BD70B88
:1042B0002297C193D1936D937C93CF010E94B92231
:1042C000D6CF5B01AC1ABD0A4C018C0E9D1EA0918D
:1042D000D604B091D704512C412CF12CE12C10972D
:1042E00031F58091D4049091D5048815990509F091
:1042F0005CC04616570608F058C0809101019091A5
:104300000201009741F48DB79EB74091050150918D
:104310000601841B950BE817F90708F055C0F093C8
:10432000D504E093D404F90171836083A0CF8D910B
:104330009C91119712966C90129713967C901397FC
:10434000A815B90559F56C0142E0C40ED11CCA1478
:10435000DB0420F1AC014A195B09DA0112961597CA
:1043600080F06282738251834083D9016D937C9384
:10437000E114F10471F0D7011396FC93EE931297B8
:1043800076CF22968C0F9D1FF90191838083F301D4
:10439000EFCFF093D704E093D60469CF48165906BF
:1043A00008F42C017D01D3019ACFCB010E941D227C
:1043B0007C01009749F0AE01B8010E94F021C801CC
:1043C0000E94B922870153CF10E000E050CF803225
:1043D00009F091110C941B1E80528F55D8F7089547
:1043E000FB01DC0102C001900D9241505040D8F712
:1043F0000895FB01DC0101900D920020E1F7089582
:10440000FB01DC014150504030F08D91019080194A
:1044100019F40020B9F7881B990B0895FB01DC0102
:104420004150504048F001900D920020C9F701C062
:104430001D9241505040E0F708950F931F93CF9382
:10444000DF938230910510F482E090E0E091D60491
:10445000F091D70430E020E0B0E0A0E0309799F48C
:104460002115310509F44AC0281B390B24303105C8
:10447000D8F58A819B816115710589F1FB019383D0
:104480008283FE0111C0408151810281138148174E
:104490005907E0F04817590799F4109761F0129600
:1044A0000C93129713961C933296CF01DF91CF9104
:1044B0001F910F9108950093D6041093D704F4CF61
:1044C0002115310551F04217530738F0A901DB01DE
:1044D0009A01BD01DF01F801C1CFEF01F9CF90933F
:1044E000D7048093D604CDCFFE01E20FF31F819352
:1044F00091932250310939832883D7CF2091D40456
:104500003091D504232B41F4209103013091040113
:104510003093D5042093D4042091010130910201FD
:104520002115310541F42DB73EB740910501509159
:104530000601241B350BE091D404F091D504E21759
:10454000F307A0F42E1B3F0B2817390778F0AC01B6
:104550004E5F5F4F2417350748F04E0F5F1F509393
:10456000D5044093D404819391939FCFF0E0E0E091
:104570009CCFCF93DF930097E9F0FC013297138231
:104580001282A091D604B091D704ED0130E020E072
:104590001097A1F420813181820F931F2091D404C0
:1045A0003091D5042817390709F061C0F093D5047C
:1045B000E093D404DF91CF910895EA01CE17DF078D
:1045C000E8F54A815B819E0141155105B1F7E9018A
:1045D000FB83EA8349915991C40FD51FEC17FD075E
:1045E00061F4808191810296840F951FE90199837E
:1045F0008883828193819B838A83F0E0E0E0129636
:104600008D919C9113970097B9F52D913C9111973D
:10461000CD010296820F931F2091D4043091D504CE
:104620002817390739F6309751F51092D7041092B0
:10463000D604B093D504A093D404BCCFD383C28353
:1046400040815181840F951FC817D90761F44E5FCF
:104650005F4F88819981480F591F518340838A8118
:104660009B81938382832115310509F0B0CFF093AC
:10467000D704E093D6049ECFFD01DC01C0CF1382A6
:084680001282D7CFF894FFCF9E
:10468800FF0000D80480003F065B4F666D7D077F02
:104698006F777C395E7971100804402001020000B0
:1046A80000001B02EE014B04C901E701D801CA0151
:1046B80000000000C0041E044E0407057F045D04CA
:1046C8007104544F4E494E4F3A000A0049495F530E
:1046D80043414E3A002000445F5343414E3A00475D
:1046E80045544252494748544E4553533A0047456A
:1046F8005453414D504C494E473A00474554434D59
:104708004F44453A0047455443414C494E49543A71
:10471800004745544C5444454C41593A005245537E
:104728004554444546006E616E00696E66006F76BA
:1047380066004745545343414C494E473A00474564
:104748005443414C3A0053455443414C204552523E
:104758004F520053455443414C0053455453434131
:104768004C494E47204552524F52005345545343EB
:10477800414C494E47005345544252494748544ECC
:10478800455353204552524F5200534554425249C3
:104798004748544E4553530053455453414D504C8C
:1047A800494E47204552524F520053455453414DAC
:1047B800504C494E4700534554434D4F44452045BE
:1047C80052524F5200534554434D4F4445005345B0
:1047D800544C5444454C4159204552524F52005371
:1047E80045544C5444454C41590053455443414C5D
:1047F800494E49540053455443414C494E4954206D
:104808004552524F5200312031203800544F4E4902
:104818004E4F0049495F5343414E00445F53434163
:104828004E0047455443414C005345545343414C73
:1048380049004745545343414C490053455442525B
:104848004947480047455442524947480053455450
:1048580053414D504C0047455453414D504C00472F
:104868004554434D4F44450053455443414C494EEC
:104878000047455443414C494E005345544C544419
:0C488800454C004745544C5444454C003E
:00000001FF
