:100000000C9485000C94AD000C94AD000C94AD00E4
:100010000C94AD000C94AD000C94CD130C94B21262
:100020000C94AD000C94AD000C94AD000C94AD009C
:100030000C94AD000C94AD000C94AD000C94AD008C
:100040000C942B130C94AD000C949B130C9475130F
:100050000C94AD000C94AD000C94AD000C94AD006C
:100060000C949C110C94AD004E414E494E4954598C
:10007000494E46CDCCCC3D0AD7233C17B7D1387773
:10008000CC2B329595E6241FB14F0A000020410089
:1000900000C84200401C4620BCBE4CCA1B0E5AAED3
:1000A000C59D7400000000240027002A002D0000D8
:1000B000000000250028002B002E00040404040486
:1000C0000404040202020202020303030303030501
:1000D0000505050505050102040810204080010200
:1000E0000408102001020408102002080104102056
:1000F0004000000008500201000003040700000057
:100100000000000000000000E41311241FBECFEF28
:10011000D8E0DEBFCDBF24E0ACE0B3E001C01D926B
:10012000A53DB207E1F713E0A0E0B1E0EEECF5E4A5
:1001300002C005900D92AC30B107D9F710E0C5E8C8
:10014000D0E004C02197FE010E94941FC438D1075B
:10015000C9F70E9492140C94E5220C94000020919F
:10016000CA0381E0213208F040C08091A6038111CA
:10017000FCCF8091C90392E09093A60391E0909305
:10018000A5039FEF9093A4031092A3032093A203CF
:10019000A9EAB3E0E2E8F3E090E029132DC0109261
:1001A000810390918103880F892B80938103809133
:1001B0008003813031F41092800380918103809319
:1001C000BB0085EE8093BC008091A6038230E1F3F2
:1001D0008091A4038F3FA1F08091A403803291F01D
:1001E0008091A403803381F084E01092A8031092E0
:1001F000CA031092A70308953D9131939F5FCDCF1D
:1002000080E0F3CF82E0F1CF83E0EFCF81BD12BC7D
:10021000F89A0000000080B50895DF92EF92FF92F7
:100220000F931F93CF93DF93C82FD62F0AE010E0D0
:100230002AE2F22E34E0E32E42E0D42EC8010E94DE
:1002400006018A3241F08FB701BD12BCF0BCF894B0
:10025000EFBADFBA8FBF025E1F4F0436110571F788
:100260000AE50C0F10E084E0F82E92E0E92E8C2FC6
:1002700090E00E9406018D1749F08FB7C1BD12BCF6
:10028000D0BDF894FFBAEFBA8FBF11E0C25E0C1375
:10029000EECF812FDF91CF911F910F91FF90EF90C3
:1002A000DF900895CF92DF92FF920F931F93CF9329
:1002B000DF9300D01F92CDB7DEB7182F90E00E94D9
:1002C0000601082F89838EE1810F90E00E940601CC
:1002D000F82E8A838CE3810F90E00E9406018B83C5
:1002E000DE01119640E050E020E0BD013D91222367
:1002F00039F06B01C50ED11CF6019081931769F09E
:1003000091E0301390E03F1101C09F5F831301C063
:100310009F5F491710F4522F492F2F5F233031F779
:10032000FB01E50FF11D0081433021F0602F812F8B
:100330000E940D01802F0F900F900F90DF91CF91B1
:100340001F910F91FF90DF90CF90089585ED8093DE
:10035000BC008091BC0084FDFCCF1092A6030895E0
:10036000613298F42091A603243089F460934C0301
:10037000282FACE2B3E0FC018E2F821B861710F011
:1003800080E0089581918D93F7CF81E0089582E018
:100390000895089581E090E030912B0320912A0385
:1003A000321710F490E080E09195819591090895BD
:1003B00080912B0390912A03891730F48F5F8093EB
:1003C0002B0390E080E008958FEF9FEF08958091D8
:1003D0002A0390912B03891B990B0895CF92DF92EA
:1003E000EF92FF920F931F93CF93DF937C01CB018A
:1003F0008A012091A703222389F0EB016B01C40E2F
:10040000D51ECC15DD0569F06991D701ED91FC9100
:100410000190F081E02DC7010995F3CF642F0E9470
:10042000B001C801DF91CF911F910F91FF90EF9024
:10043000DF90CF900895CF93DF931F92CDB7DEB7B3
:1004400069832091A7032223F9F02091CA03203267
:1004500058F021E030E0FC013383228390E080E01B
:100460000F90DF91CF9108958091A803E82FF0E0DD
:10047000E755FC4F998190838F5F8093A803809309
:10048000CA0381E090E0ECCF61E0CE0101960E94CA
:10049000B001F7CF682F8BEC93E00C941B021F93F5
:1004A000CF93DF9380917F0391E09093A703809394
:1004B000C9031092A8031092CA0360E08BEC93E08A
:1004C0000E941B02CFE6D3E06881198122968BEC53
:1004D00093E00E941B02612F8BEC93E00E941B02B1
:1004E00083E0CF37D80781F7DF91CF911F910C942C
:1004F000AF00EFE6F3E089E390E09183808387E744
:1005000090E09383828388E390E0978386838BE5F2
:1005100090E0918780870C944F0290E0FC01EF50AF
:10052000FF4F2491FC01EA52FF4F349185549F4FB5
:10053000FC018491882361F12223C9F021502B30E2
:10054000B0F4E22FF0E0E955FD4F0C94941FCD027A
:10055000D102B202C902B702B702D402DA02DE0245
:10056000E402E802909180009F7790938000E82F4A
:10057000F0E0EE0FFF1FE155FF4FA591B4918FB74B
:10058000F894EC91611128C030953E233C938FBFC5
:100590000895909180009F7DE8CF94B59F7794BD9A
:1005A000E6CF94B59F7DFBCF9091B0009F7790935D
:1005B000B000DDCF9091B0009F7DF9CF9091900079
:1005C0009F7790939000D3CF909190009F7DF9CF2B
:1005D00090919000977FF5CF3E2BD8CFCF93DF93AC
:1005E000282F30E0F901EA52FF4F449125543F4F44
:1005F000F9012491843011F583E08093A000222337
:10060000D1F0822F90E0880F991FFC01ED55FF4F2C
:10061000A591B491FC01E155FF4FC591D4916111B1
:1006200022C09FB7F8948C91409584238C93888145
:10063000482348839FBFDF91CF9108959AEE980F8A
:10064000923020F48FEF84BF84BFD9CF8A31B9F6BE
:100650008091F00082608EBB80E88093F0008EB3C2
:100660008093F000CCCF8FB7F894EC914E2B4C9345
:100670008FBFE1CF3FB7F894809117039091180393
:10068000A0911903B0911A0326B5A89B05C02F3F6E
:1006900019F00196A11DB11D3FBFBA2FA92F982FA8
:1006A0008827BC01CD01620F711D811D911D42E0A3
:1006B000660F771F881F991F4A95D1F708958F926B
:1006C0009F92AF92BF92CF92DF92EF92FF926B0117
:1006D0007C010E943A034B015C01C114D104E10486
:1006E000F104B9F00E943A03681979098A099B0953
:1006F000683E73408105910580F321E0C21AD1085C
:10070000E108F10888EE880E83E0981EA11CB11C58
:10071000E4CFFF90EF90DF90CF90BF90AF909F908D
:100720008F9008952FB7F89460911303709114037C
:1007300080911503909116032FBF0895AF92BF9239
:10074000CF92DF92EF92FF920F931F93CF93DF939D
:100750006C017B018B01040F151FEB015E01AE18CC
:10076000BF08C017D10759F06991D601ED91FC91EE
:100770000190F081E02DC6010995892B79F7C5011B
:10078000DF91CF911F910F91FF90EF90DF90CF906D
:10079000BF90AF90089590E080E00895FC01538DE4
:1007A000448D252F30E0842F90E0821B930B54174B
:1007B00010F0CF96089501970895FC01918D828DD8
:1007C000981761F0A28DAE0FBF2FB11D5D968C9171
:1007D000928D9F5F9F73928F90E008958FEF9FEFB0
:1007E0000895FC01918D828D981731F0828DE80F6C
:1007F000F11D858D90E008958FEF9FEF0895FC0126
:10080000918D228D892F90E0805C9F4F821B9109F2
:100810008F739927089587ED93E00E94FF0321E0ED
:10082000892B09F420E0822F089580E090E0892B45
:1008300029F00E940B0481110C9400000895FC0122
:10084000A48DA80FB92FB11DA35ABF4F2C91848D31
:1008500090E001968F739927848FA689B7892C938E
:10086000A089B1898C9180648C93938D848D981329
:1008700006C00288F389E02D80818F7D80830895F2
:10088000EF92FF920F931F93CF93DF93EC0181E0E0
:10089000888F9B8D8C8D981316C0E889F98980818B
:1008A00085FF11C0EE89FF896083E889F98980811D
:1008B0008064808381E090E0DF91CF911F910F9160
:1008C000FF90EF900895F62E0B8D10E00F5F1F4FF5
:1008D0000F731127E02E8C8D8E110CC00FB607FC04
:1008E000FACFE889F989808185FFF5CFCE010E9492
:1008F0001F04F1CFEB8DEC0FFD2FF11DE35AFF4FDD
:10090000F0820B8FEA89FB8980818062D2CFCF93FE
:10091000DF93EC01888D8823B9F0AA89BB89E88927
:10092000F9898C9185FD03C0808186FD0DC00FB6CD
:1009300007FCF7CF8C9185FFF2CF808185FFEDCF4B
:10094000CE010E941F04E9CFDF91CF910895CF938C
:10095000DF93EC0160E070E0CB010E945F036C81EB
:1009600070E088EE93E00E94801F1092270310929F
:10097000260310922903109228031092200310924C
:100980002103109222031092230310921B038091E3
:100990008000809311038091810080931003109256
:1009A000810010928000109285001092840081E0F6
:1009B00086BB10926F008091B00080930F038091EE
:1009C000B10080930E031092B10082E08093B000DA
:1009D000CB0187709927892B09F059C023E07695C0
:1009E00067952A95E1F78CE78093B30087E08093C1
:1009F0000D0382E087BB1092B200709325036093D1
:100A000024039FB7F89483BD20910D032093B10078
:100A1000809370008BE08150F1F787E08093810034
:100A20009FBF80911B038823E1F31092B1001092C5
:100A3000700080910F038093B00080910E0380932B
:100A4000B100109281008091110380938000809109
:100A50001003809381008FB7F89420911C0330918C
:100A60001D0340911E0350911F0310921B038FBF63
:100A7000AC81B0E00E942F1F2EE130E040E050E05A
:100A80000E940D1FCA01B901DF91CF910895CB01DA
:100A900083709927892B49F47695679576956795A4
:100AA00089EF8093B30086E0A2CF60FD04C0769505
:100AB00067958CE7F6CF8CE78093B30085E097CFFE
:100AC000CF93DF93EC0160E08A810E948D0260E0A9
:100AD0008B810E948D0260E089810E948D0260E01E
:100AE0008881DF91CF910C948D02CF92DF92EF92AB
:100AF000FF92CF93C091B40484E68093B40460E085
:100B00008091B1040E948D0261E08091B0040E9446
:100B10008D0261E08091B2040E948D0260E08091BC
:100B2000B3040E948D0261E070E080E090E00E94DA
:100B30005F0380EB94E00E94A7046B017C0180EBD3
:100B400094E00E946005C093B40481E098ECC9165B
:100B5000D104E104F10408F480E0CF91FF90EF901C
:100B6000DF90CF9008958F929F92AF92BF92CF92D5
:100B7000DF92EF92FF92CF936B017C01AC019B015E
:100B80000E94C82081114CC046015701E894B7F873
:100B90002FEF3FEF4FE75FE7C501B4010E94C82088
:100BA00081110AC02FEF3FEF4FE75FE7C501B401A6
:100BB0000E94D91D1816A4F12FEF3FEF4FE75FE415
:100BC000C701B6010E94C320181654F12FEF3FEF62
:100BD0004FE75FECC701B6010E94D91D87FD20C019
:100BE00020E030E040E05FE4C701B6010E94D91D7B
:100BF000C1E0882351F020E030E040E05FECC70125
:100C0000B6010E94D91D8111C0E08C2FCF91FF90B9
:100C1000EF90DF90CF90BF90AF909F908F9008950E
:100C2000C1E0F3CFFC01608380917F0391E090935A
:100C3000A7038093C9031092A8031092CA03606EA1
:100C4000862F90E00E944A020C94AF00EFE6F3E09A
:100C500011821082138212821782168211861086E8
:100C60000C944F02EFE6F3E080E490E09183808300
:100C70009383828397838683918780870C944F0226
:100C8000FC0164838EE00C940D012FEF260F2F30B2
:100C900020F4DC01ED91FC9165838DE00C940D0155
:100CA000CF93FC0182819381009751F0C62F603170
:100CB00010F40E9412066C2F8CE0CF910C940D0161
:100CC000CF910895DC01ED91FC918FEF860F843672
:100CD00028F0848184838BE00C940D01862FFACF59
:100CE000AF92BF92CF92DF92EF92FF920F931F933A
:100CF000CF93DF9300D000D0CDB7DEB77B01DC010E
:100D0000ED91FC913696CB014096DB014D915D91C2
:100D10006D917D914193519361937193A817B90798
:100D2000A9F718E15E01B5E0AB0EB11CF7018191A6
:100D30009191A191B1917F0189839A83AB83BC8307
:100D4000CE0101966C01012FD6016D916D01802FAE
:100D50000E940D010F5FAC14BD04B1F71C5F183287
:100D600029F70F900F900F900F90DF91CF911F9167
:100D70000F91FF90EF90DF90CF90BF90AF900895CC
:100D8000AF92BF92CF92DF92EF92FF921F93CF93D9
:100D9000DF9300D000D0CDB7DEB77B01DC012D9111
:100DA0003C91FB0180819181A281B381F901868B05
:100DB000978BA08FB18FFB0184819581A681B7812C
:100DC000F901828F938FA48FB58FFB018081918170
:100DD000A281B38189839A83AB83BC83CE010196C0
:100DE0006C015C0110E1D5016D915D01812F0E94C4
:100DF0000D011F5F1431B9F7F70184819581A68138
:100E0000B78189839A83AB83BC83D6016D916D01D1
:100E1000812F0E940D011F5F1831B9F70F900F90BD
:100E20000F900F90DF91CF911F91FF90EF90DF9087
:100E3000CF90BF90AF9008950F931F93CF93DF9300
:100E4000CDB7DEB760970FB6F894DEBF0FBECDBF4B
:100E50008C0162E00E94620665E0C8010E945006B3
:100E60006AE0C8010E94450661E0C8010E94400690
:100E70008AE0F80185836AE08FE00E940D018BE82B
:100E800097E8A1E8BFE389839A83AB83BC838FE1B2
:100E90009DEBA1ECBDEB8D839E83AF83B887BE0134
:100EA0006F5F7F4FC8010E94C00619821A821B82A1
:100EB0001C821D821E821F82188683EA9BE8ACEC8E
:100EC000B2E489879A87AB87BC878AEB98E6A0E073
:100ED000B3EC8D879E87AF87B88BBE016F5F7F4F66
:100EE000C8010E94700660960FB6F894DEBF0FBE70
:100EF000CDBFDF91CF911F910F91089541155105FD
:100F000029F4EAE7F0E080818F7780836A30710509
:100F1000B9F0CB01880F991F880F991F80726770F5
:100F20006860682B88E10FB6F894A89580936000FC
:100F30000FBE60936000E0E6F0E080818064808313
:100F4000232BD9F483B7817F846083BFF89483B760
:100F5000816083BF85B7806685BF8F7D85BF7894AC
:100F6000889583B78E7F83BF7894452B29F4EAE771
:100F7000F0E0808180688083089583B7817F8460FA
:100F800083BFF89483B7816083BF7894889583B7D3
:100F90008E7F83BF7894E9CFCF92DF92EF92FF925A
:100FA0001F93CF93DF93182F6A017B010E94920356
:100FB0006C197D098E099F09613E73498440910532
:100FC00008F43FC08EEC94E00E942606C8E7D1E00A
:100FD00030E020E050E040E068E070E08CE093E03A
:100FE0000E947E0787ED93E00E94FF031816190602
:100FF0006CF48EEC94E00E943206DF91CF911F9149
:10100000FF90EF90DF90CF900C949203111150C09D
:101010000E9475058111EDCF21971C161D06C4F2A3
:1010200064EF71E080E090E00E945F0330E020E038
:1010300050E040E06AE070E08CE093E00E947E07C0
:10104000C7CF0E94920320910001AB01BC014C1953
:101050005D096E097F09413C544D61407105D8F02E
:1010600027FF0FC0E091AC04F091AD0480E0309711
:1010700009F080818093000161E08EEC94E00E9491
:101080001206C701B601DF91CF911F91FF90EF903B
:10109000DF90CF90089527FDF4CF20312CF4622FFC
:1010A0008EEC94E00E9412068FEF80930001E9CF4E
:1010B0000E9475058111B0CF9CCF2F923F924F9225
:1010C0005F926F927F928F929F92AF92BF92CF92D8
:1010D000DF92EF92FF920F931F93CF93DF93CDB7E1
:1010E000DEB768970FB6F894DEBF0FBECDBF7C01A8
:1010F0001B016A01B22E19821A821B821C821D8278
:101100001E821F82188619861A861B861C861D86DB
:101110001E861F86188A198A1A8A1B8A1C8A809141
:10112000A8049091A904009711F00E94260661E09E
:10113000F70180810E948D02BB2029F061E0F70158
:1011400081810E948D0261E070E080E090E00E9469
:101150005F03F701858180FF10C061E082810E94FA
:101160008D0260E0F70183810E948D02C7010E9419
:10117000A70469837A838B839C83F701858181FF30
:101180001FC060E082810E948D0260E0F7018381D0
:101190000E948D02F701B4808B2D90E0880F991F7B
:1011A0008536910514F084E690E0F7018483C70149
:1011B0000E94A7046D837E838F839887F701B48292
:1011C000F701858183FF10C060E082810E948D025B
:1011D00061E0F70183810E948D02C7010E94A7048C
:1011E0006D877E878F87988BF701858182FF10C07E
:1011F00061E082810E948D0261E0F70183810E949B
:101200008D02C7010E94A70469877A878B879C8714
:10121000C7010E9460058D849E84AF84B8886FEFFB
:101220007FEFCB0181149104A104B10409F4C4C07F
:101230006D817E818F8198850E94E01D2B013C018C
:10124000C501B4010E94E01D9B01AC01C301B201C4
:101250000E941B20F70126893789408D518D0E94FD
:101260003F1EF701228D338D448D558D0E94AF1F97
:101270004B015C012114310459F1F101408051808E
:101280006280738020E030E0A901C301B2010E94B6
:10129000D91D8823E9F0A3019201C501B4010E9480
:1012A000AE1F6D8B7E8B8F8B988F20E030E0A90175
:1012B0000E94C320181694F428E539E344E35DE363
:1012C0006D897E898F89988D0E94D91D87FD12C0F6
:1012D0000115110519F1F801108220C028E539E344
:1012E00044E35DEB6D897E898F89988D0E94C320D0
:1012F000181674F7A3019201C501B4010E94AF1F33
:1013000020E030E040E05FE30E943F1E4B015C01C3
:101310000115110519F081E0F8018083F70126819C
:10132000378140855185C501B4010E943F1EA5014A
:1013300094010E943F1EA50194010E943F1E2B01B3
:101340003C01F7012285338544855585C501B401EB
:101350000E943F1EA50194010E943F1E9B01AC010B
:10136000C301B2010E94AF1F2B013C01F70126858A
:10137000378540895189C501B4010E943F1E9B01F8
:10138000AC01C301B2010E94AF1FF701228933896A
:10139000448955890E94AF1F20E030E040E05FE3C0
:1013A0000E94AF1F0E948D202114310429F0F10109
:1013B00080829182A282B382C114D104B1F0DE0195
:1013C0001196F6019601205F3F4F8D909D90AD9054
:1013D000BD9081929192A192B1922E173F07A9F7E9
:1013E000F601608B718B828B938B68960FB6F894A5
:1013F000DEBF0FBECDBFDF91CF911F910F91FF9048
:10140000EF90DF90CF90BF90AF909F908F907F90A4
:101410006F905F904F903F902F900895EFE6F3E02C
:1014200089E790E091838083938382839783868387
:10143000918780870C944F023F924F925F926F92F8
:101440007F928F929F92AF92BF92CF92DF92EF9254
:10145000FF920F931F93CF93DF9300D000D01F9282
:10146000CDB7DEB79C01CB0168EE73E00E94801F10
:10147000695F7E4FDB010C91098364E670E00E9496
:10148000801F695F7E4FFB0110811A836AE070E064
:101490000E94801F695F7E4FDB014C914C83FC01F1
:1014A000E95FFE4F80818D830F3339F419821F333A
:1014B00021F41A824F3309F41C82C9010E942606C6
:1014C000FE0131966F013FE6E32E33E0F32E10E08C
:1014D00000E0312C2F014DE1642E41E0742E50E1EB
:1014E000852E912C0230110561F10115110509F0CD
:1014F00054C09092700380926F030E944F026AE082
:1015000070E080E090E00E945F0387E1A82E81E018
:10151000B82ED5018D915D01F60190818923382A7D
:101520008C91832990E0D7018D939C930E944F0268
:101530006AE070E080E090E00E945F036A147B0440
:1015400041F70F5F1F4FBFEFCB1ADB0AE2E0EE0E51
:10155000F11C0530110531F68D8182708068832978
:1015600090E090937803809377030F900F900F9003
:101570000F900F90DF91CF911F910F91FF90EF90FF
:10158000DF90CF90BF90AF909F908F907F906F90A3
:101590005F904F903F900C944F02C8010197033029
:1015A000110511F481E090E0FC01EE0FFF1FE159FD
:1015B000FC4F840D951DDC018C918270832990E095
:1015C00091838083F701918280820E944F026AE0BA
:1015D00070E080E090E00E945F03312C96CFBF92D4
:1015E000CF92DF92EF92FF920F931F93CF93DF93EF
:1015F0007C018B01CB0189519C4F873F9A4218F0A7
:10160000C7010E940E0A17FF2BC011950195110901
:10161000BB24B394C4E08AE0C82ED12CDC2FC15087
:10162000D53030F4C801B6010E94801F803158F1D6
:10163000C7010E940E0AC23011F4CEEFCD0FC801CF
:10164000B6010E94801F8B01672B41F7BB2091F0F0
:10165000EC2FC150E53028F1C7010E940E0A0AC0E4
:1016600001151105E1F58FE390E0909378038093E5
:101670007703C3E0C7FD28C0C530ECF0C7010E9466
:101680000E0AC150F7CFED2FF0E0EE0FFF1FE1592A
:10169000FC4F895F9E4FDC018C9190E091838083A9
:1016A000CACFF0E0EE0FFF1FE159FC4F80E490E05D
:1016B00091838083DFCFEC2FF0E0EE0FFF1FE15925
:1016C000FC4F11821082DDCFDF91CF911F910F91DE
:1016D000FF90EF90DF90CF90BF900C944F02B12C11
:1016E00099CF0F931F93CF93DF931F92CDB7DEB7A0
:1016F00019828E010F5F1F4F21E050E040E0BC01D6
:1017000080EB94E00E945D0897FF22C069312CEFC6
:1017100072072FEF82079207B4F48EEC94E00E94D8
:10172000320680916F03998190FB87F990E0909346
:10173000700380936F030E944F020F90DF91CF914F
:101740001F910F9108958EEC94E00E94EF0AE9CF6B
:10175000603127E2720781059105FCF68EEC94E07A
:101760000E941C0ADECFDF92EF92FF920F931F932D
:10177000CF93DF937C018B01C4E7D4E08A8190E0B2
:1017800001962BE0D22ED89EB001D99E700D112467
:10179000888199810E94CD20998388832A8148E09D
:1017A00050E0B7012D9D800D911D11240E94B121A3
:1017B0008A81E881F9818D9DE00DF11D1124128748
:1017C00001878F5F8A83DF91CF911F910F91FF90E7
:1017D000EF90DF900895FC0101900020E9F7319728
:1017E000AF01481B590BBC0187ED93E00C949E039D
:1017F0008F929F92AF92BF920F931F93CF93DF93DD
:10180000CDB7DEB7A1970FB6F894DEBF0FBECDBF40
:1018100019A2423008F44AE08E010F5D1F4F842E5A
:10182000912CB12CA12CA50194010E940D1FE62F33
:10183000B901CA01EA30F4F4E05DD801EE938D01FC
:10184000232B242B252B79F790E080E0109719F0BB
:10185000CD010E94EB0BA1960FB6F894DEBF0FBE30
:10186000CDBFDF91CF911F910F91BF90AF909F900F
:101870008F900895E95CE1CFCF92DF92EF92FF92D3
:10188000CF93DF9397FF1BC06B017C016DE287ED67
:1018900093E00E944004EC0166277727CB016C1986
:1018A0007D098E099F094AE00E94F80B8C0F9D1F4D
:1018B000DF91CF91FF90EF90DF90CF9008954AE0B5
:1018C000DF91CF91FF90EF90DF90CF900C94F80BC9
:1018D000009711F00C94EB0B90E080E0089582E407
:1018E00091E00E94680C8091A0049091A1040E9454
:1018F000680C8AE491E00E94680CEFE6F3E083E76D
:1019000090E09183808389E390E0938382831782C0
:101910001682118610860C944F02CF92DF92EF92BE
:10192000FF920F931F9310E000E021E050E040E0B1
:1019300070E060E08091A6049091A7040E945D0889
:101940006B017C0189E591E00E94680CC701B6013A
:101950000E943C0C8AE491E00E94680C8091A404EF
:101960009091A50420E1C21627E2D206E104F10419
:1019700040F01F910F91FF90EF90DF90CF900C946B
:101980003206B6011F910F91FF90EF90DF90CF903C
:101990000C941C0AAF92BF92CF92DF92EF92FF920B
:1019A0000F931F93CF93DF93CDB7DEB764970FB636
:1019B000F894DEBF0FBECDBF10E000E021E0AE0125
:1019C0004F5F5F4F70E060E08091A6049091A704A4
:1019D0000E945D086B017C018CE491E00E94680C20
:1019E0008E010F5F1F4F5E0125E1A20EB11CF801B1
:1019F00061917191819191918F010E943C0C85E5DB
:101A000091E00E94680C0A151B0589F78AE491E0B1
:101A10000E94680C8091A4049091A504B701A601CE
:101A200049515C4F6F4F7F4F473F5A4261057105E7
:101A300098F00E94320664960FB6F894DEBF0FBE8F
:101A4000CDBFDF91CF911F910F91FF90EF90DF906D
:101A5000CF90BF90AF900895B6010E94EF0AEBCFF0
:101A6000EF92FF920F931F93CF93DF93CDB7DEB723
:101A700064970FB6F894DEBF0FBECDBF10E000E054
:101A800020E0AE014F5F5F4F70E060E08091A60400
:101A90009091A7040E945D0887E591E00E94680C80
:101AA0008E010F5F1F4F7E0181E1E80EF11CF801EE
:101AB00061917191819191918F010E943C0C85E51A
:101AC00091E00E94680C0E151F0589F78AE491E0E9
:101AD0000E94680C64960FB6F894DEBF0FBECDBFAF
:101AE000DF91CF911F910F91FF90EF9008958FE5B7
:101AF00091E00E94680CE091A404F091A50460813B
:101B000070E090E080E04AE00E94F80B8AE491E007
:101B10000C94680C8EE691E00E94680CE091A6049B
:101B2000F091A704648170E090E080E04AE00E94B8
:101B3000F80B8AE491E00C94680C8BE791E00E942A
:101B4000680CE091A604F091A704658170E090E034
:101B500080E04AE00E94F80B8AE491E00C94680C63
:101B600085E891E00E94680CE091A204F091A30442
:101B7000648170E090E080E00E943C0C8AE491E097
:101B80000C94680C81E991E00E94680CE091A20439
:101B9000F091A304658170E090E080E04AE00E944B
:101BA000F80B8AE491E00C94680C8091A204909167
:101BB000A3040E941C078DE991E00E94680C8AE44E
:101BC00091E00C94680C4F925F926F927F928F928B
:101BD0009F92AF92BF92CF92DF92EF92FF920F93BC
:101BE0001F93CF936B017C01742EAC019B010E946B
:101BF000C820882399F086EA91E0CF911F910F9138
:101C0000FF90EF90DF90CF90BF90AF909F908F901C
:101C10007F906F905F904F900C94EB0B46015701B3
:101C2000E894B7F82FEF3FEF4FE75FE7C501B40146
:101C30000E94C82081110DC02FEF3FEF4FE75FE7F3
:101C4000C501B4010E94D91D18161CF48AEA91E05E
:101C5000D4CF2FEF3FEF4FE75FE4C701B6010E94FB
:101C6000C32018161CF48EEA91E0C7CF2FEF3FEF88
:101C70004FE75FECC701B6010E94D91D87FDF3CF86
:101C800020E030E0A901C701B6010E94D91D10E093
:101C900000E087FF0AC06DE287ED93E00E944004F8
:101CA0008C01F7FAF094F7F8F094C0E060E070E08F
:101CB00080E09FE37C1641F020E030E040E251E418
:101CC0000E941B20CF5FF6CFA70196010E94AF1F95
:101CD0002B013C010E9494204B015C014AE00E94D0
:101CE000F80B7C01E00EF11ECC23C1F1C501B4015B
:101CF0000E94DE1D9B01AC01C301B2010E94AE1F18
:101D00004B015C016EE287ED93E00E944004E80E17
:101D1000F91EC15018F120E030E040E251E4C50165
:101D2000B4010E943F1E2B013C010E9494204B01F4
:101D3000B12CA12C4AE0C501B4010E94F80BE80EB9
:101D4000F91EC501B4010E94DE1D9B01AC01C30157
:101D5000B2010E94AE1F4B015C01DBCFC701CF91E6
:101D60001F910F91FF90EF90DF90CF90BF90AF90B9
:101D70009F908F907F906F905F904F900895CF923B
:101D8000DF92EF92FF920F931F93CF93DF9300D0D8
:101D900000D0CDB7DEB719821A821B821C8210E0F8
:101DA00000E021E050E040E0BE016F5F7F4F809196
:101DB000A6049091A7040E945D086B017C018DE44C
:101DC00091E00E94680C69817A818B819C8146E058
:101DD0000E94E30D8AE491E00E94680CB701A6011D
:101DE00049515C4F6F4F7F4F8091A4049091A5049F
:101DF000473F5A426105710578F00E9432060F9004
:101E00000F900F900F90DF91CF911F910F91FF9046
:101E1000EF90DF90CF900895B6010E94EF0AEFCFC8
:101E2000EF92FF920F931F93CF93DF93CDB7DEB75F
:101E300060970FB6F894DEBF0FBECDBFE091A60449
:101E4000F091A70486819781A085B18589839A83C3
:101E5000AB83BC8382859385A485B5858D839E8362
:101E6000AF83B88786859785A089B18989879A8746
:101E7000AB87BC8782899389A489B5898D879E8722
:101E8000AF87B88B82EB91E00E94680C8E010F5FE8
:101E90001F4F7E0181E1E80EF11CF8016191719103
:101EA000819191918F0146E00E94E30D85E591E0DB
:101EB0000E94680C0E151F0581F78AE491E0609678
:101EC0000FB6F894DEBF0FBECDBFDF91CF911F914B
:101ED0000F91FF90EF900C94680C8F929F92AF92AD
:101EE000BF92CF92DF92EF92FF92E091A604F09121
:101EF000A70486889788A08CB18CC28CD38CE48C84
:101F0000F58C8EEB91E00E94680C46E0C501B401AF
:101F10000E94E30D85E591E00E94680C46E0C70150
:101F2000B6010E94E30D85E591E00E94680C8AE409
:101F300091E0FF90EF90DF90CF90BF90AF909F9097
:101F40008F900C94680C4EE954E069E774E090E0DF
:101F500080E00C943F1CCF93DF93CDB7DEB728977A
:101F60000FB6F894DEBF0FBECDBF0E94A30F0E9434
:101F7000141C69837A838B839C830E94B30581112F
:101F80000CC00E94A30F0E94141C6D837E838F835C
:101F900098870E94B305882389F086EC91E00E941F
:101FA000680C8AE491E00E94680C28960FB6F894B9
:101FB000DEBF0FBECDBFDF91CF910895BE016F5F31
:101FC0007F4F8091A2049091A3040E94C00683EDEC
:101FD00091E0E5CFCF92DF92EF92FF920F931F93A4
:101FE000CF93DF93CDB7DEB760970FB6F894DEBF1F
:101FF0000FBECDBF8E010F5F1F4F6E0181E1C80E76
:10200000D11C78010E94A30F0E94141CF801619357
:102010007193819391938F010E94B3058823B9F046
:102020008AED91E00E94680C8AE491E00E94680CBD
:1020300060960FB6F894DEBF0FBECDBFDF91CF9193
:102040001F910F91FF90EF90DF90CF9008950C15A6
:102050001D05C1F6B7018091A2049091A3040E94CE
:1020600070068BEE91E0DECFCF92DF92EF92FF927F
:102070000E94A30F4AE050E070E060E00E94FD1A69
:102080006B017C010E94E01D0E94B305882361F072
:1020900086EF91E00E94680C8AE491E0FF90EF9057
:1020A000DF90CF900C94680C80E1C816D104E10455
:1020B000F10470F76C2D8091A2049091A3040E940A
:1020C00050068AE092E0E6CFCF92DF92EF92FF9245
:1020D0000E94A30F4AE050E070E060E00E94FD1A09
:1020E0006B017C010E94E01D0E94B305882361F012
:1020F00088E192E00E94680C8AE491E0FF90EF9002
:10210000DF90CF900C94680CD701C6010197A1090C
:10211000B10984369105A105B10550F76C2D809168
:10212000A2049091A3040E9462068AE292E0E2CFA8
:10213000CF92DF92EF92FF920E94A30F4AE050E00D
:1021400070E060E00E94FD1A6B017C010E94E01DBE
:102150000E94B305882361F086E392E00E94680C38
:102160008AE491E0FF90EF90DF90CF900C94680CA0
:10217000D701C6010197A109B1090F97A105B105C2
:1021800058F76C2D8091A2049091A3040E944506FB
:1021900085E492E0E3CFCF92DF92EF92FF920E942C
:1021A000A30F4AE050E070E060E00E94FD1A6B016E
:1021B0007C010E94E01D0E94B305882361F08EE43B
:1021C00092E00E94680C8AE491E0FF90EF90DF902B
:1021D000CF900C94680C8FEFC816D104E104F10481
:1021E00009F068F7E091A204F091A304C5826C2D78
:1021F0008FE00E940D018FE592E0E3CFCF93DF9354
:102200000E94A30F0E94181CEC010E94A30F892BAF
:10221000A9F4C230D10590F46C2F61708091A204B2
:102220009091A3040E9440068AE692E00E94680C06
:102230008AE491E0DF91CF910C94680C85E792E0FD
:10224000F5CFAF92BF92CF92DF92EF92FF920F93B2
:102250001F93CF93DF9387ED93E00E94FF0318163F
:1022600019060CF05DC087ED93E00E94DD03C82FD6
:1022700080917B04C81338C04EE954E069E774E0EC
:102280008CE794E00E943F1C8C01892BD9F0C09010
:102290007604D12CC0917404D0917504F12CE12CFA
:1022A000EC14FD04C4F45E0148E050E0BE01C80136
:1022B0000E94A3212B96892B51F4D5011996ED91FB
:1022C000FC91099510927C0410929D04C4CFBFEF3D
:1022D000EB1AFB0AE5CFE0917704F0917804309790
:1022E00089F3C8010995EECF8C2F0C2E000C990BA9
:1022F0000E948C21892B09F4AECFE0919D04E0323D
:1023000008F0A9CF81E08E0F80939D04F0E0EC5897
:10231000FB4FC087E82FF0E0EC58FB4F10869BCFB7
:1023200080E0DF91CF911F910F91FF90EF90DF90B0
:10233000CF90BF90AF9008951F920F920FB60F925B
:1023400011242F933F934F935F936F937F938F93BA
:102350009F93AF93BF93EF93FF938091B900887FD2
:10236000803609F44AC0F0F5883209F4A5C018F5A2
:10237000803109F499C0B8F4882309F4F0C088309A
:1023800009F492C0FF91EF91BF91AF919F918F910E
:102390007F916F915F914F913F912F910F900FBE61
:1023A0000F901F901895883109F486C0803251F73C
:1023B0008093A40314C0803409F49BC040F480339C
:1023C000B9F38833F9F68093A40385ECAEC0803569
:1023D00009F483C0883509F494C0883499F60E94C2
:1023E000A601D0CF883909F48AC038F5883729F09A
:1023F00050F4883611F0803729F683E08093A603E5
:1024000010926E0355C0883809F479C0803919F0EC
:10241000803809F0B7CF80916E03803208F06FC02A
:10242000E0916E0381E08E0F80936E038091BB007C
:10243000F0E0E25BFC4F80833BC0803B39F0D0F49E
:10244000803A09F477C0883A09F09CCF84E0809301
:10245000A60310924D0310924C03F0E0E0E00995C2
:1024600080914C0381110FC081E080934C03109246
:102470002C0309C0803C09F4A8CF883C09F4A5CFFF
:10248000883B09F07FCFE0914D0381E08E0F809370
:102490004D03F0E0E45DFC4F80818093BB009091A0
:1024A0004D0380914C0329C0809181038093BB0030
:1024B00085EC8093BC0066CF9091A3038091A2032A
:1024C000981758F5E091A30381E08E0F8093A30342
:1024D000F0E0EE57FC4F8081E9CFE091A30381E06B
:1024E0008E0F8093A3038091BB00F0E0EE57FC4F6A
:1024F00080839091A3038091A2039817C8F285E886
:10250000D8CFE091A30381E08E0F8093A303809145
:10251000BB00F0E0EE57FC4F80838091A503811152
:102520005ECF81E08093800384EA8093BC001092A8
:10253000A60328CF80916E03803230F4E0916E03C1
:10254000F0E0E25BFC4F108260916E0370E08EE47D
:1025500093E0F0E0E0E0099510926E0336CF109220
:10256000A4033DCF1F920F920FB60F9211240F9329
:102570001F932F933F934F935F936F937F938F930B
:102580009F93AF93BF932091840030918500B09BBF
:102590000BC081E086BB80912803909129030196AE
:1025A0009093290380932803809126039091270319
:1025B000019640912403509125038417950708F450
:1025C00045C0109227031092260380912803909112
:1025D0002903B0E0A0E0DC0199278827820F931F30
:1025E000A11DB11D40912003509121036091220350
:1025F000709123038C019D01041B150B260B370BD7
:10260000B901A80140931C0350931D0360931E035E
:1026100070931F038093200390932103A0932203C0
:10262000B093230381E080931B03BF91AF919F91EF
:102630008F917F916F915F914F913F912F911F915A
:102640000F910F900FBE0F901F9018959093270336
:1026500080932603EACF1F920F920FB60F92112498
:102660002F933F938F939F93AF93BF9380911303C7
:1026700090911403A0911503B091160330911203A9
:1026800023E0230F2D3758F50196A11DB11D20938E
:1026900012038093130390931403A0931503B09334
:1026A00016038091170390911803A0911903B0911C
:1026B0001A030196A11DB11D80931703909318036F
:1026C000A0931903B0931A03BF91AF919F918F917B
:1026D0003F912F910F900FBE0F901F90189526E8F5
:1026E000230F0296A11DB11DD2CF1F920F920FB6DC
:1026F0000F9211242F933F934F935F936F937F9388
:102700008F939F93AF93BF93EF93FF9387ED93E0E6
:102710000E941F04FF91EF91BF91AF919F918F9104
:102720007F916F915F914F913F912F910F900FBECD
:102730000F901F9018951F920F920FB60F921124B1
:102740002F938F939F93EF93FF93E091E703F09183
:10275000E8038081E091ED03F091EE0382FD1BC060
:1027600090818091F0038F5F8F732091F103821726
:1027700041F0E091F003F0E0E952FC4F958F809337
:10278000F003FF91EF919F918F912F910F900FBECA
:102790000F901F9018958081F4CF1F920F920FB663
:1027A0000F9211248F930FB6F894A8958091600032
:1027B000886180936000109260000FBE8F910F902F
:1027C0000FBE0F901F901895CF93DF93EBECF3E0C3
:1027D0001382128288EE93E0A0E0B0E084839583B8
:1027E000A683B78322E231E03183208320E826BF2D
:1027F0002CE426BFE7EDF3E01382128284839583F5
:10280000A683B78384E391E09183808385EC90E095
:102810009587848784EC90E09787868780EC90E0AA
:10282000918B808B81EC90E0938B828B82EC90E09B
:10283000958B848B86EC90E0978B868B118E128E15
:10284000138E148EC4E7D4E0198218821A821C8277
:102850001B828AE08F831BA61AA665E571E089E7D3
:1028600094E00E949C21188619A6E0EBF4E082E037
:10287000808383E0818396E0928397E093838483CF
:102880008FE085838EEC94E09093A9048093A80454
:102890004BE857E861E87FE3468B578B608F718F79
:1028A0004FE15DEB61EC7DEB428F538F648F758F51
:1028B0001682178210861186128613861486158654
:1028C00043EA5BE86CEC72E446875787608B718B58
:1028D0004AEB58E660E073EC428B538B648B758B4C
:1028E000AAEAB4E01196FC93EE9313969C938E9310
:1028F000129721E014962C931497F093A704E09379
:10290000A6049093A5048093A404B093A304A09379
:10291000A20486E892E09093A1048093A004DF9142
:10292000CF910895CF93DF93CDB7DEB76C970FB6F5
:10293000F894DEBF0FBECDBF8091F20080618EBBE8
:1029400080E88093F2009EB39093F2008093610040
:1029500091E090936100809361009093610078947E
:1029600084B5826084BD84B5816084BD85B5826094
:1029700085BD85B5816085BD80916E008160809345
:102980006E001092810080918100826080938100AE
:1029900080918100816080938100809180008160BE
:1029A000809380008091B10084608093B100809119
:1029B000B00081608093B00080919100826080932C
:1029C00091008091910081608093910080919000AE
:1029D00081608093900080917A00846080937A0077
:1029E00080917A00826080937A0080917A00816081
:1029F00080937A0080917A00806880937A001092A8
:102A0000C10010E060E0812F0E94EE0260E0812FA3
:102A10000E948D021F5F1631A9F780917E008F639F
:102A200080937E0080916400816080936400809137
:102A300064008460809364001CBC61E08DE00E94AF
:102A4000EE0261E08DE00E948D02E091E703F091DB
:102A5000E80382E08083E091E303F091E4031082D5
:102A6000E091E503F091E60380E180831092EF03AB
:102A7000E091EB03F091EC0386E08083E091E903C1
:102A8000F091EA03808180618083E091E903F09115
:102A9000EA03808188608083E091E903F091EA0392
:102AA000808180688083E091E903F091EA0380816E
:102AB0008F7D80836FE67CE08CE892E00E94B30B10
:102AC0006DE87CE08DE992E00E94B30B6FEB7EE055
:102AD00084E992E00E94B30B6AEC7CE083E992E027
:102AE0000E94B30B60E37DE08BE992E00E94B30BA0
:102AF0006BEA7FE083ED91E00E94B30B6DE67FE02F
:102B000082EA92E00E94B30B6AEE7FE089EA92E0EB
:102B10000E94B30B60E17FE082EB92E00E94B30B76
:102B200064E370E18BEB92E00E94B30B67E77DE01A
:102B300084EC92E00E94B30B64E670E18DEC92E0CD
:102B40000E94B30B6AE87DE086ED92E00E94B30B31
:102B500068E970E185E492E00E94B30B6DE97DE0E5
:102B60008FED92E00E94B30B6EEF70E188EE92E081
:102B70000E94B30B60EB7DE081EF92E00E94B30B0B
:102B80006BEC70E18AEF92E00E94B30B62EC7DE0A7
:102B900083E093E00E94B30B65ED7DE08DE991E069
:102BA0000E94B30B0E94211180E780937F03109253
:102BB0002B0310922A031092A8031092CA0380914B
:102BC0007E008F7C80937E001092A60311E010930C
:102BD000A5031092800361E082E10E948D0261E012
:102BE00083E10E948D028091B9008E7F8093B900AD
:102BF0008091B9008D7F8093B90088E48093B800FC
:102C000085E48093BC0080917F031093A703809399
:102C1000C9031092A8031092CA0381E290E00E94B7
:102C20004A020E94AF001093A7031092A8031092CB
:102C3000CA0381E890E00E944A020E94AF0010930C
:102C4000A7031092A8031092CA038FEE90E00E948F
:102C50004A020E94AF008EEC94E00E94260661E0DA
:102C60008091B2040E94EE0261E08091B3040E9460
:102C7000EE0261E08091B1040E94EE0261E0809179
:102C8000B0040E94EE0280EB94E00E9460058AE0AE
:102C90000E9452018A3209F0C3C28BE00E945201A5
:102CA00062E0853608F4682F8AEA94E00E946206A2
:102CB0008091AC049091AD04892B59F08CE00E9476
:102CC000520165E0803108F4682F8AEA94E00E949E
:102CD00050068DE00E9452019FEF980F6AE09F30EE
:102CE00008F4682F8AEA94E00E9445068EE00E946C
:102CF000520161E08F3F79F58AEA94E00E94400634
:102D00008FE00E9452018F3F51F58AE08093AF041B
:102D10006AE08FE00E940D019E012F5F3F4F790115
:102D2000690101E010E13901E4E05E2E510EAE01CF
:102D30004B5E5F4F5A015116B1F088248394810E87
:102D4000812F0E945201F50181935F018F3F09F0AD
:102D500000E0182DF0CF8111CFCF60E0CDCF809370
:102D6000AF04682FD6CF8D889E88AF88B88CC501F8
:102D7000B4010E94B305882371F18BE897E8A1E8BC
:102D8000BFE389839A83AB83BC838FE19DEBA1EC86
:102D9000BDEB8D839E83AF83B887B7018AEA94E049
:102DA0000E94C00601E018E174E0A72EA10E9E016A
:102DB0002B5E3F4F69011A15D1F0BB24B394B10EBD
:102DC000812F0E945201F60181936F018F3F09F01C
:102DD00000E01B2DF0CFF60181929192A192B19269
:102DE0006F01F8E15F12A0CF0111C7CFD6CF8D8858
:102DF0009E88AF88B88CC501B4010E94B3058823B2
:102E000009F402C219821A821B821C821D821E8250
:102E10001F82188683EA9BE8ACECB2E489879A8724
:102E2000AB87BC878AEB98E6A0E0B3EC8D879E87E2
:102E3000AF87B88BB3018AEA94E00E9470060FE76F
:102E400010E01093700300936F03109272031092BE
:102E5000710310927603109275031092780310920A
:102E600077030E944F026AEF70E080E090E00E94DA
:102E70005F031092700310926F031093720300931C
:102E800071030E944F026AEF70E080E090E00E94C0
:102E90005F031092720310927103109376030093F4
:102EA00075030E944F026AEF70E080E090E00E949C
:102EB0005F031092760310927503109378030093CA
:102EC00077030E944F026AEF70E080E090E00E947A
:102ED0005F0360E08DE00E948D0260E08DE00E9463
:102EE000EE020E947505811177C28091AE0488239D
:102EF00009F46DC21091B40484E68093B404809107
:102F0000A8049091A904009711F00E94260661E0A0
:102F10008091B0040E948D0261E08091B1040E9412
:102F20008D0261E070E080E090E00E945F0360E06D
:102F30008091B2040E948D0260E08091B3040E94EF
:102F40008D0280EB94E00E94A7044B015C0160E0DD
:102F50008091B2040E948D0261E08091B3040E94CE
:102F60008D0280EB94E00E94A7046B017C0180EB52
:102F700094E00E9460051093B404F9E28F16FAE021
:102F80009F06A104B1040CF450C128E2821A2AE081
:102F9000920AA108B10834E3831638E09306A1042D
:102FA000B1040CF014C241E4C41646E0D406E104B6
:102FB000F1040CF447C150E4C51A56E0D50AE10803
:102FC000F1083CEDC31635E0D306E104F1040CF042
:102FD000FEC18EEC94E00E94260639E3832E912CEC
:102FE0009092700380926F0347E7A42EB12CB092A9
:102FF0007203A092710358E3C52ED12CD0927603B0
:10300000C092750366E0E62EF12CF0927803E09210
:1030100077030E944F0264EF71E080E090E00E942D
:103020005F0310E000E021E0AE014F5F5F4F70E012
:1030300060E080EB94E00E945D080E942111811104
:103040008BC09092700380926F03B0927203A09233
:103050007103D0927603C0927503F0927803E092E8
:1030600077030E944F0264EF71E080E090E00E94DD
:103070005F030E94211181116FC06D817E818F815C
:1030800098850E94E01D4B015C016D857E858F85D2
:1030900098890E94E01D2B013C0120E030E842E2CB
:1030A00055E4C501B4010E94AE1F6B017C0120E014
:1030B00030E0A9010E94C320181624F0F7FAF0941A
:1030C000F7F8F09420E030E443E055E4C701B6019E
:1030D0000E94D91D87FF70C120E030E048EC54E425
:1030E000C301B2010E94AE1F6B017C0120E030E001
:1030F000A9010E94C320181624F0F7FAF094F7F8FB
:10310000F09420E030E84BEB54E4C701B6010E9494
:10311000D91D87FF51C1A3019201C501B4010E94CD
:103120001B204B015C01C090AF0444E6C49E6001CB
:1031300011240E94790226010D2C000C66087708E4
:103140000E94750581118BC0C301B2010E945F030B
:103150000E9421118823A1F319821A821B821C82EA
:10316000812C912C540122242394312C08E010E06E
:10317000C090AF0454E6C59E600111240E94211145
:10318000882321F00E9492034B015C010E94750587
:103190000D2C000CEE08FF08882309F405C20E94DC
:1031A00092034B015C018EE390E090937003809357
:1031B0006F03E3E7F0E0F0937203E0937103109282
:1031C00076031092750310927803109277030E9491
:1031D0004F02B501A40181E00E94CC072B013C0104
:1031E0000E947505882309F4FCC0C701B6010E943E
:1031F0005F030E942111882321F00E9492032B017A
:103200003C01B301A201E7CFF70181929192A19213
:10321000B1927F01183209F0C7CD0111F3CD0ACE6A
:103220008AEA94E00E941C070ACE88E29AE0A0E0B5
:10323000B0E09C01AD01281939094A095B0949012F
:103240005A01A9CE80E496E0A0E0B0E09C01AD0177
:103250002C193D094E095F0969017A01B2CE8EE34E
:1032600090E09093700380936F0383E790E09093D6
:10327000720380937103109276031092750310927B
:103280007803109277030E944F020D2C000CEE0879
:10329000FF080E947505882349F0C701B6010E9406
:1032A0005F030E9421118823A1F356CF0E94790267
:1032B00064EF71E080E090E00E945F0310E000E0C6
:1032C00021E0AE014F5F5F4F70E060E080EB94E083
:1032D0000E945D080E94211181113ECF0E94790257
:1032E00064EF71E080E090E00E945F030E94211192
:1032F000811132CF6D817E818F8198850E94E01D82
:103300006B017C016D857E858F8598890E94E01D0B
:103310009B01AC01C701B6010E941B20A5019401CD
:103320000E94AE1F9B01AC016DEC7CEC8CE090E444
:103330000E941B209B01AC012D8B3E8B4F8B588F25
:10334000C501B4010E943F1E9B01AC0160E070E02A
:1033500080EC9FE30E94AE1F698F7A8F8B8F9C8FCA
:103360000E9421118111F8CEBE016B5E7F4F8AEA67
:1033700094E00E94C0066AE070E080E090E00E9465
:103380005F038EE590E09093700380936F038FE36B
:1033900090E0909372038093710384E590E09093A2
:1033A00076038093750389E790E090937803809388
:1033B00077030E944F02D0CE8EEC94E00E940E0A5A
:1033C00068EB7BE080E090E00E945F03C5CE90E078
:1033D00080E00E94710BC0CE8EEC94E00E94260625
:1033E000BBCE68EE73E080E090E00E945F0392E065
:1033F000A92EB12C3092700320926F030E944F02CD
:1034000069E270E080E090E00E945F031092700338
:1034100010926F0330927203209271030E944F0248
:1034200069E270E080E090E00E945F031092720316
:103430001092710330927603209275030E944F021E
:1034400069E270E080E090E00E945F0310927603F2
:103450001092750330927803209277030E944F02F6
:1034600069E270E080E090E00E945F0322E030E0DB
:1034700030937803209377030E944F0269E270E053
:1034800080E090E00E945F0344E050E050937803B6
:10349000409377030E944F0269E270E080E090E081
:1034A0000E945F0310937803009377030E944F02FA
:1034B00069E270E080E090E00E945F031092780380
:1034C0001092770310937603009375030E944F02C6
:1034D00069E270E080E090E00E945F031092760362
:1034E0001092750310937203009371030E944F02B0
:1034F00069E270E080E090E00E945F031092720346
:10350000109271031093700300936F030E944F0297
:1035100069E270E080E090E00E945F0380E190E06B
:103520009093700380936F030E944F0269E270E0F2
:1035300080E090E00E945F03E0E2F0E0F09370032F
:10354000E0936F030E944F0269E270E080E090E038
:103550000E945F03AA94AB2809F04BC08EEC94E064
:103560000E94260664E670E080E090E00E945F031F
:103570000E9492036419750986099709613A7F4090
:103580008105910520F019821A821B821C82CE01CE
:1035900001960E94710B0E949203AB01BC0180E076
:1035A0000E94CC074B015C01C701B6010E945F037A
:1035B0000E949203681979098A099B09613A7F4040
:1035C0008105910570F019821A821B821C828091FC
:1035D0006F038F7790E09093700380936F030E9446
:1035E0004F02B501A40180E00E94CC074B015C01B1
:1035F000BFCDAA24A394B12CFDCEB0E0A0E0E3E0BF
:10360000FBE10C943B1F5C016B017A0161157105B4
:1036100019F0FB0191838083E114F10451F0C7019B
:103620000297839730F040E030E020E090E072C0F5
:103630005E01E5012196F5011081812F90E00E9445
:10364000361C892BA9F71D3201F52196F501118150
:1036500001E0E114F10409F4DAC0F0E1EF16F1043D
:1036600009F082C0103359F488818F7D883509F0C4
:1036700076C0198122960260F0E1EF2EF12C812CA8
:10368000912CA12C88E0B82E8CC01B3221F4E501CE
:103690002296F501118100E0DCCFEAE0EE16F1049C
:1036A00009F4BBC0F0E1EF16F10409F06DC0E7CFFB
:1036B00078E0E72EF12C812C912CA12C60E1B62E24
:1036C00070C03FE9310F3A3128F439EA332E80C017
:1036D00021E09AC0302F3170C114D10431F022237F
:1036E00009F12197F601D183C08327FF21C060E053
:1036F00070E080E090E8311104C06FEF7FEF8FEF52
:103700009FE722E230E03093D0042093CF04462F8D
:10371000372F282F642F732F822FCDB7DEB7E1E12B
:103720000C94571F01FF04C02297F601D183C08378
:10373000332341F090958095709561957F4F8F4F21
:103740009F4FE5CF97FFE3CF82E290E09093D004C4
:103750008093CF046FEF7FEF8FEF9FE7D8CF10E319
:10376000E114F10409F4A4CF28E0E216F10409F40D
:10377000A2CF0CF092CF812C912CA12CE0E4BE2E94
:1037800082E0E816F10469F060E070E080E090E823
:1037900097010F2C000C440B550B0E940D1F490183
:1037A0005A0120E060E070E0CB0127010F2C000CF3
:1037B00066087708FE0150ED352E310E39E03315DD
:1037C00040F43FEB310F3A3108F07BCF49EC342E17
:1037D000310E3E141F040CF07DCF27FD15C0861658
:1037E0009706A806B90678F0A30192010E94FD1E73
:1037F000630D711D811D911D61307105810520E8EA
:10380000920708F465CF2FEF21961081D3CF1033A4
:1038100009F42ACF2AE0E22EF12C9CEC892E982C78
:10382000A82C9CE0B92EBDCF662777270C946E1C80
:10383000FC0188279927E89421912032E9F3293067
:1038400010F02E30C8F32B3241F02D3239F4689449
:1038500004C00E94661C820F911D219120532A30C2
:10386000C0F31EF4909581959F4F089591110C948B
:10387000BE1D803219F089508550C8F70895FA01AD
:10388000A191B081009719F41097E1F0CD01DC010E
:10389000CD010D90002011F4C00113C0FB01219156
:1038A000222319F02015D9F7F3CFFB012191201520
:1038B00019F41E92119606C02223C1F70D90002024
:1038C000A1F7D001FA01A193B08308957AE0979F00
:1038D000902D879F802D910D11240895B0E0A0E0D8
:1038E000E4E7FCE10C94401F5C017B01611571056C
:1038F00019F0DB018D939C9385010F5F1F4FF5013C
:10390000D0818D2F90E00E94361C6C01892BB9F577
:10391000DD32B9F50F5F1F4FD5011196DC91C1E083
:103920005801F1E0AF1AB10843E050E060E770E001
:10393000C5010E94C11D892B69F5680182E0C80E8E
:10394000D11C45E050E06BE670E0C6010E94C11D4D
:10395000892B21F4680197E0C90ED11CE114F10410
:1039600019F0D701CD92DC9260E070E080E89FEF23
:10397000C111FFC060E070E080E89FE7FAC0580125
:10398000BBCFDB3229F485010E5F1F4FF501D181DA
:10399000C0E0C6CF43E050E068E670E0C5010E9499
:1039A000C11D892BE9F0F80110E000E020E030E0D3
:1039B000A9015F01B0ED8B2E8D0E89E08815C8F14D
:1039C0009C2E689491F88C2F8870C2FF16C08111CC
:1039D00002C00F5F1F4F3196D501DC91C92DE9CF91
:1039E000E114F10429F00E5F1F4FF70111830083EA
:1039F00060E070E080EC9FE7BCC0882311F00150CC
:103A00001109A5E0B0E00E942F1F9B01AC01220F1D
:103A1000331F441F551F280D311D411D511D2839CD
:103A200099E93907490799E15907A8F2C6609C2E20
:103A3000D2CFAEEF8A1206C0C3FD3CC09C2E689464
:103A400093F8C9CFDF7DD534A9F580818D3239F463
:103A5000C061DF011296818162E070E006C0DF0183
:103A60008B32C1F3119661E070E080535D01A61ABC
:103A7000B70A8A30F8F4E0E8CE16ECE0DE065CF433
:103A8000B601660F771F660F771FC60ED71ECC0CC8
:103A9000DD1CC80ED11C5D01FFEFAF1ABF0A8C916F
:103AA00080538A30A8F1C4FF03C0D194C194D108D7
:103AB0000C0D1D1DC1FF09C0E114F10431F081E0BE
:103AC000A81AB108D701AD92BC92CA01B9010E94EF
:103AD000DE1DC370C33009F490584B015C0120E037
:103AE00030E0A9010E94D91D882309F440C0CFE924
:103AF000D0E017FF05C0119501951109C7E8D0E086
:103B00006E01B8E1CB1AD10880E2E82EF12C0FC08B
:103B1000D501B1CFFE0125913591459154910E19F2
:103B20001F09C501B4010E943F1E4B015C01D50174
:103B3000C4010E151F0574F72497F594E794CC166D
:103B4000DD06A9F78A2F880F8B2F881F8F3F49F03A
:103B500020E030E0A901C501B4010E94D91D811106
:103B600006C082E290E09093D0048093CF04C50118
:103B7000B401CDB7DEB7ECE00C945C1F9927882721
:103B80000895FB01DC014150504088F08D91813453
:103B90001CF08B350CF4805E659161341CF06B3544
:103BA0000CF4605E861B611171F3990B0895881BFC
:103BB000FCCF0E941B1E08F481E00895E89409C020
:103BC00097FB3EF490958095709561957F4F8F4F50
:103BD0009F4F9923A9F0F92F96E9BB279395F69566
:103BE000879577956795B795F111F8CFFAF4BB0FE4
:103BF00011F460FF1BC06F5F7F4F8F4F9F4F16C048
:103C0000882311F096E911C0772321F09EE8872FD1
:103C1000762F05C0662371F096E8862F70E060E08D
:103C20002AF09A95660F771F881FDAF7880F969506
:103C3000879597F90895990F0008550FAA0BE0E8AA
:103C4000FEEF16161706E807F907C0F0121613065E
:103C5000E407F50798F0621B730B840B950B39F49E
:103C60000A2661F0232B242B252B21F408950A2604
:103C700009F4A140A6958FEF811D811D08950E9432
:103C8000521E0C94C31E0E94B51E38F00E94BC1E2A
:103C900020F0952311F00C94AC1E0C94B21E11244C
:103CA0000C94F71E0E94D41E70F3959FC1F3950FDC
:103CB00050E0551F629FF001729FBB27F00DB11DB0
:103CC000639FAA27F00DB11DAA1F649F6627B00D40
:103CD000A11D661F829F2227B00DA11D621F739F29
:103CE000B00DA11D621F839FA00D611D221F749F37
:103CF0003327A00D611D231F849F600D211D822F7E
:103D0000762F6A2F11249F5750409AF0F1F08823A4
:103D10004AF0EE0FFF1FBB1F661F771F881F9150D1
:103D20005040A9F79E3F510580F00C94AC1E0C94B6
:103D3000F71E5F3FE4F3983ED4F386957795679539
:103D4000B795F795E7959F5FC1F7FE2B880F911DFB
:103D50009695879597F9089597F99F6780E870E0A1
:103D600060E008959FEF80EC089500240A941616F1
:103D7000170618060906089500240A941216130659
:103D8000140605060895092E0394000C11F48823E7
:103D900052F0BB0F40F4BF2B11F460FF04C06F5F03
:103DA0007F4F8F4F9F4F089557FD9058440F551FD9
:103DB00059F05F3F71F04795880F97FB991F61F0AD
:103DC0009F3F79F087950895121613061406551F24
:103DD000F2CF4695F1DF08C0161617061806991F90
:103DE000F1CF86957105610508940895E894BB2785
:103DF00066277727CB0197F90895DB018F939F936F
:103E00000E942F1FBF91AF91A29F800D911DA39F74
:103E1000900DB29F900D11240895A1E21A2EAA1BB5
:103E2000BB1BFD010DC0AA1FBB1FEE1FFF1FA2176A
:103E3000B307E407F50720F0A21BB30BE40BF50B67
:103E4000661F771F881F991F1A9469F760957095F0
:103E5000809590959B01AC01BD01CF0108950E9412
:103E6000711FA59F900DB49F900DA49F800D911D73
:103E7000112408952F923F924F925F926F927F92FA
:103E80008F929F92AF92BF92CF92DF92EF92FF926A
:103E90000F931F93CF93DF93CDB7DEB7CA1BDB0B16
:103EA0000FB6F894DEBF0FBECDBF09942A883988BB
:103EB00048885F846E847D848C849B84AA84B984C2
:103EC000C884DF80EE80FD800C811B81AA81B981CE
:103ED000CE0FD11D0FB6F894DEBF0FBECDBFED01E2
:103EE0000895A29FB001B39FC001A39F700D811DD3
:103EF0001124911DB29F700D811D1124911D0895F3
:103F000097FB072E16F4009407D077FD09D00E9486
:103F10009A1F07FC05D03EF4909581959F4F089518
:103F2000709561957F4F0895EE0FFF1F0590F491F6
:103F3000E02D0994AA1BBB1B51E107C0AA1FBB1FA0
:103F4000A617B70710F0A61BB70B881F991F5A9525
:103F5000A9F780959095BC01CD0108955058BB27D5
:103F6000AA270E94C61F0C94C31E0E94B51E38F0DB
:103F70000E94BC1E20F039F49F3F19F426F40C94E3
:103F8000B21E0EF4E095E7FB0C94AC1EE92F0E94E4
:103F9000D41E58F3BA17620773078407950720F0F9
:103FA00079F4A6F50C94F61E0EF4E0950B2EBA2FBC
:103FB000A02D0B01B90190010C01CA01A00111242F
:103FC000FF27591B99F0593F50F4503E68F11A16DB
:103FD000F040A22F232F342F4427585FF3CF46956C
:103FE00037952795A795F0405395C9F77EF41F168E
:103FF000BA0B620B730B840BBAF09150A1F0FF0F58
:10400000BB1F661F771F881FC2F70EC0BA0F621F43
:10401000731F841F48F4879577956795B795F79533
:104020009E3F08F0B0CF9395880F08F09927EE0FC8
:104030009795879508950E942F200C94C31E0E9487
:10404000BC1E58F00E94B51E40F029F45F3F29F0D5
:104050000C94AC1E51110C94F71E0C94B21E0E94CD
:10406000D41E68F39923B1F3552391F3951B550B97
:10407000BB27AA2762177307840738F09F5F5F4F3B
:10408000220F331F441FAA1FA9F335D00E2E3AF07A
:10409000E0E832D091505040E695001CCAF72BD092
:1040A000FE2F29D0660F771F881FBB1F26173707E3
:1040B0004807AB07B0E809F0BB0B802DBF01FF2715
:1040C00093585F4F3AF09E3F510578F00C94AC1E28
:1040D0000C94F71E5F3FE4F3983ED4F386957795F2
:1040E0006795B795F7959F5FC9F7880F911D9695CE
:1040F000879597F90895E1E0660F771F881FBB1F2A
:10410000621773078407BA0720F0621B730B840BD6
:10411000BA0BEE1F88F7E09508950E9494206894EA
:10412000B1110C94F71E08950E94DC1E88F09F5771
:1041300098F0B92F9927B751B0F0E1F0660F771FCB
:10414000881F991F1AF0BA95C9F714C0B13091F0C1
:104150000E94F61EB1E008950C94F61E672F782F8A
:104160008827B85F39F0B93FCCF386957795679586
:10417000B395D9F73EF490958095709561957F4FF2
:104180008F4F9F4F08950E941B1E08F48FEF0895D4
:104190000E941B1E880B990B0895B0E0A0E0E3ED90
:1041A000F0E20C943C1F8C01009751F4CB010E946B
:1041B000C0218C01C801CDB7DEB7E0E10C94581FD7
:1041C000FC01E60FF71F9C0122503109E217F307AB
:1041D00008F49DC0D901CD91DC911197C617D7077E
:1041E00098F0C530D10530F3CE01049786179707B4
:1041F00008F3C61BD70B2297C193D1936D937C9381
:10420000CF010E945C22D6CF5B01AC1ABD0A4C01E3
:104210008C0E9D1EA091D304B091D404512C412C3E
:10422000F12CE12C109731F58091D1049091D204BA
:104230008815990509F05CC04616570608F058C065
:104240008091010190910201009741F48DB79EB7D2
:104250004091050150910601841B950BE817F90761
:1042600008F055C0F093D204E093D104F9017183B2
:104270006083A0CF8D919C91119712966C901297AC
:1042800013967C901397A815B90559F56C0142E077
:10429000C40ED11CCA14DB0420F1AC014A195B091D
:1042A000DA011296159780F06282738251834083FF
:1042B000D9016D937C93E114F10471F0D701139649
:1042C000FC93EE93129776CF22968C0F9D1FF901E7
:1042D00091838083F301EFCFF093D404E093D30470
:1042E00069CF4816590608F42C017D01D3019ACFF5
:1042F000CB010E94C0217C01009749F0AE01B801BA
:104300000E949321C8010E945C22870153CF10E0D4
:1043100000E050CF803209F091110C94BE1D805204
:104320008F55D8F70895FB01DC0102C001900D9272
:1043300041505040D8F70895FB01DC0101900D92E7
:104340000020E1F70895FB01DC014150504030F0BE
:104350008D910190801919F40020B9F7881B990BF1
:104360000895FB01DC014150504048F001900D924E
:104370000020C9F701C01D9241505040E0F7089558
:104380000F931F93CF93DF938230910510F482E057
:1043900090E0E091D304F091D40430E020E0B0E06C
:1043A000A0E0309799F42115310509F44AC0281B83
:1043B000390B24303105D8F58A819B81611571054F
:1043C00089F1FB0193838283FE0111C040815181F9
:1043D0000281138148175907E0F04817590799F4EB
:1043E000109761F012960C93129713961C933296C5
:1043F000CF01DF91CF911F910F9108950093D304C6
:104400001093D404F4CF2115310551F0421753070E
:1044100038F0A901DB019A01BD01DF01F801C1CF2C
:10442000EF01F9CF9093D4048093D304CDCFFE0154
:10443000E20FF31F8193919322503109398328832E
:10444000D7CF2091D1043091D204232B41F4209175
:104450000301309104013093D2042093D1042091C0
:104460000101309102012115310541F42DB73EB70C
:104470004091050150910601241B350BE091D104B8
:10448000F091D204E217F307A0F42E1B3F0B28177C
:10449000390778F0AC014E5F5F4F2417350748F0BD
:1044A0004E0F5F1F5093D2044093D1048193919398
:1044B0009FCFF0E0E0E09CCFCF93DF930097E9F04F
:1044C000FC01329713821282A091D304B091D404DC
:1044D000ED0130E020E01097A1F420813181820FBE
:1044E000931F2091D1043091D2042817390709F085
:1044F00061C0F093D204E093D104DF91CF9108958D
:10450000EA01CE17DF07E8F54A815B819E0141157C
:104510005105B1F7E901FB83EA8349915991C40F31
:10452000D51FEC17FD0761F4808191810296840FFD
:10453000951FE90199838883828193819B838A8374
:10454000F0E0E0E012968D919C9113970097B9F5F9
:104550002D913C911197CD010296820F931F2091CE
:10456000D1043091D2042817390739F6309751F524
:104570001092D4041092D304B093D204A093D10427
:10458000BCCFD383C28340815181840F951FC8174C
:10459000D90761F44E5F5F4F88819981480F591F99
:1045A000518340838A819B819383828321153105C6
:1045B00009F0B0CFF093D404E093D3049ECFFD0173
:0E45C000DC01C0CF13821282D7CFF894FFCF58
:1045CE00FF0000D50480003F065B4F666D7D077FC0
:1045DE006F777C395E79711008044020010200006B
:1045EE0000001B02EE01CB03C901E701D801CA018D
:1045FE000000000040049E03CE038704FF03DD038A
:10460E00F103544F4E494E4F3A000A0049495F5349
:10461E0043414E3A002000445F5343414E3A004717
:10462E0045544252494748544E4553533A00474524
:10463E005453414D504C494E473A00474554434D13
:10464E004F44453A0047455443414C494E49543A2C
:10465E00004745544C5444454C41593A0052455339
:10466E004554444546006E616E00696E66006F7675
:10467E0066004745545343414C494E473A0047451F
:10468E005443414C3A0053455443414C20455252F9
:10469E004F520053455443414C00534554534341EC
:1046AE004C494E47204552524F52005345545343A6
:1046BE00414C494E47005345544252494748544E87
:1046CE00455353204552524F52005345544252497E
:1046DE004748544E4553530053455453414D504C47
:1046EE00494E47204552524F520053455453414D67
:1046FE00504C494E4700534554434D4F4445204579
:10470E0052524F5200534554434D4F44450053456A
:10471E00544C5444454C4159204552524F5200532B
:10472E0045544C5444454C41590053455443414C17
:10473E00494E49540053455443414C494E49542027
:10474E004552524F5200312031203700544F4E49BE
:10475E004E4F0049495F5343414E00445F5343411E
:10476E004E0047455443414C005345545343414C2E
:10477E0049004745545343414C4900534554425216
:10478E00494748004745544252494748005345540B
:10479E0053414D504C0047455453414D504C0047EA
:1047AE004554434D4F44450053455443414C494EA7
:1047BE000047455443414C494E005345544C5444D4
:0C47CE00454C004745544C5444454C00F9
:00000001FF
