:100000000C947B000C94A3000C94A3000C94A3000C
:100010000C94A3000C94A3000C949B140C948013D8
:100020000C94A3000C94A3000C94A3000C94A300C4
:100030000C94A3000C94A3000C94A3000C94A300B4
:100040000C94F9130C94A3000C9469140C944314AD
:100050000C94A3000C94A3000C94A3000C94A30094
:100060000C9461120C94A3004E414E494E495459D0
:10007000494E46CDCCCC3D0AD7233C17B7D1387773
:10008000CC2B329595E6241FB14F0A000020410089
:1000900000C84200401C4620BCBE4CCA1B0E5AAED3
:1000A000C59D7400000000240027002A0000000005
:1000B00000250028002B00040404040404040402A6
:1000C00002020202020303030303030102040810F5
:1000D00020408001020408102001020408102000C2
:1000E00000000800020100000304070000000000F7
:1000F00000000000B21411241FBECFEFD8E0DEBF15
:10010000CDBF24E0ACE0B3E001C01D92AF3FB20729
:10011000E1F713E0A0E0B1E0E4E3F7E402C005900A
:100120000D92AC30B107D9F710E0CBE7D0E004C0B6
:100130002197FE010E945B20CA37D107C9F70E94B0
:100140005C150C9498230C94000020916F03260FEB
:100150003327331F21323105ECF42091CB03FC010E
:1001600090E080E0243069F082E00895A0916F0370
:100170002191AC01435B5C4FA40FB52FB11D2C93B3
:100180000196861798F380916F03680F60936F0351
:1001900080E0089581E00895089508950895E0911C
:1001A0004B0380914A03E81730F4F0E0E65DFC4F22
:1001B000808190E008958FEF9FEF089590914B0319
:1001C00080914A032FEF3FEF981748F4E92FF0E0B2
:1001D000E65DFC4F208130E09F5F90934B03C901A7
:1001E000089580914A0390914B03891B990B0895C0
:1001F000CF92DF92EF92FF920F931F93CF93DF93F3
:100200007C01CB018A012091D103222389F0EB01EB
:100210006B01C40ED51ECC15DD0569F06991D701BF
:10022000ED91FC910190F081E02DC7010995F3CF8C
:10023000642F0E94A500C801DF91CF911F910F91FB
:10024000FF90EF90DF90CF900895CF93DF931F92B0
:10025000CDB7DEB769832091D1032223F9F0209135
:10026000F403203258F021E030E0FC013383228394
:1002700090E080E00F90DF91CF9108958091D203BC
:10028000E82FF0E0ED52FC4F998190838F5F8093CF
:10029000D2038093F40381E090E0ECCF61E0CE01E3
:1002A00001960E94A500F7CF682F85EF93E00C948C
:1002B000250190E0FC01E152FF4F2491FC01E55340
:1002C000FF4F3491FC01E954FF4FE491EE23C9F054
:1002D000222339F0233001F1A8F4213019F1223022
:1002E00029F1F0E0EE0FFF1FE355FF4FA591B49108
:1002F0008FB7F894EC91611126C030953E233C9362
:100300008FBF08952730A9F02830C9F0243049F76D
:10031000809180008F7D03C0809180008F778093D3
:100320008000DFCF84B58F7784BDDBCF84B58F7D30
:10033000FBCF8091B0008F778093B000D2CF8091B7
:10034000B0008F7DF9CF3E2BDACF1092CB0381E046
:100350008093CA031092A50361E082E10E945901D3
:1003600061E083E10E945901E9EBF0E080818E7F3A
:10037000808380818D7F808388E48093B80085E4CA
:100380008093BC000895CF93DF9391E090934C034A
:100390008823B9F0C091B800D091BA008091BC0018
:1003A0008A7B8093BC0060E082E10E94590160E09A
:1003B00083E10E9459010E94A501D093BA00C09325
:1003C000B800DF91CF910895CF93DF9390E0FC01C7
:1003D000E553FF4F249189549F4FFC01849188235A
:1003E000D1F090E0880F991FFC01ED55FF4FA591CA
:1003F000B491FC01E355FF4FC591D49161110EC03A
:100400009FB7F8948C91E22FE0958E238C932881EE
:10041000E223E8839FBFDF91CF9108958FB7F894CF
:10042000EC91E22BEC938FBFF6CF3FB7F89480911D
:10043000170390911803A0911903B0911A0326B5E0
:10044000A89B05C02F3F19F00196A11DB11D3FBF0C
:10045000BA2FA92F982F8827BC01CD01620F711DDB
:10046000811D911D42E0660F771F881F991F4A95D5
:10047000D1F70895CF92DF92EF92FF920F931F93DF
:10048000CF93DF93D091F40381E0D13208F09CC088
:10049000C091F3030E9415026B017C018091CB0394
:1004A00081116CC082E08093CB0381E08093CA030A
:1004B0008FEF8093C9031092C803D093C703A3EDB5
:1004C000B3E0E7EAF3E080E0D8138DC01092A60312
:1004D0008091A603CC0FC82BC093A6038091A503DF
:1004E000813009F084C01092A5030E9415026B01AF
:1004F0007C018091A6038093BB008091CD039091F5
:10050000CE03A091CF03B091D003892B8A2B8B2BE4
:10051000A1F00E9415020091CD031091CE0320910D
:10052000CF033091D0036C197D098E099F090617FE
:1005300017072807390708F442C08091BC0083FDE3
:10054000D8CF85EC8093BC000E9415026B017C0122
:100550008091CB03823009F44CC08091C9038F3F56
:1005600009F469C08091C903803209F466C08091A2
:10057000C903803309F463C084E026C08091CD03B1
:100580009091CE03A091CF03B091D003892B8A2BF9
:100590008B2B09F483CF0E9415020091CD0310919B
:1005A000CE032091CF033091D0036C197D098E09C1
:1005B0009F09061717072807390708F06FCF8091A2
:1005C000CC030E94C30185E01092D2031092F40381
:1005D0001092D103DF91CF911F910F91FF90EF9077
:1005E000DF90CF9008959D9191938F5F6DCF85EEB1
:1005F000A9CF8091CD039091CE03A091CF03B0916C
:10060000D003892B8A2B8B2B09F4A2CF0E941502D1
:100610000091CD031091CE032091CF033091D003F0
:100620006C197D098E099F090617170728073907D6
:1006300008F08ECFC4CF80E0C7CF82E0C5CF83E083
:10064000C3CF1F93CF93DF938091A40391E0909346
:10065000D1038093F3031092D2031092F40360E06D
:1006600085EF93E00E942501C4E9D3E068811981F8
:10067000229685EF93E00E942501612F85EF93E09C
:100680000E94250183E0C43AD80781F7DF91CF911A
:100690001F910C943A02E4E9F3E089E390E091833E
:1006A000808387E790E09383828388E390E0978359
:1006B00086838BE590E0918780870C9421038F924D
:1006C0009F92AF92BF92CF92DF92EF92FF926B0117
:1006D0007C010E9415024B015C01C114D104E104AC
:1006E000F104B9F00E941502681979098A099B0979
:1006F000683E73408105910580F321E0C21AD1085C
:10070000E108F10888EE880E83E0981EA11CB11C58
:10071000E4CFFF90EF90DF90CF90BF90AF909F908D
:100720008F9008952FB7F89460911303709114037C
:1007300080911503909116032FBF0895AF92BF9239
:10074000CF92DF92EF92FF920F931F93CF93DF939D
:100750006C017B018B01040F151FEB015E01AE18CC
:10076000BF08C017D10759F06991D601ED91FC91EE
:100770000190F081E02DC6010995892B79F7C5011B
:10078000DF91CF911F910F91FF90EF90DF90CF906D
:10079000BF90AF90089590E080E00895FC01538DE4
:1007A000448D252F30E0842F90E0821B930B54174B
:1007B00010F0CF96089501970895FC01918D828DD8
:1007C000981761F0A28DAE0FBF2FB11D5D968C9171
:1007D000928D9F5F9F73928F90E008958FEF9FEFB0
:1007E0000895FC01918D828D981731F0828DE80F6C
:1007F000F11D858D90E008958FEF9FEF0895FC0126
:10080000918D228D892F90E0805C9F4F821B9109F2
:100810008F739927089581E094E00E94FF0321E0FF
:10082000892B09F420E0822F089580E090E0892B45
:1008300029F00E940B0481110C9400000895FC0122
:10084000A48DA80FB92FB11DA35ABF4F2C91848D31
:1008500090E001968F739927848FA689B7892C938E
:10086000A089B1898C91837080648C93938D848DE1
:10087000981306C00288F389E02D80818F7D8083E4
:100880000895EF92FF920F931F93CF93DF93EC01A4
:1008900081E0888F9B8D8C8D98131AC0E889F98927
:1008A000808185FF15C09FB7F894EE89FF8960832A
:1008B000E889F98980818370806480839FBF81E0AB
:1008C00090E0DF91CF911F910F91FF90EF900895ED
:1008D000F62E0B8D10E00F5F1F4F0F731127E02EC8
:1008E0008C8D8E110CC00FB607FCFACFE889F98900
:1008F000808185FFF5CFCE010E941F04F1CFEB8DE3
:10090000EC0FFD2FF11DE35AFF4FF0829FB7F894D3
:100910000B8FEA89FB8980818062CFCFCF93DF93F1
:10092000EC01888D8823B9F0AA89BB89E889F98907
:100930008C9185FD03C0808186FD0DC00FB607FC3C
:10094000F7CF8C9185FFF2CF808185FFEDCFCE016F
:100950000E941F04E9CFDF91CF910895CF93DF93D9
:10096000EC0160E070E0CB010E945F036C8170E0FD
:1009700088EE93E00E943320109227031092260302
:100980001092290310922803109220031092210341
:10099000109222031092230310921B038091800077
:1009A0008093110380918100809310031092810045
:1009B00010928000109285001092840081E086BB26
:1009C00010926F008091B00080930F038091B1006E
:1009D00080930E031092B10082E08093B000CB01AF
:1009E00087709927892B09F059C023E07695679580
:1009F0002A95E1F78CE78093B30087E080930D039D
:100A000082E087BB1092B2007093250360932403A9
:100A10009FB7F89483BD20910D032093B10080937C
:100A200070008BE08150F1F787E0809381009FBFD9
:100A300080911B038823E1F31092B10010927000A3
:100A400080910F038093B00080910E038093B100DA
:100A50001092810080911103809380008091100397
:100A6000809381008FB7F89420911C0330911D036F
:100A700040911E0350911F0310921B038FBFAC8146
:100A8000B0E00E94E21F2EE130E040E050E00E9422
:100A9000C01FCA01B901DF91CF910895CB018370C6
:100AA0009927892B49F4769567957695679589EF0F
:100AB0008093B30086E0A2CF60FD04C07695679571
:100AC0008CE7F6CF8CE78093B30085E097CFCF9388
:100AD000DF93EC0160E08A810E94590160E08B8124
:100AE0000E94590160E089810E94590160E088817B
:100AF000DF91CF910C945901CF92DF92EF92FF9248
:100B0000CF93C091DE0484E68093DE0460E08091A0
:100B1000DB040E94590161E08091DA040E945901CE
:100B200061E08091DC040E94590160E08091DD0465
:100B30000E94590161E070E080E090E00E945F0354
:100B40008AED94E00E94AE046B017C018AED94E092
:100B50000E946705C093DE0481E098ECC916D104B9
:100B6000E104F10408F480E0CF91FF90EF90DF9072
:100B7000CF9008958F929F92AF92BF92CF92DF92C3
:100B8000EF92FF92CF936B017C01AC019B010E941D
:100B90007B2181114CC046015701E894B7F82FEF33
:100BA0003FEF4FE75FE7C501B4010E947B21811150
:100BB0000AC02FEF3FEF4FE75FE7C501B4010E9486
:100BC000761E1816A4F12FEF3FEF4FE75FE4C70141
:100BD000B6010E947621181654F12FEF3FEF4FE730
:100BE0005FECC701B6010E94761E87FD20C020E0A1
:100BF00030E040E05FE4C701B6010E94761EC1E02C
:100C0000882351F020E030E040E05FECC701B601FE
:100C10000E94761E8111C0E08C2FCF91FF90EF9043
:100C2000DF90CF90BF90AF909F908F900895C1E0DC
:100C3000F3CFFC0160838091A40391E09093D103F2
:100C40008093F3031092D2031092F403606E862F08
:100C500090E00E9454010C943A02E4E9F3E011821E
:100C600010821382128217821682118610860C94CB
:100C70002103E4E9F3E080E490E0918380839383AF
:100C8000828397838683918780870C942103411503
:100C9000510529F4EAE7F0E080818F7780836A309C
:100CA0007105B9F0CB01880F991F880F991F8072C9
:100CB00067706860682B88E10FB6F894A8958093F8
:100CC00060000FBE60936000E0E6F0E08081806429
:100CD0008083232BD9F483B7817F846083BFF8940A
:100CE00083B7816083BF85B7806685BF8F7D85BFF1
:100CF0007894889583B78E7F83BF7894452B29F4A9
:100D0000EAE7F0E0808180688083089583B7817F7F
:100D1000846083BFF89483B7816083BF789488959B
:100D200083B78E7F83BF7894E9CFCF92DF92EF9223
:100D3000FF921F93CF93DF93182F6A017B010E94CC
:100D400092036C197D098E099F09613E73498440A5
:100D5000910508F43FC088EF94E00E942D06C8E793
:100D6000D1E030E020E050E040E068E070E08CE06E
:100D700093E00E94470681E094E00E94FF0318166A
:100D800019066CF488EF94E00E943906DF91CF9148
:100D90001F91FF90EF90DF90CF900C949203111170
:100DA00050C00E947C058111EDCF21971C161D06B5
:100DB000C4F264EF71E080E090E00E945F0330E0F5
:100DC00020E050E040E06AE070E08CE093E00E94B8
:100DD0004706C7CF0E94920320910001AB01BC01DE
:100DE0004C195D096E097F09413C544D6140710504
:100DF000D8F027FF0FC0E091D604F091D70480E02F
:100E0000309709F080818093000161E088EF94E0E1
:100E10000E941906C701B601DF91CF911F91FF9083
:100E2000EF90DF90CF90089527FDF4CF20312CF480
:100E3000622F88EF94E00E9419068FEF80930001E3
:100E4000E9CF0E947C058111B0CF9CCF2F923F92B9
:100E50004F925F926F927F928F929F92AF92BF92CA
:100E6000CF92DF92EF92FF920F931F93CF93DF9376
:100E7000CDB7DEB768970FB6F894DEBF0FBECDBF13
:100E80007C011B016A01B22E19821A821B821C820C
:100E90001D821E821F82188619861A861B861C8652
:100EA0001D861E861F86188A198A1A8A1B8A1C8A22
:100EB0008091D2049091D304009711F00E942D06E6
:100EC00061E0F70180810E945901BB2029F061E0B7
:100ED000F70181810E94590161E070E080E090E0BB
:100EE0000E945F03F701858180FF10C061E082816D
:100EF0000E94590160E0F70183810E945901C701F6
:100F00000E94AE0469837A838B839C83F701858179
:100F100081FF1FC060E082810E94590160E0F701FB
:100F200083810E945901F701B4808B2D90E0880FD6
:100F3000991F8536910514F084E690E0F7018483CB
:100F4000C7010E94AE046D837E838F839887F7016B
:100F5000B482F701858183FF10C060E082810E9426
:100F6000590161E0F70183810E945901C7010E9484
:100F7000AE046D877E878F87988BF701858182FF0E
:100F800010C061E082810E94590161E0F701838114
:100F90000E945901C7010E94AE0469877A878B8736
:100FA0009C87C7010E9467058D849E84AF84B888A2
:100FB0006FEF7FEFCB0181149104A104B10409F418
:100FC000C4C06D817E818F8198850E947D1E2B011A
:100FD0003C01C501B4010E947D1E9B01AC01C3010F
:100FE000B2010E94CE20F70126893789408D518DAC
:100FF0000E94DC1EF701228D338D448D558D0E9499
:1010000062204B015C012114310459F1F10140804F
:1010100051806280738020E030E0A901C301B201F9
:101020000E94761E8823E9F0A3019201C501B40154
:101030000E9461206D8B7E8B8F8B988F20E030E03B
:10104000A9010E947621181694F428E539E344E3B7
:101050005DE36D897E898F89988D0E94761E87FD5C
:1010600012C00115110519F1F801108220C028E500
:1010700039E344E35DEB6D897E898F89988D0E9409
:101080007621181674F7A3019201C501B4010E94DC
:10109000622020E030E040E05FE30E94DC1E4B0174
:1010A0005C010115110519F081E0F8018083F70159
:1010B0002681378140855185C501B4010E94DC1E1F
:1010C000A50194010E94DC1EA50194010E94DC1E72
:1010D0002B013C01F7012285338544855585C501E7
:1010E000B4010E94DC1EA50194010E94DC1E9B013C
:1010F000AC01C301B2010E9462202B013C01F70147
:101100002685378540895189C501B4010E94DC1EBE
:101110009B01AC01C301B2010E946220F701228948
:101120003389448955890E94622020E030E040E004
:101130005FE30E9462200E9440212114310429F0C3
:10114000F10180829182A282B382C114D104B1F0F4
:10115000DE011196F6019601205F3F4F8D909D9024
:10116000AD90BD9081929192A192B1922E173F07BE
:10117000A9F7F601608B718B828B938B68960FB603
:10118000F894DEBF0FBECDBFDF91CF911F910F91BD
:10119000FF90EF90DF90CF90BF90AF909F908F9097
:1011A0007F906F905F904F903F902F900895E4E96B
:1011B000F3E089E790E09183808393838283978330
:1011C0008683918780870C9421033F924F925F9290
:1011D0006F927F928F929F92AF92BF92CF92DF9247
:1011E000EF92FF920F931F93CF93DF9300D000D025
:1011F0001F92CDB7DEB79C01CB0168EE73E00E9471
:101200003320695F7E4FDB010C91098364E670E057
:101210000E943320695F7E4FFB0110811A836AE0D0
:1012200070E00E943320695F7E4FDB014C914C835C
:10123000FC01E95FFE4F80818D830F3339F4198201
:101240001F3321F41A824F3309F41C82C9010E9412
:101250002D06FE0131966F0134E9E32E33E0F32EC3
:1012600010E000E0312C2F014DE1642E41E0742E9E
:1012700050E1852E912C0230110561F10115110507
:1012800009F054C090929503809294030E94210328
:101290006AE070E080E090E00E945F0387E1A82EA2
:1012A00081E0B82ED5018D915D01F60190818923F1
:1012B000382A8C91832990E0D7018D939C930E94CA
:1012C00021036AE070E080E090E00E945F036A140E
:1012D0007B0441F70F5F1F4FBFEFCB1ADB0AE2E041
:1012E000EE0EF11C0530110531F68D81827080689B
:1012F000832990E090939D0380939C030F900F901F
:101300000F900F900F90DF91CF911F910F91FF9051
:10131000EF90DF90CF90BF90AF909F908F907F9095
:101320006F905F904F903F900C942103C8010197FC
:101330000330110511F481E090E0FC01EE0FFF1F76
:10134000EC56FC4F840D951DDC018C918270832935
:1013500090E091838083F701918280820E94210333
:101360006AE070E080E090E00E945F03312C96CF4D
:10137000BF92CF92DF92EF92FF920F931F93CF9382
:10138000DF937C018B01CB0189519C4F873F9A42AF
:1013900018F0C7010E94D70817FF2BC011950195BF
:1013A0001109BB24B394C4E08AE0C82ED12CDC2FF1
:1013B000C150D53030F4C801B6010E9433208031CD
:1013C00058F1C7010E94D708C23011F4CEEFCD0FFB
:1013D000C801B6010E9433208B01672B41F7BB2067
:1013E00091F0EC2FC150E53028F1C7010E94D708D9
:1013F0000AC001151105E1F58FE390E090939D037C
:1014000080939C03C3E0C7FD28C0C530ECF0C70142
:101410000E94D708C150F7CFED2FF0E0EE0FFF1F6D
:10142000EC56FC4F895F9E4FDC018C9190E09183DC
:101430008083CACFF0E0EE0FFF1FEC56FC4F80E434
:1014400090E091838083DFCFEC2FF0E0EE0FFF1F61
:10145000EC56FC4F11821082DDCFDF91CF911F91AE
:101460000F91FF90EF90DF90CF90BF900C942103ED
:10147000B12C99CF0F931F93CF93DF931F92CDB7CA
:10148000DEB719828E010F5F1F4F21E050E040E070
:10149000BC018AED94E00E94260797FF22C06931C3
:1014A0002CEF72072FEF82079207B4F488EF94E0D5
:1014B0000E94390680919403998190FB87F990E00E
:1014C00090939503809394030E9421030F90DF91E2
:1014D000CF911F910F91089588EF94E00E94B80971
:1014E000E9CF603127E2720781059105FCF688EFAC
:1014F00094E00E94E508DECFEF92FF920F931F93D6
:10150000CF93DF93C82FD62F0AE010E0C8010E94C6
:101510009A1F8A3221F06AE2C8010E94A21F025E6D
:101520001F4F0436110591F70AE50C0F10E0EC2E61
:10153000F12CC7010E949A1FD81729F06D2FC701FF
:101540000E94A21F11E0C25E0C13F1CF812FDF9128
:10155000CF911F910F91FF90EF900895CF92DF925E
:10156000FF920F931F93CF93DF9300D01F92CDB7BD
:10157000DEB7182F90E00E949A1F082F89838EE112
:10158000810F90E00E949A1FF82E8A838CE3810FCE
:1015900090E00E949A1F8B83DE01119640E050E09C
:1015A00020E0BD013D91222339F06B01C50ED11C15
:1015B000F6019081391769F091E0301390E03F1106
:1015C00001C09F5F381301C09F5F491710F4522F6D
:1015D000492F2F5F233031F7FB01E50FF11D00810B
:1015E000433021F0602F812F0E947C0A802F0F90C2
:1015F0000F900F90DF91CF911F910F91FF90DF908F
:10160000CF900895FC0164838EE00C947C0A2FEF48
:10161000260F2F3020F4DC01ED91FC9165838DE0E5
:101620000C947C0ACF93FC0182819381009751F046
:10163000C62F603110F40E9419066C2F8CE0CF91F8
:101640000C947C0ACF910895DC01ED91FC918FEF11
:10165000860F843628F0848184838BE00C947C0A86
:10166000862FFACFAF92BF92CF92DF92EF92FF9286
:101670000F931F93CF93DF9300D000D0CDB7DEB789
:101680007B01DC01ED91FC913696CB014096DB01AC
:101690004D915D916D917D914193519361937193C2
:1016A000A817B907A9F718E15E01B5E0AB0EB11CA8
:1016B000F70181919191A191B1917F0189839A83E1
:1016C000AB83BC83CE0101966C01012FD6016D91D5
:1016D0006D01802F0E947C0A0F5FAC14BD04B1F72E
:1016E0001C5F183229F70F900F900F900F90DF9129
:1016F000CF911F910F91FF90EF90DF90CF90BF900F
:10170000AF900895AF92BF92CF92DF92EF92FF9287
:101710001F93CF93DF9300D000D0CDB7DEB77B010E
:10172000DC012D913C91FB0180819181A281B381EB
:10173000F901868B978BA08FB18FFB0184819581F6
:10174000A681B781F901828F938FA48FB58FFB019A
:1017500080819181A281B38189839A83AB83BC8389
:10176000CE0101966C015C0110E1D5016D915D0126
:10177000812F0E947C0A1F5F1431B9F7F701848121
:101780009581A681B78189839A83AB83BC83D60177
:101790006D916D01812F0E947C0A1F5F1831B9F78E
:1017A0000F900F900F900F90DF91CF911F91FF90AE
:1017B000EF90DF90CF90BF90AF9008950F931F935D
:1017C000CF93DF93CDB7DEB760970FB6F894DEBF47
:1017D0000FBECDBF8C0162E00E94240B65E0C80102
:1017E0000E94120B6AE0C8010E94070B61E0C80169
:1017F0000E94020B8AE0F80185836AE08FE00E9474
:101800007C0A8BE897E8A1E8BFE389839A83AB83DE
:10181000BC838FE19DEBA1ECBDEB8D839E83AF83F9
:10182000B887BE016F5F7F4FC8010E94820B19828B
:101830001A821B821C821D821E821F82188683EAE6
:101840009BE8ACECB2E489879A87AB87BC878AEBCC
:1018500098E6A0E0B3EC8D879E87AF87B88BBE017A
:101860006F5F7F4FC8010E94320B60960FB6F894ED
:10187000DEBF0FBECDBFDF91CF911F910F910895B5
:10188000DF92EF92FF920F931F93CF93DF937C0130
:101890008B01CEE9D4E08A8190E001962BE0D22E34
:1018A000D89EB001D99E700D1124888199810E9423
:1018B0008021998388832A8148E050E0B7012D9DDB
:1018C000800D911D11240E9464228A81E881F98192
:1018D0008D9DE00DF11D1124128701878F5F8A8392
:1018E000DF91CF911F910F91FF90EF90DF900895BE
:1018F000FC0101900020E9F73197AF01481B590B1B
:10190000BC0181E094E00C949E038F929F92AF9271
:10191000BF920F931F93CF93DF93CDB7DEB7A197FD
:101920000FB6F894DEBF0FBECDBF19A2423008F447
:101930004AE08E010F5D1F4F842E912CB12CA12CFB
:10194000A50194010E94C01FE62FB901CA01EA3027
:10195000F4F4E05DD801EE938D01232B242B252B8D
:1019600079F790E080E0109719F0CD010E94780C93
:10197000A1960FB6F894DEBF0FBECDBFDF91CF9119
:101980001F910F91BF90AF909F908F900895E95C49
:10199000E1CFCF92DF92EF92FF92CF93DF9397FF49
:1019A0001BC06B017C016DE281E094E00E94410468
:1019B000EC0166277727CB016C197D098E099F09F9
:1019C0004AE00E94850C8C0F9D1FDF91CF91FF9004
:1019D000EF90DF90CF9008954AE0DF91CF91FF9094
:1019E000EF90DF90CF900C94850C009711F00C9441
:1019F000780C90E080E0089582E491E00E94F50C7C
:101A00008091CA049091CB040E94F50C8AE491E085
:101A10000E94F50CE4E9F3E083E790E09183808392
:101A200089E390E093838283178216821186108661
:101A30000C942103CF92DF92EF92FF920F931F93AA
:101A400010E000E021E050E040E070E060E08091D4
:101A5000D0049091D1040E9426076B017C0189E596
:101A600091E00E94F50CC701B6010E94C90C8AE4FE
:101A700091E00E94F50C8091CE049091CF0420E17A
:101A8000C21627E2D206E104F10440F01F910F9143
:101A9000FF90EF90DF90CF900C943906B6011F9124
:101AA0000F91FF90EF90DF90CF900C94E508AF92EC
:101AB000BF92CF92DF92EF92FF920F931F93CF933B
:101AC000DF93CDB7DEB764970FB6F894DEBF0FBED5
:101AD000CDBF10E000E021E0AE014F5F5F4F70E04E
:101AE00060E08091D0049091D1040E9426076B01A0
:101AF0007C018CE491E00E94F50C8E010F5F1F4F7A
:101B00005E0125E1A20EB11CF801619171918191F4
:101B100091918F010E94C90C85E591E00E94F50C1E
:101B20000A151B0589F78AE491E00E94F50C809163
:101B3000CE049091CF04B701A60149515C4F6F4F7D
:101B40007F4F473F5A426105710598F00E94390660
:101B500064960FB6F894DEBF0FBECDBFDF91CF9174
:101B60001F910F91FF90EF90DF90CF90BF90AF90BB
:101B70000895B6010E94B809EBCFEF92FF920F9340
:101B80001F93CF93DF93CDB7DEB764970FB6F8946A
:101B9000DEBF0FBECDBF10E000E020E0AE014F5F22
:101BA0005F4F70E060E08091D0049091D1040E947A
:101BB000260787E591E00E94F50C8E010F5F1F4F0D
:101BC0007E0181E1E80EF11CF80161917191819132
:101BD00091918F010E94C90C85E591E00E94F50C5E
:101BE0000E151F0589F78AE491E00E94F50C6496B2
:101BF0000FB6F894DEBF0FBECDBFDF91CF911F911E
:101C00000F91FF90EF9008958FE591E00E94F50C01
:101C1000E091CE04F091CF04608170E090E080E02C
:101C20004AE00E94850C8AE491E00C94F50C8EE663
:101C300091E00E94F50CE091D004F091D104648110
:101C400070E090E080E04AE00E94850C8AE491E038
:101C50000C94F50C8BE791E00E94F50CE091D00418
:101C6000F091D104658170E090E080E04AE00E944C
:101C7000850C8AE491E00C94F50C85E891E00E94D3
:101C8000F50CE091CC04F091CD04648170E090E01B
:101C900080E00E94C90C8AE491E00C94F50C81E983
:101CA00091E00E94F50CE091CC04F091CD046581A7
:101CB00070E090E080E04AE00E94850C8AE491E0C8
:101CC0000C94F50C8091CC049091CD040E94DE0B15
:101CD0008DE991E00E94F50C8AE491E00C94F50CFA
:101CE0004F925F926F927F928F929F92AF92BF922C
:101CF000CF92DF92EF92FF920F931F93CF936B01DE
:101D00007C01742EAC019B010E947B21882399F0F9
:101D100086EA91E0CF911F910F91FF90EF90DF90B5
:101D2000CF90BF90AF909F908F907F906F905F907B
:101D30004F900C94780C46015701E894B7F82FEFB8
:101D40003FEF4FE75FE7C501B4010E947B2181119E
:101D50000DC02FEF3FEF4FE75FE7C501B4010E94D1
:101D6000761E18161CF48AEA91E0D4CF2FEF3FEFCD
:101D70004FE75FE4C701B6010E94762118161CF4F4
:101D80008EEA91E0C7CF2FEF3FEF4FE75FECC7013F
:101D9000B6010E94761E87FDF3CF20E030E0A90156
:101DA000C701B6010E94761E10E000E087FF0AC05E
:101DB0006DE281E094E00E9441048C01F7FAF09416
:101DC000F7F8F094C0E060E070E080E09FE37C16FC
:101DD00041F020E030E040E251E40E94CE20CF5FAD
:101DE000F6CFA70196010E9462202B013C010E94C0
:101DF00047214B015C014AE00E94850C7C01E00E0A
:101E0000F11ECC23C1F1C501B4010E947B1E9B01D0
:101E1000AC01C301B2010E9461204B015C016EE282
:101E200081E094E00E944104E80EF91EC15018F1CF
:101E300020E030E040E251E4C501B4010E94DC1E24
:101E40002B013C010E9447214B01B12CA12C4AE0FF
:101E5000C501B4010E94850CE80EF91EC501B4014C
:101E60000E947B1E9B01AC01C301B2010E94612054
:101E70004B015C01DBCFC701CF911F910F91FF9008
:101E8000EF90DF90CF90BF90AF909F908F907F901A
:101E90006F905F904F900895CF92DF92EF92FF92F4
:101EA0000F931F93CF93DF9300D000D0CDB7DEB751
:101EB00019821A821B821C8210E000E021E050E0AF
:101EC00040E0BE016F5F7F4F8091D0049091D104BC
:101ED0000E9426076B017C018DE491E00E94F50CC5
:101EE00069817A818B819C8146E00E94700E8AE430
:101EF00091E00E94F50CB701A60149515C4F6F4F6C
:101F00007F4F8091CE049091CF04473F5A426105A4
:101F1000710578F00E9439060F900F900F900F9086
:101F2000DF91CF911F910F91FF90EF90DF90CF90B5
:101F30000895B6010E94B809EFCFEF92FF920F9378
:101F40001F93CF93DF93CDB7DEB760970FB6F894AA
:101F5000DEBF0FBECDBFE091D004F091D1048681E9
:101F60009781A085B18589839A83AB83BC83828561
:101F70009385A485B5858D839E83AF83B887868539
:101F80009785A089B18989879A87AB87BC87828921
:101F90009389A489B5898D879E87AF87B88B82EB9B
:101FA00091E00E94F50C8E010F5F1F4F7E0181E1D1
:101FB000E80EF11CF80161917191819191918F016D
:101FC00046E00E94700E85E591E00E94F50C0E152A
:101FD0001F0581F78AE491E060960FB6F894DEBFA2
:101FE0000FBECDBFDF91CF911F910F91FF90EF906A
:101FF0000C94F50C8F929F92AF92BF92CF92DF928A
:10200000EF92FF92E091D004F091D10486889788F6
:10201000A08CB18CC28CD38CE48CF58C8EEB91E0CF
:102020000E94F50C46E0C501B4010E94700E85E5E2
:1020300091E00E94F50C46E0C701B6010E94700EC7
:1020400085E591E00E94F50C8AE491E0FF90EF9025
:10205000DF90CF90BF90AF909F908F900C94F50C35
:1020600048EC54E063EA74E090E080E00C94DC1CFF
:1020700085ED8093BC008091CD039091CE03A0911B
:10208000CF03B091D0030796A11DB11D23E0B695F3
:10209000A795979587952A95D1F72091BC0024FDA7
:1020A00003C01092CB0308954091CD035091CE030D
:1020B0006091CF037091D003452B462B472B69F3DA
:1020C0000097A105B10541F025E32A95F1F700003D
:1020D0000197A109B109E1CF8091CC030C94C30110
:1020E000CF93DF93CDB7DEB728970FB6F894DEBF56
:1020F0000FBECDBF0E9430100E94B11C69837A834D
:102100008B839C830E94BA0581110CC00E94301001
:102110000E94B11C6D837E838F8398870E94BA05CD
:10212000882389F086EC91E00E94F50C8AE491E026
:102130000E94F50C28960FB6F894DEBF0FBECDBFF7
:10214000DF91CF910895BE016F5F7F4F8091CC04E6
:102150009091CD040E94820B83ED91E0E5CFCF9268
:10216000DF92EF92FF920F931F93CF93DF93CDB740
:10217000DEB760970FB6F894DEBF0FBECDBF8E01FD
:102180000F5F1F4F6E0181E1C80ED11C78010E94C4
:1021900030100E94B11CF801619371938193919367
:1021A0008F010E94BA058823B9F08AED91E00E9460
:1021B000F50C8AE491E00E94F50C60960FB6F89455
:1021C000DEBF0FBECDBFDF91CF911F910F91FF906A
:1021D000EF90DF90CF9008950C151D05C1F6B70163
:1021E0008091CC049091CD040E94320B8BEE91E053
:1021F000DECFCF92DF92EF92FF920E9430104AE042
:1022000050E070E060E00E949A1B6B017C010E942C
:102210007D1E0E94BA05882361F086EF91E00E943E
:10222000F50C8AE491E0FF90EF90DF90CF900C9452
:10223000F50C80E1C816D104E104F10470F76C2DAF
:102240008091CC049091CD040E94120B8AE092E020
:10225000E6CFCF92DF92EF92FF920E9430104AE0D9
:1022600050E070E060E00E949A1B6B017C010E94CC
:102270007D1E0E94BA05882361F088E192E00E94E9
:10228000F50C8AE491E0FF90EF90DF90CF900C94F2
:10229000F50CD701C6010197A109B1098436910552
:1022A000A105B10550F76C2D8091CC049091CD041F
:1022B0000E94240B8AE292E0E2CFCF92DF92EF926B
:1022C000FF920E9430104AE050E070E060E00E940F
:1022D0009A1B6B017C010E947D1E0E94BA05882317
:1022E00061F086E392E00E94F50C8AE491E0FF90B1
:1022F000EF90DF90CF900C94F50CD701C6010197B9
:10230000A109B1090F97A105B10558F76C2D80916E
:10231000CC049091CD040E94070B85E492E0E3CFBA
:10232000CF92DF92EF92FF920E9430104AE050E08D
:1023300070E060E00E949A1B6B017C010E947D1E90
:102340000E94BA05882361F08EE492E00E94F50CA9
:102350008AE491E0FF90EF90DF90CF900C94F50C21
:102360008FEFC816D104E104F10409F068F7E09199
:10237000CC04F091CD04C5826C2D8FE00E947C0AC4
:102380008FE592E0E3CFCF93DF930E9430100E945D
:10239000B51CEC010E943010892BA9F4C230D10584
:1023A00090F46C2F61708091CC049091CD040E94C8
:1023B000020B8AE692E00E94F50C8AE491E0DF913C
:1023C000CF910C94F50C85E792E0F5CFAF92BF92D8
:1023D000CF92DF92EF92FF920F931F93CF93DF93F1
:1023E00081E094E00E94FF03181619060CF05DC00E
:1023F00081E094E00E94DD03C82F8091A504C813FA
:1024000038C048EC54E063EA74E086EA94E00E9445
:10241000DC1C8C01892BD9F0C090A004D12CC09178
:102420009E04D0919F04F12CE12CEC14FD04C4F423
:102430005E0148E050E0BE01C8010E9456222B9682
:10244000892B51F4D5011996ED91FC9109951092C3
:10245000A6041092C704C4CFBFEFEB1AFB0AE5CF66
:10246000E091A104F091A204309789F3C801099585
:10247000EECF8C2F0C2E000C990B0E943F22892B43
:1024800009F4AECFE091C704E03208F0A9CF81E0B3
:102490008E0F8093C704F0E0E256FB4FC087E82F11
:1024A000F0E0E256FB4F10869BCF80E0DF91CF91AA
:1024B0001F910F91FF90EF90DF90CF90BF90AF9062
:1024C00008951F920F920FB60F9211242F933F93EE
:1024D0004F935F936F937F938F939F93AF93BF932C
:1024E000EF93FF938091B900887F803609F44AC04A
:1024F000F0F5883209F4A7C018F5803109F49BC0C3
:10250000B8F4882309F4F9C0883009F494C0FF9125
:10251000EF91BF91AF919F918F917F916F915F915B
:102520004F913F912F910F900FBE0F901F901895D4
:10253000883109F488C0803251F78093C90314C0F0
:10254000803409F49DC040F48033B9F38833F9F640
:102550008093C90385ECB0C0803509F485C0883507
:1025600009F496C0883499F60E943810D0CF883983
:1025700009F48CC038F5883729F050F4883611F00A
:10258000803729F683E08093CB031092930357C0E2
:10259000883809F47BC0803919F0803809F0B7CF4A
:1025A00080919303803208F071C0E091930381E041
:1025B0008E0F809393038091BB00F0E0ED58FC4FA9
:1025C00080833DC0803B39F0E0F4803A09F479C063
:1025D000883A09F09CCF84E08093CB03109270037B
:1025E00010926F03E0916D03F0916E030995809155
:1025F0006F0381110FC081E080936F0310924D0330
:1026000009C0803C09F4A6CF883C09F4A3CF883BDD
:1026100009F07DCFE091700381E08E0F809370030D
:10262000F0E0E35BFC4F80818093BB0090917003EE
:1026300080916F0329C08091A6038093BB0085EC35
:102640008093BC0064CF9091C8038091C703981712
:1026500058F5E091C80381E08E0F8093C803F0E045
:10266000E955FC4F8081E9CFE091C80381E08E0FEE
:102670008093C8038091BB00F0E0E955FC4F808354
:102680009091C8038091C7039817C8F285E8D8CF06
:10269000E091C80381E08E0F8093C8038091BB0056
:1026A000F0E0E955FC4F80838091CA0381115CCF33
:1026B00081E08093A50384EA8093BC001092CB0351
:1026C00026CF85EC8093BC001092CB0380919303BE
:1026D000803230F4E0919303F0E0ED58FC4F10822B
:1026E0006091930370E0E0917103F091720383E7CE
:1026F00093E00995109293030ACF1092C90334CF47
:102700001F920F920FB60F9211240F931F932F93C6
:102710003F934F935F936F937F938F939F93AF9369
:10272000BF932091840030918500B09B0BC081E065
:1027300086BB8091280390912903019690932903E9
:10274000809328038091260390912703019640915E
:102750002403509125038417950708F445C010926F
:102760002703109226038091280390912903B0E05B
:10277000A0E0DC0199278827820F931FA11DB11DBE
:102780004091200350912103609122037091230313
:102790008C019D01041B150B260B370BB901A801F9
:1027A00040931C0350931D0360931E0370931F03FB
:1027B0008093200390932103A0932203B0932303DB
:1027C00081E080931B03BF91AF919F918F917F9187
:1027D0006F915F914F913F912F911F910F910F90AA
:1027E0000FBE0F901F901895909327038093260398
:1027F000EACF1F920F920FB60F9211242F933F939F
:102800008F939F93AF93BF93809113039091140381
:10281000A0911503B09116033091120323E0230F0A
:102820002D3758F50196A11DB11D209312038093F9
:10283000130390931403A0931503B0931603809190
:10284000170390911803A0911903B0911A030196F0
:10285000A11DB11D8093170390931803A093190332
:10286000B0931A03BF91AF919F918F913F912F9198
:102870000F900FBE0F901F90189526E8230F029619
:10288000A11DB11DD2CF1F920F920FB60F9211242E
:102890002F933F934F935F936F937F938F939F9368
:1028A000AF93BF93EF93FF9381E094E00E941F04E6
:1028B000FF91EF91BF91AF919F918F917F916F9118
:1028C0005F914F913F912F910F900FBE0F901F90EE
:1028D00018951F920F920FB60F9211242F938F937A
:1028E0009F93EF93FF93E0911104F0911204808184
:1028F000E0911704F091180482FD1BC09081809133
:102900001A048F5F8F7320911B04821741F0E091AE
:102910001A04F0E0EF5FFB4F958F80931A04FF914C
:10292000EF919F918F912F910F900FBE0F901F905D
:1029300018958081F4CF1F920F920FB60F92112439
:102940008F930FB6F894A89580916000886180936A
:102950006000109260000FBE8F910F900FBE0F901D
:102960001F901895CF93DF93E5EFF3E01382128267
:1029700088EE93E0A0E0B0E084839583A683B783DC
:1029800022E231E031832083E1E0F4E0138212821D
:1029900084839583A683B78384E391E091838083C6
:1029A00085EC90E09587848784EC90E09787868714
:1029B00080EC90E0918B808B81EC90E0938B828B0C
:1029C00082EC90E0958B848B86EC90E0978B868BE5
:1029D000118E128E138E148ECEE9D4E019821882D5
:1029E0001A821C821B828AE08F831BA61AA665E5C9
:1029F00071E083EA94E00E944F22188619A6EAED5E
:102A0000F4E082E0808383E0818396E0928397E024
:102A1000938384838FE0858388EF94E09093D3043D
:102A20008093D2044BE857E861E87FE3468B578BED
:102A3000608F718F4FE15DEB61EC7DEB428F538FC7
:102A4000648F758F16821782108611861286138600
:102A50001486158643EA5BE86CEC72E44687578778
:102A6000608B718B4AEB58E660E073EC428B538BC2
:102A7000648B758BA4EDB4E01196FC93EE931396E2
:102A80009C938E93129721E014962C931497F093B5
:102A9000D104E093D0049093CF048093CE04B093FC
:102AA000CD04A093CC0486E892E09093CB0480936D
:102AB000CA04DF91CF910895CF93DF93CDB7DEB7EE
:102AC0006C970FB6F894DEBF0FBECDBF789484B577
:102AD000826084BD84B5816084BD85B5826085BD1A
:102AE00085B5816085BD80916E00816080936E00A8
:102AF000109281008091810082608093810080919A
:102B0000810081608093810080918000816080934A
:102B100080008091B10084608093B1008091B0000A
:102B200081608093B00080917A00846080937A0005
:102B300080917A00826080937A0080917A0081602F
:102B400080937A0080917A00806880937A00109256
:102B5000C10010E060E0812F0E94E40160E0812F5D
:102B60000E9459011F5F1631A9F780917E008F6383
:102B700080937E00809164008160809364008091E6
:102B800064008460809364001CBC61E08DE00E945E
:102B9000E40161E08DE00E945901E0911104F0919F
:102BA000120482E08083E0910D04F0910E04108203
:102BB000E0910F04F091100480E1808310921904D9
:102BC000E0911504F091160486E08083E0911304EF
:102BD000F0911404808180618083E0911304F0916E
:102BE0001404808188608083E0911304F0911404C0
:102BF000808180688083E0911304F09114048081C7
:102C00008F7D80836CEF7CE08CE892E00E94400C2A
:102C10006AE17DE08DE992E00E94400C6CE47FE087
:102C200084E992E00E94400C67E57DE083E992E050
:102C30000E94400C6DEB7DE08BE992E00E94400C1D
:102C400060E770E183ED91E00E94400C6AEF7FE065
:102C500082EA92E00E94400C6FEA70E189EA92E019
:102C60000E94400C6DE97FE082EB92E00E94400CF4
:102C700069EF70E18BEB92E00E94400C64E07EE033
:102C800084EC92E00E94400C69E271E18DEC92E0EC
:102C90000E94400C67E17EE086ED92E00E94400CCD
:102CA0006DE571E185E492E00E94400C6AE27EE00D
:102CB0008FED92E00E94400C63EC71E188EE92E0AF
:102CC0000E94400C6DE37EE081EF92E00E94400C98
:102CD00060E971E18AEF92E00E94400C6FE47EE0CF
:102CE00083E093E00E94400C62E67EE08DE991E093
:102CF0000E94400C0E94E61100E70093A40310928A
:102D00004B0310924A031092D2031092F4030E94D4
:102D1000A5018CEC90E090936E0380936D038DEC95
:102D200090E0909372038093710311E01093D103AC
:102D30000093F30381E290E00E9454010E943A0262
:102D40001093D1031092D2031092F40381E890E023
:102D50000E9454010E943A021093D1031092D203B0
:102D60001092F4038FEE90E00E9454010E943A0208
:102D700088EF94E00E942D0661E089E00E94E40162
:102D800061E08AE00E94E40161E089E00E9459016B
:102D900060E08AE00E94590161E08091DC040E94B9
:102DA000E40161E08091DD040E94E40161E0809132
:102DB000DB040E94E40161E08091DA040E94E401F6
:102DC0008AED94E00E9467058AE00E94AE0A8A328A
:102DD00009F0C3C28BE00E94AE0A62E0853608F4B7
:102DE000682F84ED94E00E94240B8091D60490918A
:102DF000D704892B59F08CE00E94AE0A65E080313F
:102E000008F4682F84ED94E00E94120B8DE00E947C
:102E1000AE0A9FEF980F6AE09F3008F4682F84EDA8
:102E200094E00E94070B8EE00E94AE0A61E08F3FA3
:102E300079F584ED94E00E94020B8FE00E94AE0AC7
:102E40008F3F51F58AE08093D9046AE08FE00E94B9
:102E50007C0A9E012F5F3F4F7901690101E010E17B
:102E60003901E4E08E2E810EAE014B5E5F4F5A01B8
:102E70001815B1F099249394910E812F0E94AE0AF7
:102E8000F50181935F018F3F09F000E0192DF0CF2C
:102E90008111CFCF60E0CDCF8093D904682FD6CFFA
:102EA0008D889E88AF88B88CC501B4010E94BA0590
:102EB000882371F18BE897E8A1E8BFE389839A83BF
:102EC000AB83BC838FE19DEBA1ECBDEB8D839E8337
:102ED000AF83B887B70184ED94E00E94820B01E0D4
:102EE00018E174E0A72EA10E9E012B5E3F4F6901F1
:102EF0001A15D1F0BB24B394B10E812F0E94AE0AF3
:102F0000F60181936F018F3F09F000E01B2DF0CF98
:102F1000F60181929192A192B1926F01183109F05C
:102F2000A0CF0111C7CFD6CF8D889E88AF88B88C2F
:102F3000C501B4010E94BA05882309F402C21982AE
:102F40001A821B821C821D821E821F82188683EABF
:102F50009BE8ACECB2E489879A87AB87BC878AEBA5
:102F600098E6A0E0B3EC8D879E87AF87B88BB3015E
:102F700084ED94E00E94320B0FE710E0109395036C
:102F800000939403109297031092960310929B0360
:102F900010929A0310929D0310929C030E942103A9
:102FA0006AEF70E080E090E00E945F03109295036A
:102FB0001092940310939703009396030E942103A9
:102FC0006AEF70E080E090E00E945F031092970348
:102FD0001092960310939B0300939A030E9421037F
:102FE0006AEF70E080E090E00E945F0310929B0324
:102FF00010929A0310939D0300939C030E94210357
:103000006AEF70E080E090E00E945F0360E08DE096
:103010000E94590160E08DE00E94E4010E947C055D
:10302000811177C28091D804882309F46DC2109170
:10303000DE0484E68093DE048091D2049091D30470
:10304000009711F00E942D0661E08091DA040E9441
:10305000590161E08091DB040E94590161E070E058
:1030600080E090E00E945F0360E08091DC040E94B9
:10307000590160E08091DD040E9459018AED94E0DD
:103080000E94AE044B015C0160E08091DC040E9470
:10309000590161E08091DD040E9459018AED94E0BC
:1030A0000E94AE046B017C018AED94E00E946705EA
:1030B0001093DE04F9E28F16FAE09F06A104B10432
:1030C0000CF450C128E2821A2AE0920AA108B10841
:1030D00034E3831638E09306A104B1040CF014C263
:1030E00041E4C41646E0D406E104F1040CF447C1FF
:1030F00050E4C51A56E0D50AE108F1083CEDC316C4
:1031000035E0D306E104F1040CF0FEC188EF94E051
:103110000E942D0639E3832E912C90929503809284
:10312000940347E7A42EB12CB0929703A092960384
:1031300058E3C52ED12CD0929B03C0929A0366E02F
:10314000E62EF12CF0929D03E0929C030E94210355
:1031500064EF71E080E090E00E945F0310E000E027
:1031600021E0AE014F5F5F4F70E060E08AED94E0D8
:103170000E9426070E94E61181118BC09092950350
:1031800080929403B0929703A0929603D0929B03EF
:10319000C0929A03F0929D03E0929C030E94210347
:1031A00064EF71E080E090E00E945F030E94E6110E
:1031B00081116FC06D817E818F8198850E947D1EF7
:1031C0004B015C016D857E858F8598890E947D1EEF
:1031D0002B013C0120E030E842E255E4C501B40196
:1031E0000E9461206B017C0120E030E0A9010E9477
:1031F0007621181624F0F7FAF094F7F8F09420E00E
:1032000030E443E055E4C701B6010E94761E87FF13
:1032100070C120E030E048EC54E4C301B2010E94E8
:1032200061206B017C0120E030E0A9010E94762141
:10323000181624F0F7FAF094F7F8F09420E030E84C
:103240004BEB54E4C701B6010E94761E87FF51C1C3
:10325000A3019201C501B4010E94CE204B015C0183
:10326000C090D90444E6C49E600111240E944B031F
:1032700026010D2C000C660877080E947C05811140
:103280008BC0C301B2010E945F030E94E611882334
:10329000A1F319821A821B821C82812C912C540169
:1032A00022242394312C08E010E0C090D90454E685
:1032B000C59E600111240E94E611882321F00E941E
:1032C00092034B015C010E947C050D2C000CEE0862
:1032D000FF08882309F405C20E9492034B015C0198
:1032E0008EE390E09093950380939403E3E7F0E0FE
:1032F000F0939703E093960310929B0310929A0326
:1033000010929D0310929C030E942103B501A40119
:1033100081E00E9495062B013C010E947C058823D8
:1033200009F4FCC0C701B6010E945F030E94E611C8
:10333000882321F00E9492032B013C01B301A201DA
:10334000E7CFF70181929192A192B1927F01183259
:1033500009F0C7CD0111F3CD0ACE84ED94E00E94AF
:10336000DE0B0ACE88E29AE0A0E0B0E09C01AD015D
:10337000281939094A095B0949015A01A9CE80E493
:1033800096E0A0E0B0E09C01AD012C193D094E098A
:103390005F0969017A01B2CE8EE390E090939503C4
:1033A0008093940383E790E0909397038093960330
:1033B00010929B0310929A0310929D0310929C030B
:1033C0000E9421030D2C000CEE08FF080E947C05D2
:1033D000882349F0C701B6010E945F030E94E611ED
:1033E0008823A1F356CF0E944B0364EF71E080E085
:1033F00090E00E945F0310E000E021E0AE014F5F2B
:103400005F4F70E060E08AED94E00E9426070E9422
:10341000E61181113ECF0E944B0364EF71E080E022
:1034200090E00E945F030E94E611811132CF6D810E
:103430007E818F8198850E947D1E6B017C016D8548
:103440007E858F8598890E947D1E9B01AC01C701F6
:10345000B6010E94CE20A50194010E9461209B012B
:10346000AC016DEC7CEC8CE090E40E94CE209B01E2
:10347000AC012D8B3E8B4F8B588FC501B4010E9440
:10348000DC1E9B01AC0160E070E080EC9FE30E94D9
:103490006120698F7A8F8B8F9C8F0E94E61181113A
:1034A000F8CEBE016B5E7F4F84ED94E00E94820BEC
:1034B0006AE070E080E090E00E945F038EE590E0BB
:1034C00090939503809394038FE390E090939703F8
:1034D0008093960384E590E090939B0380939A03F6
:1034E00089E790E090939D0380939C030E942103C1
:1034F000D0CE88EF94E00E94D70868EB7BE080E0B4
:1035000090E00E945F03C5CE90E080E00E943A0AFE
:10351000C0CE88EF94E00E942D06BBCE68EE73E02B
:1035200080E090E00E945F0392E0A92EB12C3092DF
:103530009503209294030E94210369E270E080E0E9
:1035400090E00E945F0310929503109294033092D2
:103550009703209296030E94210369E270E080E0C5
:1035600090E00E945F0310929703109296033092AE
:103570009B0320929A030E94210369E270E080E09D
:1035800090E00E945F0310929B0310929A03309286
:103590009D0320929C030E94210369E270E080E079
:1035A00090E00E945F0322E030E030939D0320937F
:1035B0009C030E94210369E270E080E090E00E9499
:1035C0005F0344E050E050939D0340939C030E94AE
:1035D000210369E270E080E090E00E945F031093B5
:1035E0009D0300939C030E94210369E270E080E048
:1035F00090E00E945F0310929D0310929C03109331
:103600009B0300939A030E94210369E270E080E02B
:1036100090E00E945F0310929B0310929A03109314
:103620009703009396030E94210369E270E080E013
:1036300090E00E945F0310929703109296031093FC
:103640009503009394030E94210369E270E080E0F7
:1036500090E00E945F0380E190E090939503809357
:1036600094030E94210369E270E080E090E00E94F0
:103670005F03E0E2F0E0F0939503E09394030E948F
:10368000210369E270E080E090E00E945F03AA9469
:10369000AB2809F04BC088EF94E00E942D0664E649
:1036A00070E080E090E00E945F030E949203641942
:1036B000750986099709613A7F408105910520F0D7
:1036C00019821A821B821C82CE0101960E943A0A3C
:1036D0000E949203AB01BC0180E00E9495064B0161
:1036E0005C01C701B6010E945F030E949203681942
:1036F00079098A099B09613A7F408105910570F03B
:1037000019821A821B821C82809194038F7790E029
:1037100090939503809394030E942103B501A40123
:1037200080E00E9495064B015C01BFCDAA24A394C2
:10373000B12CFDCEB0E0A0E0E0EAFBE10C94EE1F7E
:103740005C016B017A016115710519F0FB01918330
:103750008083E114F10451F0C7010297839730F0A0
:1037600040E030E020E090E072C05E01E50121968B
:10377000F5011081812F90E00E94D31C892BA9F7BD
:103780001D3201F52196F501118101E0E114F104EA
:1037900009F4DAC0F0E1EF16F10409F082C0103349
:1037A00059F488818F7D883509F076C01981229679
:1037B0000260F0E1EF2EF12C812C912CA12C88E0FD
:1037C000B82E8CC01B3221F4E5012296F50111813F
:1037D00000E0DCCFEAE0EE16F10409F4BBC0F0E152
:1037E000EF16F10409F06DC0E7CF78E0E72EF12C79
:1037F000812C912CA12C60E1B62E70C03FE9310FD5
:103800003A3128F439EA332E80C021E09AC0302FB3
:103810003170C114D10431F0222309F12197F6014E
:10382000D183C08327FF21C060E070E080E090E892
:10383000311104C06FEF7FEF8FEF9FE722E230E09E
:103840003093FA042093F904462F372F282F642F42
:10385000732F822FCDB7DEB7E1E10C940A2001FF70
:1038600004C02297F601D183C083332341F09095A1
:103870008095709561957F4F8F4F9F4FE5CF97FF54
:10388000E3CF82E290E09093FA048093F9046FEF23
:103890007FEF8FEF9FE7D8CF10E3E114F10409F435
:1038A000A4CF28E0E216F10409F4A2CF0CF092CFE5
:1038B000812C912CA12CE0E4BE2E82E0E816F104CC
:1038C00069F060E070E080E090E897010F2C000C58
:1038D000440B550B0E94C01F49015A0120E060E0D3
:1038E00070E0CB0127010F2C000C66087708FE0161
:1038F00050ED352E310E39E0331540F43FEB310FEA
:103900003A3108F07BCF49EC342E310E3E141F04BF
:103910000CF07DCF27FD15C086169706A806B906C0
:1039200078F0A30192010E94B01F630D711D811DEB
:10393000911D61307105810520E8920708F465CF7B
:103940002FEF21961081D3CF103309F42ACF2AE02C
:10395000E22EF12C9CEC892E982CA82C9CE0B92E00
:10396000BDCF662777270C940B1DFC01882799276C
:10397000E89421912032E9F3293010F02E30C8F379
:103980002B3241F02D3239F4689404C00E94031D9B
:10399000820F911D219120532A30C0F31EF490957F
:1039A00081959F4F089591110C945B1E803219F000
:1039B00089508550C8F70895FA01A191B081009708
:1039C00019F41097E1F0CD01DC01CD010D9000203C
:1039D00011F4C00113C0FB012191222319F020151D
:1039E000D9F7F3CFFB012191201519F41E921196FE
:1039F00006C02223C1F70D900020A1F7D001FA01E3
:103A0000A193B08308957AE0979F902D879F802D92
:103A1000910D11240895B0E0A0E0E1E1FDE10C94E6
:103A2000F31F5C017B016115710519F0DB018D93BA
:103A30009C9385010F5F1F4FF501D0818D2F90E082
:103A40000E94D31C6C01892BB9F5DD32B9F50F5FEB
:103A50001F4FD5011196DC91C1E05801F1E0AF1A7A
:103A6000B10843E050E060E770E0C5010E945E1ECF
:103A7000892B69F5680182E0C80ED11C45E050E051
:103A80006BE670E0C6010E945E1E892B21F468017E
:103A900097E0C90ED11CE114F10419F0D701CD92C1
:103AA000DC9260E070E080E89FEFC111FFC060E051
:103AB00070E080E89FE7FAC05801BBCFDB3229F401
:103AC00085010E5F1F4FF501D181C0E0C6CF43E0F5
:103AD00050E068E670E0C5010E945E1E892BE9F0A7
:103AE000F80110E000E020E030E0A9015F01B0ED56
:103AF0008B2E8D0E89E08815C8F19C2E689491F864
:103B00008C2F8870C2FF16C0811102C00F5F1F4F3B
:103B10003196D501DC91C92DE9CFE114F10429F0EA
:103B20000E5F1F4FF7011183008360E070E080ECAF
:103B30009FE7BCC0882311F001501109A5E0B0E057
:103B40000E94E21F9B01AC01220F331F441F551F2F
:103B5000280D311D411D511D283999E939074907A3
:103B600099E15907A8F2C6609C2ED2CFAEEF8A1217
:103B700006C0C3FD3CC09C2E689493F8C9CFDF7D7E
:103B8000D534A9F580818D3239F4C061DF011296F8
:103B9000818162E070E006C0DF018B32C1F31196D3
:103BA00061E070E080535D01A61AB70A8A30F8F42C
:103BB000E0E8CE16ECE0DE065CF4B601660F771F97
:103BC000660F771FC60ED71ECC0CDD1CC80ED11C8D
:103BD0005D01FFEFAF1ABF0A8C9180538A30A8F1C4
:103BE000C4FF03C0D194C194D1080C0D1D1DC1FFA9
:103BF00009C0E114F10431F081E0A81AB108D7013D
:103C0000AD92BC92CA01B9010E947B1EC370C33041
:103C100009F490584B015C0120E030E0A9010E94BA
:103C2000761E882309F440C0CFE9D0E017FF05C015
:103C3000119501951109C7E8D0E06E01B8E1CB1AE2
:103C4000D10880E2E82EF12C0FC0D501B1CFFE01E2
:103C500025913591459154910E191F09C501B40163
:103C60000E94DC1E4B015C01D501C4010E151F052D
:103C700074F72497F594E794CC16DD06A9F78A2FFC
:103C8000880F8B2F881F8F3F49F020E030E0A9017B
:103C9000C501B4010E94761E811106C082E290E047
:103CA0009093FA048093F904C501B401CDB7DEB74F
:103CB000ECE00C940F20992788270895FB01DC0184
:103CC0004150504088F08D9181341CF08B350CF4BC
:103CD000805E659161341CF06B350CF4605E861B70
:103CE000611171F3990B0895881BFCCF0E94B81ED7
:103CF00008F481E00895E89409C097FB3EF490959C
:103D00008095709561957F4F8F4F9F4F9923A9F0B4
:103D1000F92F96E9BB279395F69587957795679543
:103D2000B795F111F8CFFAF4BB0F11F460FF1BC087
:103D30006F5F7F4F8F4F9F4F16C0882311F096E91A
:103D400011C0772321F09EE8872F762F05C06623C8
:103D500071F096E8862F70E060E02AF09A95660F81
:103D6000771F881FDAF7880F9695879597F908953A
:103D7000990F0008550FAA0BE0E8FEEF161617067C
:103D8000E807F907C0F012161306E407F50798F0E4
:103D9000621B730B840B950B39F40A2661F0232BFD
:103DA000242B252B21F408950A2609F4A140A69579
:103DB0008FEF811D811D08950E94EF1E0C94601FDE
:103DC0000E94521F38F00E94591F20F0952311F0D5
:103DD0000C94491F0C944F1F11240C94941F0E94A3
:103DE000711F70F3959FC1F3950F50E0551F629FAF
:103DF000F001729FBB27F00DB11D639FAA27F00D44
:103E0000B11DAA1F649F6627B00DA11D661F829F6A
:103E10002227B00DA11D621F739FB00DA11D621F4F
:103E2000839FA00D611D221F749F3327A00D611D6C
:103E3000231F849F600D211D822F762F6A2F11244E
:103E40009F5750409AF0F1F088234AF0EE0FFF1F81
:103E5000BB1F661F771F881F91505040A9F79E3FD8
:103E6000510580F00C94491F0C94941F5F3FE4F3BC
:103E7000983ED4F3869577956795B795F795E7952E
:103E80009F5FC1F7FE2B880F911D9695879597F937
:103E9000089597F99F6780E870E060E008959FEFCC
:103EA00080EC089500240A941616170618060906D1
:103EB000089500240A9412161306140605060895A0
:103EC000092E0394000C11F4882352F0BB0F40F428
:103ED000BF2B11F460FF04C06F5F7F4F8F4F9F4F68
:103EE000089557FD9058440F551F59F05F3F71F0EA
:103EF0004795880F97FB991F61F09F3F79F0879551
:103F00000895121613061406551FF2CF4695F1DFD9
:103F100008C0161617061806991FF1CF8695710569
:103F2000610508940895E894BB2766277727CB019D
:103F300097F90895F999FECF92BD81BDF89A992716
:103F400080B50895262FF999FECF1FBA92BD81BD85
:103F500020BD0FB6F894FA9AF99A0FBE019608950B
:103F6000DB018F939F930E94E21FBF91AF91A29FAD
:103F7000800D911DA39F900DB29F900D1124089567
:103F8000A1E21A2EAA1BBB1BFD010DC0AA1FBB1F5D
:103F9000EE1FFF1FA217B307E407F50720F0A21BCF
:103FA000B30BE40BF50B661F771F881F991F1A943C
:103FB00069F760957095809590959B01AC01BD0166
:103FC000CF0108950E942420A59F900DB49F900DCD
:103FD000A49F800D911D112408952F923F924F921E
:103FE0005F926F927F928F929F92AF92BF92CF9289
:103FF000DF92EF92FF920F931F93CF93DF93CDB792
:10400000DEB7CA1BDB0B0FB6F894DEBF0FBECDBF09
:1040100009942A88398848885F846E847D848C84DA
:104020009B84AA84B984C884DF80EE80FD800C81E3
:104030001B81AA81B981CE0FD11D0FB6F894DEBFC6
:104040000FBECDBFED010895A29FB001B39FC00187
:10405000A39F700D811D1124911DB29F700D811DB4
:104060001124911D089597FB072E16F4009407D094
:1040700077FD09D00E94472007FC05D03EF49095BB
:1040800081959F4F0895709561957F4F0895AA1B64
:10409000BB1B51E107C0AA1FBB1FA617B70710F033
:1040A000A61BB70B881F991F5A95A9F78095909565
:1040B000BC01CD010895EE0FFF1F0590F491E02D96
:1040C00009945058BB27AA270E9479200C94601F9E
:1040D0000E94521F38F00E94591F20F039F49F3F70
:1040E00019F426F40C944F1F0EF4E095E7FB0C94A2
:1040F000491FE92F0E94711F58F3BA17620773070F
:104100008407950720F079F4A6F50C94931F0EF41C
:10411000E0950B2EBA2FA02D0B01B90190010C01D7
:10412000CA01A0011124FF27591B99F0593F50F4EF
:10413000503E68F11A16F040A22F232F342F442747
:10414000585FF3CF469537952795A795F04053953F
:10415000C9F77EF41F16BA0B620B730B840BBAF00F
:104160009150A1F0FF0FBB1F661F771F881FC2F77A
:104170000EC0BA0F621F731F841F48F4879577958E
:104180006795B795F7959E3F08F0B0CF9395880F48
:1041900008F09927EE0F9795879508950E94E220E1
:1041A0000C94601F0E94591F58F00E94521F40F04B
:1041B00029F45F3F29F00C94491F51110C94941F6E
:1041C0000C944F1F0E94711F68F39923B1F355237C
:1041D00091F3951B550BBB27AA276217730784071A
:1041E00038F09F5F5F4F220F331F441FAA1FA9F3B0
:1041F00035D00E2E3AF0E0E832D091505040E6959E
:10420000001CCAF72BD0FE2F29D0660F771F881FFE
:10421000BB1F261737074807AB07B0E809F0BB0BF1
:10422000802DBF01FF2793585F4F3AF09E3F510505
:1042300078F00C94491F0C94941F5F3FE4F3983E70
:10424000D4F3869577956795B795F7959F5FC9F7EE
:10425000880F911D9695879597F90895E1E0660F6F
:10426000771F881FBB1F621773078407BA0720F0E8
:10427000621B730B840BBA0BEE1F88F7E095089551
:104280000E9447216894B1110C94941F08950E94D4
:10429000791F88F09F5798F0B92F9927B751B0F040
:1042A000E1F0660F771F881F991F1AF0BA95C9F7BA
:1042B00014C0B13091F00E94931FB1E008950C94A6
:1042C000931F672F782F8827B85F39F0B93FCCF359
:1042D000869577956795B395D9F73EF49095809537
:1042E000709561957F4F8F4F9F4F08950E94B81E24
:1042F00008F48FEF08950E94B81E880B990B08955B
:10430000B0E0A0E0E6E8F1E20C94EF1F8C0100972A
:1043100051F4CB010E9473228C01C801CDB7DEB7E6
:10432000E0E10C940B20FC01E60FF71F9C012250EA
:104330003109E217F30708F49DC0D901CD91DC9152
:104340001197C617D70798F0C530D10530F3CE01C5
:1043500004978617970708F3C61BD70B2297C193BC
:10436000D1936D937C93CF010E940F23D6CF5B0135
:10437000AC1ABD0A4C018C0E9D1EA091FD04B0919B
:10438000FE04512C412CF12CE12C109731F5809139
:10439000FB049091FC048815990509F05CC0461651
:1043A000570608F058C080910101909102010097D2
:1043B00041F48DB79EB74091050150910601841BD1
:1043C000950BE817F90708F055C0F093FC04E0934B
:1043D000FB04F90171836083A0CF8D919C911197AB
:1043E00012966C90129713967C901397A815B905A6
:1043F00059F56C0142E0C40ED11CCA14DB0420F153
:10440000AC014A195B09DA011296159780F06282B5
:10441000738251834083D9016D937C93E114F1043D
:1044200071F0D7011396FC93EE93129776CF2296F4
:104430008C0F9D1FF90191838083F301EFCFF093DF
:10444000FE04E093FD0469CF4816590608F42C01D8
:104450007D01D3019ACFCB010E9473227C0100978A
:1044600049F0AE01B8010E944622C8010E940F2304
:10447000870153CF10E000E050CF803209F0911156
:104480000C945B1E80528F55D8F70895FB01DC0118
:1044900002C001900D9241505040D8F70895FB01A1
:1044A000DC0101900D920020E1F70895FB01DC0191
:1044B0004150504030F08D910190801919F4002046
:1044C000B9F7881B990B0895FB01DC01415050405E
:1044D00048F001900D920020C9F701C01D92415093
:1044E0005040E0F708950F931F93CF93DF938230EE
:1044F000910510F482E090E0E091FD04F091FE045B
:1045000030E020E0B0E0A0E0309799F421153105CB
:1045100009F44AC0281B390B24303105D8F58A81AB
:104520009B816115710589F1FB0193838283FE01F3
:1045300011C0408151810281138148175907E0F071
:104540004817590799F4109761F012960C93129737
:1045500013961C933296CF01DF91CF911F910F914B
:1045600008950093FD041093FE04F4CF2115310546
:1045700051F04217530738F0A901DB019A01BD0140
:10458000DF01F801C1CFEF01F9CF9093FE048093D2
:10459000FD04CDCFFE01E20FF31F819391932250D2
:1045A000310939832883D7CF2091FB043091FC0453
:1045B000232B41F420910301309104013093FC043A
:1045C0002093FB0420910101309102012115310556
:1045D00041F42DB73EB74091050150910601241BCF
:1045E000350BE091FB04F091FC04E217F307A0F413
:1045F0002E1B3F0B2817390778F0AC014E5F5F4F39
:104600002417350748F04E0F5F1F5093FC0440936A
:10461000FB04819391939FCFF0E0E0E09CCFCF9398
:10462000DF930097E9F0FC01329713821282A09188
:10463000FD04B091FE04ED0130E020E01097A1F4FC
:1046400020813181820F931F2091FB043091FC0463
:104650002817390709F061C0F093FC04E093FB04CC
:10466000DF91CF910895EA01CE17DF07E8F54A817F
:104670005B819E0141155105B1F7E901FB83EA8396
:1046800049915991C40FD51FEC17FD0761F4808142
:1046900091810296840F951FE90199838883828115
:1046A00093819B838A83F0E0E0E012968D919C9148
:1046B00013970097B9F52D913C911197CD01029672
:1046C000820F931F2091FB043091FC0428173907B7
:1046D00039F6309751F51092FE041092FD04B09314
:1046E000FC04A093FB04BCCFD383C28340815181DF
:1046F000840F951FC817D90761F44E5F5F4F8881FB
:104700009981480F591F518340838A819B819383EC
:1047100082832115310509F0B0CFF093FE04E093B8
:10472000FD049ECFFD01DC01C0CF13821282D7CFE2
:04473000F894FFCF2B
:10473400FF0000FF0480003F065B4F666D7D077F2E
:104744006F777C395E797110080440200102000003
:1047540000002501F800CB03CE00F100DE00CF00FD
:104764000000000041049E03CE038E04FF03DD031A
:10477400F103544F4E494E4F3A000A0049495F53E2
:1047840043414E3A002000445F5343414E3A0047B0
:1047940045544252494748544E4553533A004745BD
:1047A4005453414D504C494E473A00474554434DAC
:1047B4004F44453A0047455443414C494E49543AC5
:1047C400004745544C5444454C41593A00524553D2
:1047D4004554444546006E616E00696E66006F760E
:1047E40066004745545343414C494E473A004745B8
:1047F4005443414C3A0053455443414C2045525292
:104804004F520053455443414C0053455453434184
:104814004C494E47204552524F520053455453433E
:10482400414C494E47005345544252494748544E1F
:10483400455353204552524F520053455442524916
:104844004748544E4553530053455453414D504CDF
:10485400494E47204552524F520053455453414DFF
:10486400504C494E4700534554434D4F4445204511
:1048740052524F5200534554434D4F444500534503
:10488400544C5444454C4159204552524F520053C4
:1048940045544C5444454C41590053455443414CB0
:1048A400494E49540053455443414C494E495420C0
:1048B4004552524F5200312031203700544F4E4957
:1048C4004E4F0049495F5343414E00445F534341B7
:1048D4004E0047455443414C005345545343414CC7
:1048E40049004745545343414C49005345544252AF
:1048F40049474800474554425249474800534554A4
:1049040053414D504C0047455453414D504C004782
:104914004554434D4F44450053455443414C494E3F
:104924000047455443414C494E005345544C54446C
:0C493400454C004745544C5444454C0091
:00000001FF
