:100000000C947B000C94A3000C94A3000C94A3000C
:100010000C94A3000C94A3000C94EE160C94D3152E
:100020000C94A3000C94A3000C94A3000C94A300C4
:100030000C94A3000C94A3000C94A3000C94A300B4
:100040000C944C160C94A3000C94BC160C949616AD
:100050000C94A3000C94A3000C94A3000C94A30094
:100060000C94B4140C94A3004E414E494E4954597B
:10007000494E46CDCCCC3D0AD7233C17B7D1387773
:10008000CC2B329595E6241FB14F0A000020410089
:1000900000C84200401C4620BCBE4CCA1B0E5AAED3
:1000A000C59D7400000000240027002A0000000005
:1000B00000250028002B00040404040404040402A6
:1000C00002020202020303030303030102040810F5
:1000D00020408001020408102001020408102000C2
:1000E00000000800020100000304070000000000F7
:1000F00000000000051711241FBECFEFD8E0DEBFBF
:10010000CDBF27E0AEE6B5E001C01D92A136B20733
:10011000E1F715E0A0E0B1E0E2E1FEE402C0059005
:100120000D92AE36B107D9F710E0CBE7D0E004C0AE
:100130002197FE010E94CA23CA37D107C9F70E943E
:10014000AF170C9407270C9400002091D105260FBF
:100150003327331F21323105ECF420912D06FC01A9
:1001600090E080E0243069F082E00895A091D1050C
:100170002191AC0141555A4FA40FB52FB11D2C93BD
:100180000196861798F38091D105680F6093D10589
:1001900080E0089581E00895089508950895E0911C
:1001A000AD058091AC05E81730F4F0E0E457FA4F64
:1001B000808190E008958FEF9FEF08959091AD05B5
:1001C0008091AC052FEF3FEF981748F4E92FF0E04E
:1001D000E457FA4F208130E09F5F9093AD05C9014D
:1001E00008958091AC059091AD05891B990B0895F8
:1001F000CF92DF92EF92FF920F931F93CF93DF93F3
:100200007C01CB018A0120913306222389F0EB0186
:100210006B01C40ED51ECC15DD0569F06991D701BF
:10022000ED91FC910190F081E02DC7010995F3CF8C
:10023000642F0E94A500C801DF91CF911F910F91FB
:10024000FF90EF90DF90CF900895CF93DF931F92B0
:10025000CDB7DEB76983209133062223F9F02091D0
:100260005606203258F021E030E0FC01338322832F
:1002700090E080E00F90DF91CF9108958091340657
:10028000E82FF0E0EB5CF94F998190838F5F8093CA
:1002900034068093560681E090E0ECCF61E0CE0119
:1002A00001960E94A500F7CF682F87E596E00C9491
:1002B000250190E0FC01E152FF4F2491FC01E55340
:1002C000FF4F3491FC01E954FF4FE491EE23C9F054
:1002D000222339F0233001F1A8F4213019F1223022
:1002E00029F1F0E0EE0FFF1FE355FF4FA591B49108
:1002F0008FB7F894EC91611126C030953E233C9362
:100300008FBF08952730A9F02830C9F0243049F76D
:10031000809180008F7D03C0809180008F778093D3
:100320008000DFCF84B58F7784BDDBCF84B58F7D30
:10033000FBCF8091B0008F778093B000D2CF8091B7
:10034000B0008F7DF9CF3E2BDACF10922D0681E0E1
:1003500080932C061092070661E082E10E94590109
:1003600061E083E10E945901E9EBF0E080818E7F3A
:10037000808380818D7F808388E48093B80085E4CA
:100380008093BC000895CF93DF9391E09093AE05E6
:100390008823B9F0C091B800D091BA008091BC0018
:1003A0008A7B8093BC0060E082E10E94590160E09A
:1003B00083E10E9459010E94A501D093BA00C09325
:1003C000B800DF91CF910895CF93DF9390E0FC01C7
:1003D000E553FF4F249189549F4FFC01849188235A
:1003E000D1F090E0880F991FFC01ED55FF4FA591CA
:1003F000B491FC01E355FF4FC591D49161110EC03A
:100400009FB7F8948C91E22FE0958E238C932881EE
:10041000E223E8839FBFDF91CF9108958FB7F894CF
:10042000EC91E22BEC938FBFF6CF3FB7F89480911D
:10043000790590917A05A0917B05B0917C0526B550
:10044000A89B05C02F3F19F00196A11DB11D3FBF0C
:10045000BA2FA92F982F8827BC01CD01620F711DDB
:10046000811D911D42E0660F771F881F991F4A95D5
:10047000D1F70895CF92DF92EF92FF920F931F93DF
:10048000CF93DF93D091560681E0D13208F09CC023
:10049000C09155060E9415026B017C0180912D06CA
:1004A00081116CC082E080932D0681E080932C0640
:1004B0008FEF80932B0610922A06D0932906A5E38E
:1004C000B6E0E9E0F6E080E0D8138DC010920806AF
:1004D00080910806CC0FC82BC093080680910706B0
:1004E000813009F084C0109207060E9415026B014A
:1004F0007C01809108068093BB0080912F0690912B
:100500003006A0913106B0913206892B8A2B8B2BB5
:10051000A1F00E94150200912F0610913006209143
:100520003106309132066C197D098E099F09061734
:1005300017072807390708F442C08091BC0083FDE3
:10054000D8CF85EC8093BC000E9415026B017C0122
:1005500080912D06823009F44CC080912B068F3F8C
:1005600009F469C080912B06803209F466C080913D
:100570002B06803309F463C084E026C080912F06E7
:1005800090913006A0913106B0913206892B8A2BCA
:100590008B2B09F483CF0E94150200912F06109136
:1005A000300620913106309132066C197D098E0992
:1005B0009F09061717072807390708F06FCF8091A2
:1005C0002E060E94C30185E0109234061092560652
:1005D00010923306DF91CF911F910F91FF90EF9012
:1005E000DF90CF9008959D9191938F5F6DCF85EEB1
:1005F000A9CF80912F0690913006A0913106B0913D
:100600003206892B8A2B8B2B09F4A2CF0E9415026C
:1006100000912F061091300620913106309132065C
:100620006C197D098E099F090617170728073907D6
:1006300008F08ECFC4CF80E0C7CF82E0C5CF83E083
:10064000C3CF1F93CF93DF938091060691E09093E1
:10065000330680935506109234061092560660E0D9
:1006600087E596E00E942501C6EFD5E068811981F3
:10067000229687E596E00E942501612F87E596E0A6
:100680000E94250186E0C630D80781F7DF91CF911F
:100690001F910C943A02E6EFF5E089E390E0918334
:1006A000808387E790E09383828388E390E0978359
:1006B00086838BE590E0918780870C9421038F924D
:1006C0009F92AF92BF92CF92DF92EF92FF926B0117
:1006D0007C010E9415024B015C01C114D104E104AC
:1006E000F104B9F00E941502681979098A099B0979
:1006F000683E73408105910580F321E0C21AD1085C
:10070000E108F10888EE880E83E0981EA11CB11C58
:10071000E4CFFF90EF90DF90CF90BF90AF909F908D
:100720008F9008952FB7F8946091750570917605B4
:1007300080917705909178052FBF0895AF92BF9271
:10074000CF92DF92EF92FF920F931F93CF93DF939D
:100750006C017B018B01040F151FEB015E01AE18CC
:10076000BF08C017D10759F06991D601ED91FC91EE
:100770000190F081E02DC6010995892B79F7C5011B
:10078000DF91CF911F910F91FF90EF90DF90CF906D
:10079000BF90AF90089590E080E00895FC01538DE4
:1007A000448D252F30E0842F90E0821B930B54174B
:1007B00010F0CF96089501970895FC01918D828DD8
:1007C000981761F0A28DAE0FBF2FB11D5D968C9171
:1007D000928D9F5F9F73928F90E008958FEF9FEFB0
:1007E0000895FC01918D828D981731F0828DE80F6C
:1007F000F11D858D90E008958FEF9FEF0895FC0126
:10080000918D228D892F90E0805C9F4F821B9109F2
:100810008F739927089583E696E00E94FF0321E0F5
:10082000892B09F420E0822F089580E090E0892B45
:1008300029F00E940B0481110C9400000895FC0122
:10084000A48DA80FB92FB11DA35ABF4F2C91848D31
:1008500090E001968F739927848FA689B7892C938E
:10086000A089B1898C91837080648C93938D848DE1
:10087000981306C00288F389E02D80818F7D8083E4
:100880000895EF92FF920F931F93CF93DF93EC01A4
:1008900081E0888F9B8D8C8D98131AC0E889F98927
:1008A000808185FF15C09FB7F894EE89FF8960832A
:1008B000E889F98980818370806480839FBF81E0AB
:1008C00090E0DF91CF911F910F91FF90EF900895ED
:1008D000F62E0B8D10E00F5F1F4F0F731127E02EC8
:1008E0008C8D8E110CC00FB607FCFACFE889F98900
:1008F000808185FFF5CFCE010E941F04F1CFEB8DE3
:10090000EC0FFD2FF11DE35AFF4FF0829FB7F894D3
:100910000B8FEA89FB8980818062CFCFCF93DF93F1
:10092000EC01888D8823B9F0AA89BB89E889F98907
:100930008C9185FD03C0808186FD0DC00FB607FC3C
:10094000F7CF8C9185FFF2CF808185FFEDCFCE016F
:100950000E941F04E9CFDF91CF910895CF93DF93D9
:10096000EC0160E070E0CB010E945F036C8170E0FD
:1009700088EE93E00E94A2231092890510928805C8
:1009800010928B0510928A051092820510928305B1
:10099000109284051092850510927D05809180004B
:1009A000809373058091810080937205109281007D
:1009B00010928000109285001092840081E086BB26
:1009C00010926F008091B000809371058091B1000A
:1009D000809370051092B10082E08093B000CB014B
:1009E00087709927892B09F059C023E07695679580
:1009F0002A95E1F78CE78093B30087E080936F0539
:100A000082E087BB1092B2007093870560938605E1
:100A10009FB7F89483BD20916F052093B100809318
:100A200070008BE08150F1F787E0809381009FBFD9
:100A300080917D058823E1F31092B100109270003F
:100A4000809171058093B000809170058093B10012
:100A500010928100809173058093800080917205CF
:100A6000809381008FB7F89420917E0530917F05A7
:100A7000409180055091810510927D058FBFAC811A
:100A8000B0E00E9451232EE130E040E050E00E94AF
:100A90002F23CA01B901DF91CF910895CB01837053
:100AA0009927892B49F4769567957695679589EF0F
:100AB0008093B30086E0A2CF60FD04C07695679571
:100AC0008CE7F6CF8CE78093B30085E097CFCF9388
:100AD000DF93EC0160E08A810E94590160E08B8124
:100AE0000E94590160E089810E94590160E088817B
:100AF000DF91CF910C9459018F929F92AF92BF9248
:100B0000CF92DF92EF92FF92CF936B017C01AC0109
:100B10009B010E94EA2481114CC046015701E894D0
:100B2000B7F82FEF3FEF4FE75FE7C501B4010E9431
:100B3000EA2481110AC02FEF3FEF4FE75FE7C501BD
:100B4000B4010E94E5211816A4F12FEF3FEF4FE703
:100B50005FE4C701B6010E94E524181654F12FEF97
:100B60003FEF4FE75FECC701B6010E94E52187FD2B
:100B700020C020E030E040E05FE4C701B6010E9401
:100B8000E521C1E0882351F020E030E040E05FEC57
:100B9000C701B6010E94E5218111C0E08C2FCF91E1
:100BA000FF90EF90DF90CF90BF90AF909F908F908D
:100BB0000895C1E0F3CFFC0160838091060691E0C7
:100BC0009093330680935506109234061092560681
:100BD000606E862F90E00E9454010C943A02E6EF7A
:100BE000F5E011821082138212821782168211861A
:100BF00010860C942103E6EFF5E080E490E0918309
:100C000080839383828397838683918780870C94E4
:100C100021034115510529F4EAE7F0E080818F773F
:100C200080836A307105B9F0CB01880F991F880F56
:100C3000991F807267706860682B88E10FB6F8941E
:100C4000A895809360000FBE60936000E0E6F0E03E
:100C5000808180648083232BD9F483B7817F846073
:100C600083BFF89483B7816083BF85B7806685BFF3
:100C70008F7D85BF7894889583B78E7F83BF789466
:100C8000452B29F4EAE7F0E08081806880830895AD
:100C900083B7817F846083BFF89483B7816083BF0B
:100CA0007894889583B78E7F83BF7894E9CFE6EFF9
:100CB000F5E089E790E09183808393838283978333
:100CC0008683918780870C9421033F924F925F9295
:100CD0006F927F928F929F92AF92BF92CF92DF924C
:100CE000EF92FF920F931F93CF93DF9300D000D02A
:100CF0001F92CDB7DEB79C01CB0168EE73E00E9476
:100D0000A223695F7E4FDB010C91098364E670E0EA
:100D10000E94A223695F7E4FFB0110811A836AE063
:100D200070E00E94A223695F7E4FDB014C914C83EF
:100D3000FC01E95FFE4F80818D830F3339F4198206
:100D40001F3321F41A824F3309F41C82C9010E9417
:100D5000EF05FE0131966F0136EFE32E35E0F32EFD
:100D600010E000E0312C2F014DE1642E41E0742EA3
:100D700050E1852E912C0230110561F1011511050C
:100D800009F054C09092F7058092F6050E94210365
:100D90006AE070E080E090E00E945F0387E1A82EA7
:100DA00081E0B82ED5018D915D01F60190818923F6
:100DB000382A8C91832990E0D7018D939C930E94CF
:100DC00021036AE070E080E090E00E945F036A1413
:100DD0007B0441F70F5F1F4FBFEFCB1ADB0AE2E046
:100DE000EE0EF11C0530110531F68D8182708068A0
:100DF000832990E09093FF058093FE050F900F905C
:100E00000F900F900F90DF91CF911F910F91FF9056
:100E1000EF90DF90CF90BF90AF909F908F907F909A
:100E20006F905F904F903F900C942103C801019701
:100E30000330110511F481E090E0FC01EE0FFF1F7B
:100E4000EA50FA4F840D951DDC018C918270832944
:100E500090E091838083F701918280820E94210338
:100E60006AE070E080E090E00E945F03312C96CF52
:100E7000BF92CF92DF92EF92FF920F931F93CF9387
:100E8000DF937C018B01CB0189519C4F873F9A42B4
:100E900018F0C7010E94570617FF2BC01195019546
:100EA0001109BB24B394C4E08AE0C82ED12CDC2FF6
:100EB000C150D53030F4C801B6010E94A223803160
:100EC00058F1C7010E945706C23011F4CEEFCD0F82
:100ED000C801B6010E94A2238B01672B41F7BB20FA
:100EE00091F0EC2FC150E53028F1C7010E94570660
:100EF0000AC001151105E1F58FE390E09093FF051D
:100F00008093FE05C3E0C7FD28C0C530ECF0C701E3
:100F10000E945706C150F7CFED2FF0E0EE0FFF1FF4
:100F2000EA50FA4F895F9E4FDC018C9190E09183EB
:100F30008083CACFF0E0EE0FFF1FEA50FA4F80E443
:100F400090E091838083DFCFEC2FF0E0EE0FFF1F66
:100F5000EA50FA4F11821082DDCFDF91CF911F91BD
:100F60000F91FF90EF90DF90CF90BF900C942103F2
:100F7000B12C99CFFC0101900020E9F73197AF0126
:100F8000481B590BBC0183E696E00C949E0382E457
:100F900091E00C94BA078F929F92AF92BF920F93F9
:100FA0001F93CF93DF93CDB7DEB7A1970FB6F89419
:100FB000DEBF0FBECDBF19A2423008F44AE08E0159
:100FC0000F5D1F4F842E912CB12CA12CA5019401F3
:100FD0000E942F23E62FB901CA01EA30F4F4E05D44
:100FE000D801EE938D01232B242B252B79F790E04C
:100FF00080E0109719F0CD010E94BA07A1960FB6B4
:10100000F894DEBF0FBECDBFDF91CF911F910F913E
:10101000BF90AF909F908F900895E95CE1CF682FCB
:1010200070E090E080E04AE00C94CB07CF93DF9330
:101030000E940F08EC010E94C7078C0F9D1FDF91D3
:10104000CF910895CF92DF92EF92FF92CF93DF93EB
:1010500097FF1BC06B017C016DE283E696E00E9466
:101060004104EC0166277727CB016C197D098E09B5
:101070009F094AE00E94CB078C0F9D1FDF91CF9103
:10108000FF90EF90DF90CF9008954AE0DF91CF91ED
:10109000FF90EF90DF90CF900C94CB07CF93DF932E
:1010A0000E942208EC010E94C7078C0F9D1FDF9150
:1010B000CF910895009711F00C94BA0790E080E06A
:1010C000089585E491E00E945A0880912C07909140
:1010D0002D070E945A0883E491E00E945A08E6EF27
:1010E000F5E083E790E09183808389E390E0938348
:1010F000828317821682118610860C9421038DE458
:1011000091E00E945A08E0913007F0913107808108
:101110000E940F0883E491E00C945A088CE591E05A
:101120000E945A08E0913207F091330784810E94AF
:101130000F0883E491E00C945A0889E691E00E943C
:101140005A08E0913207F091330785810E940F0819
:1011500083E491E00C945A0883E791E00E945A08D6
:10116000E0912E07F0912F07648170E090E080E01D
:101170000E94220883E491E00C945A088FE791E0E2
:101180000E945A08E0912E07F0912F0785810E9456
:101190000F0883E491E00C945A08CF93DF93EC019D
:1011A0008A81623049F0633081F0613081F460E01F
:1011B0000E94590160E004C061E00E94590161E0B1
:1011C0008B81DF91CF910C94590160E0F6CF61E003
:1011D000EFCFCF93DF930E94BA07EC010E94C707BD
:1011E0008C0F9D1FDF91CF910895CF92DF92EF92E8
:1011F000FF92CF93C091400784E68093400760E060
:1012000080913D070E94590161E080913C070E9456
:10121000590160E08CE397E00E94CD0861E070E046
:1012200080E090E00E945F038CE397E00E94AE04B0
:101230006B017C018CE397E00E946705C093400737
:101240008BE891E00E945A084AE0C701B6010E946B
:10125000CB078DEB93E00E945A0888ECC816D104A6
:10126000E104F10490F485E394E00E94E90881E050
:1012700098ECC916D104E104F10408F480E0CF91A0
:10128000FF90EF90DF90CF9008958FE692E0EDCF42
:10129000CF92DF92EF92FF921F93CF93DF93182F9D
:1012A0006A017B010E9492036C197D098E099F09D6
:1012B000613C77428940910508F449C08AE597E08E
:1012C0000E94EF05C3E7D6E030E020E050E040E0C8
:1012D00068E070E08EE695E00E94090683E696E0FD
:1012E0000E94FF03181619066CF48AE597E00E9425
:1012F000FB05DF91CF911F91FF90EF90DF90CF9092
:101300000C94920311115AC00E94F5088111EDCF7F
:1013100068EC70E080E090E00E945F0321971C166B
:101320001D0694F284E991E00E94E90864EF71E0FF
:1013300080E090E00E945F0330E020E050E040E079
:101340006AE070E08EE695E00E940906BDCF0E943B
:10135000920320910001AB01BC014C195D096E099B
:101360007F09413C544D61407105D8F027FF0FC003
:10137000E0913807F091390780E0309709F08081DB
:101380008093000161E08AE597E00E94DB05C701D8
:10139000B601DF91CF911F91FF90EF90DF90CF903A
:1013A000089527FDF4CF20312CF4622F8AE597E0D1
:1013B0000E94DB058FEF80930001E9CF0E94F508C2
:1013C0008111A6CF92CF4F925F926F927F928F92B0
:1013D0009F92AF92BF92CF92DF92EF92FF920F93C4
:1013E0001F93CF936B017C01742EAC019B010E9473
:1013F000EA24882399F08FE991E0CF911F910F9112
:10140000FF90EF90DF90CF90BF90AF909F908F9024
:101410007F906F905F904F900C94BA0746015701F0
:10142000E894B7F82FEF3FEF4FE75FE7C501B4014E
:101430000E94EA2481110DC02FEF3FEF4FE75FE7D5
:10144000C501B4010E94E52118161CF483EA91E05D
:10145000D4CF2FEF3FEF4FE75FE4C701B6010E9403
:10146000E52418161CF487EA91E0C7CF2FEF3FEF71
:101470004FE75FECC701B6010E94E52187FDF3CF7E
:1014800020E030E0A901C701B6010E94E52110E08B
:1014900000E087FF0AC06DE283E696E00E94410407
:1014A0008C01F7FAF094F7F8F094C0E060E070E097
:1014B00080E09FE37C1641F020E030E040E251E420
:1014C0000E943D24CF5FF6CFA70196010E94D12351
:1014D0002B013C010E94B6244B015C014AE00E94B2
:1014E000CB077C01E00EF11ECC23C1F1C501B40194
:1014F0000E94EA219B01AC01C301B2010E94D023EA
:101500004B015C016EE283E696E00E944104E80E26
:10151000F91EC15018F120E030E040E251E4C5016D
:10152000B4010E944B222B013C010E94B6244B01C6
:10153000B12CA12C4AE0C501B4010E94CB07E80EF2
:10154000F91EC501B4010E94EA219B01AC01C3014F
:10155000B2010E94D0234B015C01DBCFC701CF91C8
:101560001F910F91FF90EF90DF90CF90BF90AF90C1
:101570009F908F907F906F905F904F9008950C9404
:10158000E3098F929F92AF92BF92CF92DF92EF9238
:10159000FF92E0913207F091330786889788A08CFC
:1015A000B18CC28CD38CE48CF58C8BEA91E00E94D8
:1015B0005A0846E050E0C501B4010E94BF0A8DEB15
:1015C00093E00E945A0846E050E0C701B6010E942D
:1015D000BF0A8DEB93E00E945A0883E491E0FF90EC
:1015E000EF90DF90CF90BF90AF909F908F900C9432
:1015F0005A08EF92FF920F931F93CF93DF93CDB7CB
:10160000DEB760970FB6F894DEBF0FBECDBFE09196
:101610003207F091330786819781A085B185898350
:101620009A83AB83BC8382859385A485B5858D839E
:101630009E83AF83B88786859785A089B18989877E
:101640009A87AB87BC8782899389A489B5898D875E
:101650009E87AF87B88B83EB91E00E945A088E017A
:101660000F5F1F4F7E0181E1E80EF11CF8016191CF
:101670007191819191918F0146E050E00E94BF0AE3
:101680008DEB93E00E945A080E151F0579F783E44D
:1016900091E060960FB6F894DEBF0FBECDBFDF912C
:1016A000CF911F910F91FF90EF900C945A08CF9318
:1016B000DF930E94E309EC010E94C7078C0F9D1F76
:1016C000DF91CF9108952F923F924F925F926F9248
:1016D0007F928F929F92AF92BF92CF92DF92EF92C2
:1016E000FF920F931F93CF93DF93CDB7DEB76A9727
:1016F0000FB6F894DEBF0FBECDBF7C011B015E8B21
:101700004D8B922E19821A821B821C821D821E8290
:101710001F82188619861A861B861C861D861E86C1
:101720001F86188A198A1A8A1B8A1C8A8091340794
:1017300090913507009711F00E94EF0561E0D70105
:101740008C910E945901992029F061E0F701818173
:101750000E94590161E070E080E090E00E945F0328
:10176000D70115968C9180FF0BC060E0C7010E94E5
:10177000CD08C7010E94AE0469837A838B839C8362
:10178000F701858181FF1CC061E0C7010E94CD087F
:10179000D70114969C90892D90E0880F991F85366B
:1017A000910514F084E690E0F7018483C7010E945C
:1017B000AE046D837E838F839887D70114969C92A5
:1017C000F701858183FF0BC063E0C7010E94CD084C
:1017D000C7010E94AE046D877E878F87988BD701E3
:1017E00015968C9182FF0BC062E0C7010E94CD0864
:1017F000C7010E94AE0469877A878B879C87C701DF
:101800000E9467058FEB91E00E945A08FE01319615
:101810004F012E01F1E14F0E511C3401D3016D91A6
:101820007D918D919D913D010E9422088DEB93E069
:101830000E945A084614570489F74D845E846F84C9
:1018400078884114510461047104E1F585EC91E05C
:101850000E94E908CC24CA94DC2C7601ED89FE892B
:101860003097A9F0CF014096D4014D915D916D91D3
:101870007D914D0141935193619371938E179F0711
:1018800099F7ED89FE89C08AD18AE28AF38AC70175
:10189000B6016A960FB6F894DEBF0FBECDBFDF91DA
:1018A000CF911F910F91FF90EF90DF90CF90BF905D
:1018B000AF909F908F907F906F905F904F903F90F0
:1018C0002F9008956D817E818F8198850E94EC21F3
:1018D0005B016C01C301B2010E94EC219B01AC01D0
:1018E000C601B5010E943D24F70126893789408D44
:1018F000518D0E944B22D7015A962D913D914D91C9
:101900005C915D970E94D1232B013C01211431048D
:1019100039F1F101A080B180C280D38020E030E0B5
:10192000A901C601B5010E94E5218823C9F0A601DD
:101930009501C301B2010E94D0235B016C0120E03C
:1019400030E0A9010E94E524181684F428E539E363
:1019500044E35DE3C601B5010E94E52187FD10C0A7
:1019600001151105D9F1F801108238C028E539E3D5
:1019700044E35DEBC601B5010E94E524181684F727
:1019800085ED91E00E94E90842E050E0C301B20118
:101990000E94BF0A8DEB93E00E945A08D1016D911D
:1019A0007D918D919C9142E050E00E94570BF10196
:1019B0002081318142815381C301B2010E94D12330
:1019C00020E030E040E05FE30E944B222B013C012D
:1019D0000115110519F081E0D8018C9342E050E027
:1019E000C301B2010E94BF0A8DEB93E00E945A0826
:1019F000D70116962D913D914D915C911997C30198
:101A0000B2010E944B22A30192010E944B22A3012A
:101A100092010E944B226F8B788F898F9A8FF701EA
:101A20002285338544855585C301B2010E944B222E
:101A3000A30192010E944B229B01AC016F89788D1A
:101A4000898D9A8D0E94D1236F8B788F898F9A8F81
:101A5000D7011E962D913D914D915C915197C301F7
:101A6000B2010E944B229B01AC016F89788D898D58
:101A70009A8D0E94D123F70122893389448955899F
:101A80000E94D12320E030E040E05FE30E94D123B8
:101A90000E94AF246B017C018FED91E00E945A08F7
:101AA000C701B6010E944E082114310409F4D6CEB4
:101AB000D1014D925D926D927C921397CFCECF92D1
:101AC000DF92EF92FF920F931F9310E000E021E06E
:101AD00050E040E070E060E0809132079091330781
:101AE0000E94630B6B017C018CEE91E00E945A080E
:101AF000C701B6010E94220883E491E00E945A08BF
:101B0000809130079091310720E1C21627E2D2067A
:101B1000E104F10440F01F910F91FF90EF90DF90EE
:101B2000CF900C94FB05B6011F910F91FF90EF90A1
:101B3000DF90CF900C946506CF92DF92EF92FF92E8
:101B40000F931F93CF93DF9300D000D0CDB7DEB7B4
:101B500019821A821B821C8210E000E021E050E012
:101B600040E0BE016F5F7F4F809132079091330755
:101B70000E94630B6B017C0182EE91E00E945A0887
:101B800069817A818B819C8146E050E00E94BF0A86
:101B900083E491E00E945A08B701A60149515C4FC5
:101BA0006F4F7F4F8091300790913107473F5A42E6
:101BB0006105710578F00E94FB050F900F900F9062
:101BC0000F90DF91CF911F910F91FF90EF90DF90D9
:101BD000CF900895B6010E943807EFCFAF92BF9221
:101BE000CF92DF92EF92FF920F931F93CF93DF93E9
:101BF000CDB7DEB764970FB6F894DEBF0FBECDBF8A
:101C000010E000E021E0AE014F5F5F4F70E060E068
:101C100080913207909133070E94630B6B017C0126
:101C200081EE91E00E945A088E010F5F1F4F5E0106
:101C300025E1A20EB11CF801619171918191919100
:101C40008F010E9422088DEB93E00E945A080A152A
:101C50001B0589F783E491E00E945A0880913007C0
:101C600090913107B701A60149515C4F6F4F7F4FEB
:101C7000473F5A426105710598F00E94FB05649642
:101C80000FB6F894DEBF0FBECDBFDF91CF911F918D
:101C90000F91FF90EF90DF90CF90BF90AF9008959D
:101CA000B6010E943807EBCFEF92FF920F931F937C
:101CB000CF93DF93CDB7DEB764970FB6F894DEBF4E
:101CC0000FBECDBF10E000E020E0AE014F5F5F4FE0
:101CD00070E060E080913207909133070E94630BBF
:101CE0008AEE91E00E945A088E010F5F1F4F7E011D
:101CF00081E1E80EF11CF80161917191819191915E
:101D00008F010E9422088DEB93E00E945A080E1565
:101D10001F0589F783E491E00E945A0864960FB684
:101D2000F894DEBF0FBECDBFDF91CF911F910F9111
:101D3000FF90EF9008950F931F93CF93DF931F921F
:101D4000CDB7DEB719828E010F5F1F4F21E050E043
:101D500040E0BC018CE397E00E94630B97FF22C038
:101D600069312CEF72072FEF82079207B4F48AE5EE
:101D700097E00E94FB058091F605998190FB87F919
:101D800090E09093F7058093F6050E9421030F9051
:101D9000DF91CF911F910F9108958AE597E00E94FE
:101DA0003807E9CF603127E2720781059105FCF61B
:101DB0008AE597E00E946506DECFDF92EF92FF9200
:101DC0000F931F93CF93DF937C018B01C0E0D7E08B
:101DD0008A8190E001962BE0D22ED89EB001D99E48
:101DE000700D1124888199810E94EF249983888342
:101DF0002A8148E050E0B7012D9D800D911D1124EE
:101E00000E94D3258A81E881F9818D9DE00DF11D25
:101E10001124128701878F5F8A83DF91CF911F91F1
:101E20000F91FF90EF90DF9008954AE257E065E050
:101E300077E090E080E00C944B2085ED8093BC002F
:101E400080912F0690913006A0913106B091320614
:101E50000796A11DB11D23E0B695A7959795879587
:101E60002A95D1F72091BC0024FD03C010922D06C5
:101E7000089540912F06509130066091310670917F
:101E80003206452B462B472B69F30097A105B10578
:101E900041F025E32A95F1F700000197A109B10966
:101EA000E1CF80912E060C94C301AF92BF92CF92E6
:101EB000DF92EF92FF920F931F93CF93DF9383E60E
:101EC00096E00E94FF03181619060CF05DC083E629
:101ED00096E00E94DD03C82F80910707C81338C021
:101EE0004AE257E065E077E088E097E00E944B2007
:101EF0008C01892BD9F0C0900207D12CC09100072A
:101F0000D0910107F12CE12CEC14FD04C4F45E0126
:101F100048E050E0BE01C8010E94C5252B96892BE0
:101F200051F4D5011996ED91FC910995109208078D
:101F300010922907C4CFBFEFEB1AFB0AE5CFE0915F
:101F40000307F0910407309789F3C8010995EECF94
:101F50008C2F0C2E000C990B0E94AE25892B09F4B6
:101F6000AECFE0912907E03208F0A9CF81E08E0FD3
:101F700080932907F0E0E050F94FC087E82FF0E0A8
:101F8000E050F94F10869BCF80E0DF91CF911F91F9
:101F90000F91FF90EF90DF90CF90BF90AF9008959A
:101FA0000C940923EF92FF920F931F93CF93DF932B
:101FB000182F062FCAE0D0E0CE010E94D00F8A323F
:101FC00039F182EF91E00E945A088C2F0E940F088D
:101FD0008CEF91E00E945A08CE010E94D00F0E941F
:101FE0000F0883E092E00E945A086AE270E080E005
:101FF00090E00E9422086AE2CE010E94112388E04C
:1020000092E00E945A08CE010E94D00F0E9416084A
:102010006E96C436D10581F60E94C7078AE5E82E80
:10202000E10EF12C8BE092E00E945A08812F0E9471
:102030000F0882E495E00E945A08C12FD0E0CE013B
:102040000E94D00F0E941608CE010E94D00F801768
:1020500089F182EF91E00E945A08812F0E940F08B7
:102060008CEF91E00E945A08CE010E94D00F0E948E
:102070000F0883E092E00E945A08802F0E940F0808
:10208000602FCE010E94112388E092E00E945A083E
:10209000CE010E94D00F0E941608FF24F394125E16
:1020A000E112C0CF8F2DDF91CF911F910F91FF9043
:1020B000EF90089586E192E00E945A08CE010E94B6
:1020C000D00F0E941608EBCFCF92DF92EF92FF92D3
:1020D0000E94150F4AE050E070E060E00E94091F86
:1020E0006B017C010E94EC210E947C058823A1F0F9
:1020F00081E292E00E945A08C701B6010E944E0890
:1021000084E392E00E945A0883E491E0FF90EF900C
:10211000DF90CF900C945A088FEFC816D104E104D9
:10212000F10421F018F085E492E0E4CFE0912E076D
:10213000F0912F07C5826C2D8FE00E94D20F8BE5A6
:1021400092E0E0CFFC0164838EE00C94D20FCF9339
:10215000DF930E94150F0E942420EC010E94150FAE
:10216000892BA9F4C230D10590F46C2F6170809155
:102170002E0790912F070E94A21086E692E00E94FF
:102180005A0883E491E0DF91CF910C945A0881E7DB
:1021900092E0F5CFCF93C62F2FEF260F2F3060F0B0
:1021A00082E892E00E945A088C2F0E9416086C2F39
:1021B0008DE0CF910C94D20FDC01ED91FC91658301
:1021C000F6CFCF92DF92EF92FF920E94150F4AE076
:1021D00050E070E060E00E94091F6B017C010E94EA
:1021E000EC210E947C058823A1F08BE892E00E94FC
:1021F0005A08C701B6010E944E088DE992E00E947C
:102200005A0883E491E0FF90EF90DF90CF900C9418
:102210005A08D701C6010197A109B1090F97A10575
:10222000B10518F08CEA92E0E2CF6C2D80912E0778
:1022300090912F070E94CA1080EC92E0E0CFCF93DC
:10224000FC0182819381009751F0C62F603110F418
:102250000E94DB056C2F8CE0CF910C94D20FCF91B4
:102260000895CF92DF92EF92FF920E94150F4AE0FD
:1022700050E070E060E00E94091F6B017C010E9449
:10228000EC210E947C058823A1F089EC92E00E9459
:102290005A08C701B6010E944E0884EE92E00E94DF
:1022A0005A0883E491E0FF90EF90DF90CF900C9478
:1022B0005A0880E1C816D104E104F10418F088EF4F
:1022C00092E0E5CF6C2D80912E0790912F070E9410
:1022D0001F1181E193E0E3CFDC01ED91FC918FEFE1
:1022E000860F843628F0848184838BE00C94D20F8F
:1022F000862FFACFCF92DF92EF92FF920E94150FB6
:102300004AE050E070E060E00E94091F6B017C0130
:102310000E94EC210E947C058823A1F08FE193E0CC
:102320000E945A08C701B6010E944E0888E393E054
:102330000E945A0883E491E0FF90EF90DF90CF90E5
:102340000C945A08D701C6010197A109B109843636
:102350009105A105B10518F08AE493E0E1CF6C2D59
:1023600080912E0790912F070E946C1181E693E0D7
:10237000DFCF4F925F926F927F928F929F92BF9228
:10238000CF92DF92EF92FF920F931F93CF93DF9341
:1023900000D000D0CDB7DEB77B01DC01ED91FC9120
:1023A0003696CB014096DB014D915D916D917D910B
:1023B0004193519361937193A817B907A9F718E155
:1023C0004E01B5E08B0E911CF70141905190619048
:1023D00071907F0149825A826B827C828DE693E004
:1023E0000E945A0846E050E0C301B2010E94BF0AB1
:1023F00086E793E00E94E908CE0101966C01012F67
:10240000D601BD906D018B2D0E940F088DEB93E0DE
:102410000E945A086B2D802F0E94D20F0F5F8C14E0
:102420009D0471F70E94C7071C5F183269F60F9070
:102430000F900F900F90DF91CF911F910F91FF9010
:10244000EF90DF90CF90BF909F908F907F906F9094
:102450005F904F9008958F929F92AF92BF92CF92CC
:10246000DF92EF92FF920F931F93CF93DF93CDB73D
:10247000DEB760970FB6F894DEBF0FBECDBF8AE718
:1024800093E00E945A08CE0101967C0110E000E022
:102490006C010E94150F0E9420204B015C01F70186
:1024A00081929192A192B1927F010E947C05882332
:1024B00071F183E893E00E945A08000F111F000F8A
:1024C000111FC00ED11EF60160817181828193813E
:1024D00042E050E00E94570B8BE993E00E945A08BB
:1024E00083E491E00E945A0860960FB6F894DEBF2C
:1024F0000FBECDBFDF91CF911F910F91FF90EF9055
:10250000DF90CF90BF90AF909F908F90089542E062
:1025100050E0C501B4010E94BF0A8DEB93E00E9418
:102520005A080F5F1F4F0430110509F0B2CF0E9407
:10253000C707B60180912E0790912F070E94B9110D
:102540008CEA93E0CBCF4F925F926F927F928F9203
:102550009F92BF92CF92DF92EF92FF920F931F93C1
:10256000CF93DF9300D000D0CDB7DEB7DC012D9143
:102570003C91FB0180819181A281B381F901868B1D
:10258000978BA08FB18FFB0184819581A681B78144
:10259000F901828F938FA48FB58F6B0110E14E01EB
:1025A000F5E08F0E911CD6014D905D906D907D9061
:1025B0006D0149825A826B827C8287EB93E00E9494
:1025C0005A0846E050E0C301B2010E94BF0A86E704
:1025D00093E00E94E908FE0131967F01012FD701A7
:1025E000BD907D018B2D0E940F088DEB93E00E9422
:1025F0005A086B2D802F0E94D20F0F5F8E149F04FC
:1026000071F70E94C7071C5F183169F60F900F9091
:102610000F900F90DF91CF911F910F91FF90EF904E
:10262000DF90CF90BF909F908F907F906F905F9042
:102630004F9008958F929F92AF92BF92CF92DF9268
:10264000EF92FF920F931F93CF93DF93CDB7DEB737
:1026500028970FB6F894DEBF0FBECDBFCE0101960E
:102660007C0110E000E06C010E94150F0E94202008
:102670004B015C01F70181929192A192B1927F018D
:102680000E947C05882389F18FEB93E00E945A0811
:10269000000F111F000F111FC00ED11EF601608127
:1026A00071818281938142E050E00E94570B83ED5B
:1026B00093E00E945A0883E491E00E945A08289609
:1026C0000FB6F894DEBF0FBECDBFDF91CF911F9143
:1026D0000F91FF90EF90DF90CF90BF90AF909F90C1
:1026E0008F90089501E010E0BFCF42E050E0C501B7
:1026F000B4010E94BF0A8DEB93E00E945A0801309A
:10270000110581F70E94C707B60180912E079091AD
:102710002F070E94A31280EE93E0CBCF0F931F935D
:10272000CF93DF93CDB7DEB760970FB6F894DEBFD7
:102730000FBECDBF8C0187EE93E00E94E90881EFC8
:1027400093E00E945A0862E0C8010E946C118CEF6D
:1027500093E00E945A086AE0C8010E941F1185E0B8
:1027600094E00E945A086AE0C8010E94CA1080E101
:1027700094E00E945A0861E0C8010E94A2108EE114
:1027800094E00E945A088AE0F80185836AE08FE0AD
:102790000E94D20F8BE897E8A1E8BFE389839A8370
:1027A000AB83BC838FE19DEBA1ECBDEB8D839E835E
:1027B000AF83B887BE016F5F7F4FC8010E94A3122D
:1027C00019821A821B821C821D821E821F82188619
:1027D00083EA9BE8ACECB2E489879A87AB87BC8735
:1027E0008AEB98E6A0E0B3EC8D879E87AF87B88B25
:1027F000BE016F5F7F4FC8010E94B91160960FB68E
:10280000F894DEBF0FBECDBFDF91CF911F910F9126
:10281000089580912E0790912F070E948E138EE2CB
:1028200094E00E945A0883E491E00C945A088F9235
:102830009F92AF92BF92CF92DF92EF92FF920F934F
:102840001F93CF93DF9300D01F92CDB7DEB7982EA2
:1028500087E394E00E945A08CE0101966C010AE5D4
:10286000090D7C01192D5C018FE092E00E945A084D
:10287000812F0E940F0882E495E00E945A08812F60
:1028800090E00E94D00FF70181937F010E940F0812
:10289000125E0113E9CF0E94C707812C00E0F12CE2
:1028A000F601E1906F01FF2031F0F501E00FF11D1D
:1028B0008081E81611F111E089818E1110E08A8182
:1028C0008E1101C01F5F8B81E81201C01F5F8CE376
:1028D00094E00E945A088E2D0E940F088DEB93E021
:1028E0000E945A08812F0E940F0883E494E00E94FE
:1028F000E908811610F40F2D812EF394F3E0FF12F6
:10290000CFCFF501E00FF11D108183E0881601F1B2
:1029100089E494E00E945A08812F0E940F0880E504
:1029200094E00E94E908612F892D0E94D20F812F27
:102930000F900F900F90DF91CF911F910F91FF900B
:10294000EF90DF90CF90BF90AF909F908F900895C1
:1029500089E494E00E945A08812F0E940F088DE5B7
:1029600094E00E94E908E3CF1F920F920FB60F92F6
:1029700011242F933F934F935F936F937F938F9384
:102980009F93AF93BF93EF93FF938091B900887F9C
:10299000803609F44AC0F0F5883209F4A7C018F56A
:1029A000803109F49BC0B8F4882309F4F9C0883059
:1029B00009F494C0FF91EF91BF91AF919F918F91D6
:1029C0007F916F915F914F913F912F910F900FBE2B
:1029D0000F901F901895883109F488C0803251F704
:1029E00080932B0614C0803409F49DC040F48033DA
:1029F000B9F38833F9F680932B0685ECB0C08035A7
:102A000009F485C0883509F496C0883499F60E9487
:102A10001D0FD0CF883909F48CC038F5883729F0DC
:102A200050F4883611F0803729F683E080932D0624
:102A30001092F50557C0883809F47BC0803919F029
:102A4000803809F0B7CF8091F505803208F071C069
:102A5000E091F50581E08E0F8093F5058091BB0034
:102A6000F0E0EB52FA4F80833DC0803B39F0E0F458
:102A7000803A09F479C0883A09F09CCF84E08093C9
:102A80002D061092D2051092D105E091CF05F0915C
:102A9000D00509958091D10581110FC081E0809307
:102AA000D1051092AF0509C0803C09F4A6CF883C3F
:102AB00009F4A3CF883B09F07DCFE091D20581E0F6
:102AC0008E0F8093D205F0E0E155FA4F808180931C
:102AD000BB009091D2058091D10529C08091080654
:102AE0008093BB0085EC8093BC0064CF90912A0654
:102AF00080912906981758F5E0912A0681E08E0FFB
:102B000080932A06F0E0E75FF94F8081E9CFE091FA
:102B10002A0681E08E0F80932A068091BB00F0E0A8
:102B2000E75FF94F808390912A06809129069817D4
:102B3000C8F285E8D8CFE0912A0681E08E0F809315
:102B40002A068091BB00F0E0E75FF94F8083809117
:102B50002C0681115CCF81E08093070684EA809384
:102B6000BC0010922D0626CF85EC8093BC001092FD
:102B70002D068091F505803230F4E091F505F0E006
:102B8000EB52FA4F10826091F50570E0E091D305A9
:102B9000F091D40585ED95E009951092F5050ACFE1
:102BA00010922B0634CF1F920F920FB60F92112462
:102BB0000F931F932F933F934F935F936F937F9345
:102BC0008F939F93AF93BF932091840030918500A2
:102BD000B09B0BC081E086BB80918A0590918B05EC
:102BE000019690938B0580938A058091880590913A
:102BF00089050196409186055091870584179507B0
:102C000008F445C0109289051092880580918A05C4
:102C100090918B05B0E0A0E0DC0199278827820F16
:102C2000931FA11DB11D40918205509183056091B4
:102C30008405709185058C019D01041B150B260BE5
:102C4000370BB901A80140937E0550937F0560932F
:102C50008005709381058093820590938305A093EE
:102C60008405B093850581E080937D05BF91AF9188
:102C70009F918F917F916F915F914F913F912F9194
:102C80001F910F910F900FBE0F901F90189590936A
:102C9000890580938805EACF1F920F920FB60F9295
:102CA00011242F933F938F939F93AF93BF93809162
:102CB000750590917605A0917705B09178053091D2
:102CC000740523E0230F2D3758F50196A11DB11D82
:102CD000209374058093750590937605A0937705EE
:102CE000B09378058091790590917A05A0917B0544
:102CF000B0917C050196A11DB11D8093790590933B
:102D00007A05A0937B05B0937C05BF91AF919F910D
:102D10008F913F912F910F900FBE0F901F9018959C
:102D200026E8230F0296A11DB11DD2CF1F920F924C
:102D30000FB60F9211242F933F934F935F936F938E
:102D40007F938F939F93AF93BF93EF93FF9383E60C
:102D500096E00E941F04FF91EF91BF91AF919F9168
:102D60008F917F916F915F914F913F912F910F9034
:102D70000FBE0F901F9018951F920F920FB60F92D3
:102D800011242F938F939F93EF93FF93E0917306FA
:102D9000F09174068081E0917906F0917A0682FDC7
:102DA0001BC0908180917C068F5F8F7320917D0680
:102DB000821741F0E0917C06F0E0ED59F94F958FD4
:102DC00080937C06FF91EF919F918F912F910F90AF
:102DD0000FBE0F901F9018958081F4CF1F920F9215
:102DE0000FB60F9211248F930FB6F894A895809187
:102DF0006000886180936000109260000FBE8F9128
:102E00000F900FBE0F901F901895CF93DF93E7E5BB
:102E1000F6E01382128288EE93E0A0E0B0E08483B3
:102E20009583A683B78322E231E031832083E3E6F2
:102E3000F6E01382128284839583A683B78384E3AA
:102E400091E09183808385EC90E09587848784EC82
:102E500090E09787868780EC90E0918B808B81EC67
:102E600090E0938B828B82EC90E0958B848B86EC48
:102E700090E0978B868B118E128E138E148EC0E08D
:102E8000D7E0198218821A821C821B828AE08F8303
:102E90001BA61AA66DEB73E085E097E00E94BE25A5
:102EA000188619A6ECE3F7E082E0808383E0818353
:102EB00096E0928397E0938384838FE085838AE50D
:102EC00097E090933507809334074BE857E861E823
:102ED0007FE3468B578B608F718F4FE15DEB61EC29
:102EE0007DEB428F538F648F758F16821782108609
:102EF0001186128613861486158643EA5BE86CEC0D
:102F000072E446875787608B718B4AEB58E660E026
:102F100073EC428B538B648B758BA6E3B7E01196F1
:102F2000FC93EE9313969C938E93129721E0149644
:102F30002C931497F0933307E09332079093310763
:102F400080933007B0932F07A0932E0782E694E07A
:102F500090932D0780932C07DF91CF910895CF9305
:102F6000DF93CDB7DEB7A0970FB6F894DEBF0FBEE4
:102F7000CDBF789484B5826084BD84B5816084BD02
:102F800085B5826085BD85B5816085BD80916E0007
:102F9000816080936E001092810080918100826038
:102FA0008093810080918100816080938100809175
:102FB00080008160809380008091B1008460809364
:102FC000B1008091B00081608093B00080917A0060
:102FD000846080937A0080917A00826080937A0086
:102FE00080917A00816080937A0080917A00806875
:102FF00080937A001092C10010E060E0812F0E945F
:10300000E40160E0812F0E9459011F5F1631A9F78A
:1030100080917E008F6380937E0080916400816048
:1030200080936400809164008460809364001CBC81
:1030300061E08DE00E94E40161E08DE00E945901B1
:10304000E0917306F091740682E08083E0916F0650
:10305000F09170061082E0917106F091720680E1A5
:10306000808310927B06E0917706F091780686E0E7
:103070008083E0917506F09176068081806180837F
:10308000E0917506F0917606808188608083E091FA
:103090007506F0917606808180688083E0917506E0
:1030A000F091760680818F7D808361E678E088E606
:1030B00094E00E94DD0E6FE57DE089E794E00E94D8
:1030C000DD0E6CE97DE080E794E00E94DD0E6EEE9F
:1030D0007DE08FE694E00E94DD0E64E57EE087E708
:1030E00094E00E94DD0E6AE173E180EE93E00E94BD
:1030F000DD0E61EC7AE08EE794E00E94DD0E6BE27B
:1031000072E185E894E00E94DD0E69EF7AE08EE8D6
:1031100094E00E94DD0E61E371E187E994E00E9492
:10312000DD0E6FE778E080EA94E00E94DD0E6AE74A
:1031300071E189EA94E00E94DD0E6EE878E082EBAE
:1031400094E00E94DD0E61EE70E180EC92E00E945E
:10315000DD0E6DE978E08BEB94E00E94DD0E67EA0E
:1031600070E184EC94E00E94DD0E6CEA78E08DEC76
:1031700094E00E94DD0E64E670E186ED94E00E942A
:10318000DD0E6EEB78E08FED94E00E94DD0E69E0DD
:1031900074E18EE294E00E94DD0E0E94550F00E77C
:1031A000009306061092AD051092AC0510923406FD
:1031B000109256060E94A5018CEC90E09093D005E9
:1031C0008093CF058DEC90E09093D4058093D30548
:1031D00011E0109333060093550681E290E00E94BF
:1031E00054010E943A021093330610923406109252
:1031F000560681E890E00E9454010E943A02109322
:10320000330610923406109256068FEE90E00E941C
:1032100054010E943A028AE597E00E94EF0561E0BE
:1032200089E00E94E40161E08AE00E94E40161E03B
:1032300089E00E94590160E08AE00E94590161E042
:1032400080913E070E94E40161E080913F070E9467
:10325000E40161E080913D070E94E40161E080911A
:103260003C070E94E4018CE397E00E9467058AE036
:103270000E9417148A3209F09BC388EE94E00E94E2
:10328000E90884EF94E00E945A088BE00E9417142A
:1032900062E0853608F4682F86E397E00E946C119F
:1032A000E0913607F091370784810E940F080E9451
:1032B000C7078EEF94E00E945A08809138079091DA
:1032C0003907892B09F48BC08CE00E9417146AE03F
:1032D000803108F4682F86E397E00E941F11E09187
:1032E0003807F091390780E0309709F080810E941B
:1032F0000F080E94C7078FE095E00E945A088DE0F2
:103300000E9417149FEF980F6AE09F3008F4682F0F
:1033100086E397E00E94CA10E0913607F0913707E4
:1033200085810E940F080E94C70789E195E00E94ED
:103330005A088EE00E94171461E08F3F09F054C0D4
:1033400086E397E00E94A21060913A0770E090E057
:1033500080E00E9422080E94C70786E295E00E9452
:103360005A088FE00E9417148F3F09F041C08AE08D
:1033700080933B076AE08FE00E94D20F80913B0769
:103380000E940F0885E395E00E94E9088CE395E030
:103390000E94E908CE0101967C016C0166246394C9
:1033A00010E1782E0F2DE4E08E2E810EFE01759631
:1033B0005F01181509F199249394910E812F0E94B1
:1033C0001714F50181935F018F3F09F0612C0E9472
:1033D0000F088DEB93E00E945A08192DEACF86E082
:1033E00095E00E945A0885CF8111AACF60E0A8CF4E
:1033F00080933B07682FBFCF8D889E88AF88B88C9D
:1034000046E050E0C501B4010E94570BC501B4016C
:103410000E947C058823A9F084E495E00E94E908D5
:103420008BE897E8A1E8BFE389839A83AB83BC83E9
:103430008FE19DEBA1ECBDEB8D839E83AF83B887BD
:103440000BC0F60181929192A192B1926F01183155
:1034500009F0A9CF6110E4CFB70186E397E00E949D
:10346000A31281E595E00E94E908DD24D39418E1D8
:1034700074E0972E910ECE0145965C011915A1F0CE
:10348000CC24C394C10E812F0E941714F50181939F
:103490005F018F3F09F0D12C0E940F088DEB93E064
:1034A0000E945A081C2DEACF8D889E88AF88B88C60
:1034B00046E050E0C501B4010E94570BC501B401BC
:1034C0000E947C058823E9F084E495E00E94E908E5
:1034D00019821A821B821C821D821E821F821886FC
:1034E00083EA9BE8ACECB2E489879A87AB87BC8718
:1034F0008AEB98E6A0E0B3EC8D879E87AF87B88B08
:103500000BC0F70181929192A192B1927F01183282
:1035100009F0AECFD110DCCF672D702F86E397E096
:103520000E94B9110FE710E01093F7050093F6051C
:103530001092F9051092F8051092FD051092FC0505
:103540001092FF051092FE050E9421036AEF70E0C1
:1035500080E090E00E945F031092F7051092F6055C
:103560001093F9050093F8050E9421036AEF70E0BB
:1035700080E090E00E945F031092F9051092F80538
:103580001093FD050093FC050E9421036AEF70E093
:1035900080E090E00E945F031092FD051092FC0510
:1035A0001093FF050093FE050E9421036AEF70E06F
:1035B00080E090E00E945F0360E08DE00E9459018E
:1035C00060E08DE00E94E4010E94F508811110C3C3
:1035D00080913A07882309F406C388E595E00E94A4
:1035E000E9081091400784E68093400780913407F2
:1035F00090913507009711F00E94EF0561E08091EE
:103600003C070E94590161E080913D070E945901E9
:1036100061E070E080E090E00E945F0361E08CE395
:1036200097E00E94CD088CE397E00E94AE044B0126
:103630005C0163E08CE397E00E94CD088CE397E0A7
:103640000E94AE046B017C01C501B4010E944E08CA
:10365000C701B6010E944E088CE397E00E946705FF
:1036600010934007F9E28F16FAE09F06A104B10417
:103670000CF4A3C1D501C40188529A40A109B10933
:1036800084339840A105B105A4F481E4C81686E00E
:10369000D806E104F1040CF499C1D701C6018054A5
:1036A0009640A109B10911E08C3D9540A105B105F5
:1036B00044F1F9E98F16FAE39F06A104B1040CF472
:1036C0008EC1D501C40188599A43A109B109883531
:1036D0009B41A105B105A4F481E1C8168EE0D8068E
:1036E000E104F1040CF484C1D701C60180519E406D
:1036F000A109B10912E084339840A105B1050CF08D
:1037000010E088E595E00E945A08C501B4010E94C6
:10371000220881E695E00E945A08C701B6010E947E
:10372000220888E092E00E945A08812F0E94160821
:10373000113009F058C28AE597E00E94EF0539E39D
:10374000832E912C9092F7058092F60547E7A42EE0
:10375000B12CB092F905A092F80558E3C52ED12CF2
:10376000D092FD05C092FC0566E0E62EF12CF092A9
:10377000FF05E092FE050E94210383E695E00E948A
:10378000E90864EF71E080E090E00E945F0310E0E0
:1037900000E021E0AE014F5F5F4F70E060E08CE33E
:1037A00097E00E94630B0E94550F8111A9C090926F
:1037B000F7058092F605B092F905A092F805D0922F
:1037C000FD05C092FC05F092FF05E092FE050E9407
:1037D000210364EF71E080E090E00E945F030E94AB
:1037E000550F81118DC06D817E818F8198850E94DA
:1037F000EC212B013C016D857E858F8598890E9487
:10380000EC214B015C0120E030E842E255E4C301C9
:10381000B2010E94D0236B017C0120E030E0A901BD
:103820000E94E524181624F0F7FAF094F7F8F094C3
:1038300020E030E443E055E4C701B6010E94E521F1
:1038400087FFC6C120E030E048EC54E4C501B40174
:103850000E94D0236B017C0120E030E0A9010E948E
:10386000E524181624F0F7FAF094F7F8F09420E025
:1038700030E84BEB54E4C701B6010E94E52187FF15
:10388000A7C1A5019401C301B2010E943D246B01AF
:103890007C0142E050E0C301B2010E94BF0A88E609
:1038A00095E00E945A0842E050E0C501B4010E9430
:1038B000BF0A8FED91E00E945A0845E050E0C70131
:1038C000B6010E94BF0A8AE695E00E945A088090DD
:1038D0003B07F4E68F9E400111240E944B03240114
:1038E000092C000C660877080E94F508811189C030
:1038F000C301B2010E945F030E94550F8823A1F308
:1039000019821A821B821C82812C912C5401222440
:103910002394312C08E010E0C0903B0724E6C29EBF
:10392000600111240E94550F882321F00E94920308
:103930004B015C010E94F5080D2C000CEE08FF08FD
:10394000882309F43DC20E9492034B015C018EE37F
:1039500090E09093F7058093F605E3E7F0E0F093AD
:10396000F905E093F8051092FD051092FC05109200
:10397000FF051092FE050E942103B501A40181E01C
:103980000E9448092B013C010E94F508882309F494
:1039900034C1C701B6010E945F030E94550F8823FE
:1039A00021F00E9492032B013C01B301A201E7CF59
:1039B00086E397E00E948E13B5CD88E29AE0A0E0FE
:1039C000B0E088199909AA09BB095ACE80E496E0AB
:1039D000A0E0B0E08C199D09AE09BF0964CE88E96A
:1039E0009AE3A0E0B0E088199909AA09BB096FCE53
:1039F00080E19EE0A0E0B0E08C199D09AE09BF090E
:103A000079CE8EE390E09093F7058093F60583E7F7
:103A100090E09093F9058093F8051092FD051092BF
:103A2000FC051092FF051092FE050E942103092C4F
:103A3000000CAA08BB080E94F508882349F0C501BC
:103A4000B4010E945F030E94550F8823A1F358CF51
:103A50000E944B0364EF71E080E090E00E945F03FE
:103A600010E000E021E0AE014F5F5F4F70E060E0EA
:103A70008CE397E00E94630B0E94550F811140CFA9
:103A80000E944B0364EF71E080E090E00E945F03CE
:103A90000E94550F811134CF6D817E818F81988571
:103AA0000E94EC212B013C016D857E858F859889D4
:103AB0000E94EC216D8F7E8F8F8F98A39B01AC01AC
:103AC000C301B2010E943D244B015C01A701960194
:103AD0000E94D0239B01AC016DEC7CEC8CE090E467
:103AE0000E943D249B01AC012D8B3E8B4F8B588F48
:103AF000C701B6010E944B229B01AC0160E070E05F
:103B000080EC9FE30E94D023698F7A8F8B8F9C8FEC
:103B100042E050E0C301B2010E94BF0A88E695E08E
:103B20000E945A0842E050E06D8D7E8D8F8D98A1E5
:103B30000E94BF0A8FED91E00E945A0845E050E0D4
:103B4000C501B4010E94BF0A88E092E00E945A08B1
:103B50006D897E898F89988D45E050E00E94BF0A6B
:103B600081E695E00E945A08698D7A8D8B8D9C8D37
:103B700045E050E00E94570B0E94550F8111C0CEC6
:103B8000BE016B5E7F4F86E397E00E94A3126AE05E
:103B900070E080E090E00E945F038EE590E09093FB
:103BA000F7058093F6058FE390E09093F9058093F5
:103BB000F80584E590E09093FD058093FC0589E786
:103BC00090E09093FF058093FE050E94210398CE1C
:103BD0008AE597E00E94570668EB7BE080E090E082
:103BE0000E945F038DCE90E080E00E949B0E88CE05
:103BF0008AE597E00E94EF0583CE68EE73E080E0EF
:103C000090E00E945F0392E0A92EB12C3092F7055C
:103C10002092F6050E94210369E270E080E090E0C6
:103C20000E945F031092F7051092F6053092F90595
:103C30002092F8050E94210369E270E080E090E0A4
:103C40000E945F031092F9051092F8053092FD056D
:103C50002092FC050E94210369E270E080E090E080
:103C60000E945F031092FD051092FC053092FF0543
:103C70002092FE050E94210369E270E080E090E05E
:103C80000E945F0382E090E09093FF058093FE0521
:103C90000E94210369E270E080E090E00E945F03EF
:103CA000E4E0F0E0F093FF05E093FE050E942103BD
:103CB00069E270E080E090E00E945F031093FF05EE
:103CC0000093FE050E94210369E270E080E090E02D
:103CD0000E945F031092FF051092FE051093FD05F0
:103CE0000093FC050E94210369E270E080E090E00F
:103CF0000E945F031092FD051092FC051093F905D8
:103D00000093F8050E94210369E270E080E090E0F2
:103D10000E945F031092F9051092F8051093F705C1
:103D20000093F6050E94210369E270E080E090E0D4
:103D30000E945F0380E190E09093F7058093F60581
:103D40000E94210369E270E080E090E00E945F033E
:103D5000E0E2F0E0F093F705E093F6050E9421031E
:103D600069E270E080E090E00E945F03AA94AB28D3
:103D700009F04BC08AE597E00E94EF0564E670E029
:103D800080E090E00E945F030E949203641975092D
:103D900086099709613A7F408105910520F01982D3
:103DA0001A821B821C82CE0101960E949B0E0E94E9
:103DB0009203AB01BC0180E00E9448094B015C0109
:103DC000C701B6010E945F030E9492036819790936
:103DD0008A099B09613A7F408105910570F019823B
:103DE0001A821B821C828091F6058F7790E0909357
:103DF000F7058093F6050E942103B501A40180E038
:103E00000E9448094B015C0187CDAA24A394B12CE0
:103E1000FDCEB0E0A0E0EFE0FFE10C945D235C019B
:103E20006B017A016115710519F0FB0191838083A3
:103E3000E114F10451F0C7010297839730F040E09C
:103E400030E020E090E072C05E01E5012196F501CE
:103E50001081812F90E00E944220892BA9F71D320A
:103E600001F52196F501118101E0E114F10409F455
:103E7000DAC0F0E1EF16F10409F082C0103359F412
:103E800088818F7D883509F076C01981229602607D
:103E9000F0E1EF2EF12C812C912CA12C88E0B82E92
:103EA0008CC01B3221F4E5012296F501118100E05E
:103EB000DCCFEAE0EE16F10409F4BBC0F0E1EF1646
:103EC000F10409F06DC0E7CF78E0E72EF12C812CEA
:103ED000912CA12C60E1B62E70C03FE9310F3A3130
:103EE00028F439EA332E80C021E09AC0302F317097
:103EF000C114D10431F0222309F12197F601D183B5
:103F0000C08327FF21C060E070E080E090E83111BD
:103F100004C06FEF7FEF8FEF9FE722E230E0309336
:103F20005C0720935B07462F372F282F642F732FB2
:103F3000822FCDB7DEB7E1E10C94792301FF04C0F5
:103F40002297F601D183C083332341F09095809569
:103F5000709561957F4F8F4F9F4FE5CF97FFE3CFD0
:103F600082E290E090935C0780935B076FEF7FEFB6
:103F70008FEF9FE7D8CF10E3E114F10409F4A4CF49
:103F800028E0E216F10409F4A2CF0CF092CF812CC4
:103F9000912CA12CE0E4BE2E82E0E816F10469F039
:103FA00060E070E080E090E897010F2C000C440B7B
:103FB000550B0E942F2349015A0120E060E070E078
:103FC000CB0127010F2C000C66087708FE0150ED8D
:103FD000352E310E39E0331540F43FEB310F3A31D5
:103FE00008F07BCF49EC342E310E3E141F040CF048
:103FF0007DCF27FD15C086169706A806B90678F06E
:10400000A30192010E941F23630D711D811D911D4B
:1040100061307105810520E8920708F465CF2FEF24
:1040200021961081D3CF103309F42ACF2AE0E22E53
:10403000F12C9CEC892E982CA82C9CE0B92EBDCF9D
:10404000662777270C947A20FC0188279927E89423
:1040500021912032E9F3293010F02E30C8F32B32B1
:1040600041F02D3239F4689404C00E947220820F0E
:10407000911D219120532A30C0F31EF49095819513
:104080009F4F089591110C94CA21803219F08950E4
:104090008550C8F70895FA01A191B081009719F4ED
:1040A0001097E1F0CD01DC01CD010D90002011F45D
:1040B000C00113C0FB012191222319F02015D9F76B
:1040C000F3CFFB012191201519F41E92119606C021
:1040D0002223C1F70D900020A1F7D001FA01A1938E
:1040E000B08308957AE0979F902D879F802D910D42
:1040F00011240895B0E0A0E0E0E8F0E20C9462231F
:104100005C017B016115710519F0DB018D939C93B6
:1041100085010F5F1F4FF501D0818D2F90E00E9428
:1041200042206C01892BB9F5DD32B9F50F5F1F4FC5
:10413000D5011196DC91C1E05801F1E0AF1AB10848
:1041400043E050E060E770E0C5010E94CD21892B7B
:1041500069F5680182E0C80ED11C45E050E06BE6CD
:1041600070E0C6010E94CD21892B21F4680197E0FF
:10417000C90ED11CE114F10419F0D701CD92DC92E3
:1041800060E070E080E89FEFC111FFC060E070E088
:1041900080E89FE7FAC05801BBCFDB3229F48501E4
:1041A0000E5F1F4FF501D181C0E0C6CF43E050E064
:1041B00068E670E0C5010E94CD21892BE9F0F80185
:1041C00010E000E020E030E0A9015F01B0ED8B2EAF
:1041D0008D0E89E08815C8F19C2E689491F88C2F7B
:1041E0008870C2FF16C0811102C00F5F1F4F319649
:1041F000D501DC91C92DE9CFE114F10429F00E5F5E
:104200001F4FF7011183008360E070E080EC9FE7AF
:10421000BCC0882311F001501109A5E0B0E00E9454
:1042200051239B01AC01220F331F441F551F280D42
:10423000311D411D511D283999E93907490799E177
:104240005907A8F2C6609C2ED2CFAEEF8A1206C0E4
:10425000C3FD3CC09C2E689493F8C9CFDF7DD53454
:10426000A9F580818D3239F4C061DF011296818118
:1042700062E070E006C0DF018B32C1F3119661E0AD
:1042800070E080535D01A61AB70A8A30F8F4E0E8BE
:10429000CE16ECE0DE065CF4B601660F771F660F03
:1042A000771FC60ED71ECC0CDD1CC80ED11C5D01BD
:1042B000FFEFAF1ABF0A8C9180538A30A8F1C4FF78
:1042C00003C0D194C194D1080C0D1D1DC1FF09C0BC
:1042D000E114F10431F081E0A81AB108D701AD92E0
:1042E000BC92CA01B9010E94EA21C370C33009F42B
:1042F00090584B015C0120E030E0A9010E94E521CB
:10430000882309F440C0CFE9D0E017FF05C011951C
:1043100001951109C7E8D0E06E01B8E1CB1AD108C8
:1043200080E2E82EF12C0FC0D501B1CFFE0125911E
:104330003591459154910E191F09C501B4010E9490
:104340004B224B015C01D501C4010E151F0574F70A
:104350002497F594E794CC16DD06A9F78A2F880FE9
:104360008B2F881F8F3F49F020E030E0A901C50165
:10437000B4010E94E521811106C082E290E0909391
:104380005C0780935B07C501B401CDB7DEB7ECE0F5
:104390000C947E23992788270895FB01DC01415066
:1043A000504088F08D9181341CF08B350CF4805E88
:1043B000659161341CF06B350CF4605E861B6111F5
:1043C00071F3990B0895881BFCCF0E94272208F4F3
:1043D00081E00895E89409C097FB3EF4909580959C
:1043E000709561957F4F8F4F9F4F9923A9F0F92FBB
:1043F00096E9BB279395F695879577956795B79539
:10440000F111F8CFFAF4BB0F11F460FF1BC06F5F1E
:104410007F4F8F4F9F4F16C0882311F096E911C030
:10442000772321F09EE8872F762F05C0662371F051
:1044300096E8862F70E060E02AF09A95660F771F65
:10444000881FDAF7880F9695879597F90895990F41
:104450000008550FAA0BE0E8FEEF16161706E8074E
:10446000F907C0F012161306E407F50798F0621B6F
:10447000730B840B950B39F40A2661F0232B242B44
:10448000252B21F408950A2609F4A140A6958FEF63
:10449000811D811D08950E945E220C94CF220E94EE
:1044A000C12238F00E94C82220F0952311F00C940C
:1044B000B8220C94BE2211240C9403230E94E02203
:1044C00070F3959FC1F3950F50E0551F629FF00167
:1044D000729FBB27F00DB11D639FAA27F00DB11D80
:1044E000AA1F649F6627B00DA11D661F829F222709
:1044F000B00DA11D621F739FB00DA11D621F839F90
:10450000A00D611D221F749F3327A00D611D231F65
:10451000849F600D211D822F762F6A2F11249F57B3
:1045200050409AF0F1F088234AF0EE0FFF1FBB1FB6
:10453000661F771F881F91505040A9F79E3F510575
:1045400080F00C94B8220C9403235F3FE4F3983E70
:10455000D4F3869577956795B795F795E7959F5F1F
:10456000C1F7FE2B880F911D9695879597F90895B1
:1045700097F99F6780E870E060E008959FEF80EC16
:10458000089500240A9416161706180609060895B9
:1045900000240A9412161306140605060895092E1F
:1045A0000394000C11F4882352F0BB0F40F4BF2B8E
:1045B00011F460FF04C06F5F7F4F8F4F9F4F0895CE
:1045C00057FD9058440F551F59F05F3F71F04795C4
:1045D000880F97FB991F61F09F3F79F087950895A9
:1045E000121613061406551FF2CF4695F1DF08C0C8
:1045F000161617061806991FF1CF869571056105E5
:1046000008940895E894BB2766277727CB0197F98C
:104610000895F999FECF92BD81BDF89A992780B58A
:104620000895262FF999FECF1FBA92BD81BD20BDF6
:104630000FB6F894FA9AF99A0FBE01960895DB0125
:104640008F939F930E945123BF91AF91A29F800DA2
:10465000911DA39F900DB29F900D11240895A1E28A
:104660001A2EAA1BBB1BFD010DC0AA1FBB1FEE1FEC
:10467000FF1FA217B307E407F50720F0A21BB30B37
:10468000E40BF50B661F771F881F991F1A9469F7B3
:1046900060957095809590959B01AC01BD01CF010F
:1046A00008950E949323A59F900DB49F900DA49F01
:1046B000800D911D112408952F923F924F925F9289
:1046C0006F927F928F929F92AF92BF92CF92DF9222
:1046D000EF92FF920F931F93CF93DF93CDB7DEB787
:1046E000CA1BDB0B0FB6F894DEBF0FBECDBF09941B
:1046F0002A88398848885F846E847D848C849B8472
:10470000AA84B984C884DF80EE80FD800C811B817F
:10471000AA81B981CE0FD11D0FB6F894DEBF0FBEAE
:10472000CDBFED010895A29FB001B39FC001A39F2B
:10473000700D811D1124911DB29F700D811D1124DA
:10474000911D089597FB072E16F4009407D077FD6E
:1047500009D00E94B62307FC05D03EF490958195C0
:104760009F4F0895709561957F4F0895AA1BBB1BBD
:1047700051E107C0AA1FBB1FA617B70710F0A61B61
:10478000B70B881F991F5A95A9F780959095BC0182
:10479000CD010895EE0FFF1F0590F491E02D0994CF
:1047A0005058BB27AA270E94E8230C94CF220E94CE
:1047B000C12238F00E94C82220F039F49F3F19F43A
:1047C00026F40C94BE220EF4E095E7FB0C94B8227C
:1047D000E92F0E94E02258F3BA1762077307840793
:1047E000950720F079F4A6F50C9402230EF4E095D9
:1047F0000B2EBA2FA02D0B01B90190010C01CA019B
:10480000A0011124FF27591B99F0593F50F4503E45
:1048100068F11A16F040A22F232F342F4427585F37
:10482000F3CF469537952795A795F0405395C9F74F
:104830007EF41F16BA0B620B730B840BBAF0915007
:10484000A1F0FF0FBB1F661F771F881FC2F70EC0A6
:10485000BA0F621F731F841F48F487957795679579
:10486000B795F7959E3F08F0B0CF9395880F08F065
:104870009927EE0F9795879508950E9451240C94DF
:10488000CF220E94C82258F00E94C12240F029F491
:104890005F3F29F00C94B82251110C9403230C941F
:1048A000BE220E94E02268F39923B1F3552391F3CD
:1048B000951B550BBB27AA2762177307840738F08F
:1048C0009F5F5F4F220F331F441FAA1FA9F335D0EC
:1048D0000E2E3AF0E0E832D091505040E695001CA0
:1048E000CAF72BD0FE2F29D0660F771F881FBB1F5A
:1048F000261737074807AB07B0E809F0BB0B802D38
:10490000BF01FF2793585F4F3AF09E3F510578F063
:104910000C94B8220C9403235F3FE4F3983ED4F345
:10492000869577956795B795F7959F5FC9F7880F37
:10493000911D9695879597F90895E1E0660F771F89
:10494000881FBB1F621773078407BA0720F0621B1A
:10495000730B840BBA0BEE1F88F7E09508950E9445
:10496000B6246894B1110C94032308950E94E822A0
:1049700088F09F5798F0B92F9927B751B0F0E1F020
:10498000660F771F881F991F1AF0BA95C9F714C0D0
:10499000B13091F00E940223B1E008950C940223FB
:1049A000672F782F8827B85F39F0B93FCCF3869509
:1049B00077956795B395D9F73EF490958095709566
:1049C00061957F4F8F4F9F4F08950E94272208F4D3
:1049D0008FEF08950E942722880B990B0895B0E06D
:1049E000A0E0E5EFF4E20C945E238C01009751F413
:1049F000CB010E94E2258C01C801CDB7DEB7E0E112
:104A00000C947A23FC01E60FF71F9C012250310918
:104A1000E217F30708F49DC0D901CD91DC911197FD
:104A2000C617D70798F0C530D10530F3CE010497EB
:104A30008617970708F3C61BD70B2297C193D1930C
:104A40006D937C93CF010E947E26D6CF5B01AC1A7A
:104A5000BD0A4C018C0E9D1EA0915F07B0916007AE
:104A6000512C412CF12CE12C109731F580915D07F0
:104A700090915E078815990509F05CC046165706A7
:104A800008F058C08091010190910201009741F413
:104A90008DB79EB74091050150910601841B950B7F
:104AA000E817F90708F055C0F0935E07E0935D073B
:104AB000F90171836083A0CF8D919C91119712961B
:104AC0006C90129713967C901397A815B90559F519
:104AD0006C0142E0C40ED11CCA14DB0420F1AC010D
:104AE0004A195B09DA011296159780F06282738287
:104AF00051834083D9016D937C93E114F10471F0EB
:104B0000D7011396FC93EE93129776CF22968C0FD3
:104B10009D1FF90191838083F301EFCFF09360072C
:104B2000E0935F0769CF4816590608F42C017D0110
:104B3000D3019ACFCB010E94E2257C01009749F076
:104B4000AE01B8010E94B525C8010E947E268701EA
:104B500053CF10E000E050CF803209F091110C9457
:104B6000CA2180528F55D8F70895FB01DC0102C09D
:104B700001900D9241505040D8F70895FB01DC019F
:104B800001900D920020E1F70895FB01DC014150F6
:104B9000504030F08D910190801919F40020B9F740
:104BA000881B990B0895FB01DC014150504048F0EF
:104BB00001900D920020C9F701C01D924150504054
:104BC000E0F708950F931F93CF93DF938230910501
:104BD00010F482E090E0E0915F07F091600730E030
:104BE00020E0B0E0A0E0309799F42115310509F4F8
:104BF0004AC0281B390B24303105D8F58A819B81A6
:104C00006115710589F1FB0193838283FE0111C057
:104C1000408151810281138148175907E0F04817FC
:104C2000590799F4109761F012960C931297139606
:104C30001C933296CF01DF91CF911F910F91089570
:104C400000935F0710936007F4CF2115310551F0F1
:104C50004217530738F0A901DB019A01BD01DF01BA
:104C6000F801C1CFEF01F9CF9093600780935F0700
:104C7000CDCFFE01E20FF31F8193919322503109B2
:104C800039832883D7CF20915D0730915E07232B8E
:104C900041F4209103013091040130935E07209389
:104CA0005D0720910101309102012115310541F488
:104CB0002DB73EB74091050150910601241B350BDD
:104CC000E0915D07F0915E07E217F307A0F42E1B59
:104CD0003F0B2817390778F0AC014E5F5F4F241760
:104CE000350748F04E0F5F1F50935E0740935D07F6
:104CF000819391939FCFF0E0E0E09CCFCF93DF933F
:104D00000097E9F0FC01329713821282A0915F07AD
:104D1000B0916007ED0130E020E01097A1F4208110
:104D20003181820F931F20915D0730915E07281714
:104D3000390709F061C0F0935E07E0935D07DF91EA
:104D4000CF910895EA01CE17DF07E8F54A815B812C
:104D50009E0141155105B1F7E901FB83EA834991B1
:104D60005991C40FD51FEC17FD0761F48081918123
:104D70000296840F951FE90199838883828193812C
:104D80009B838A83F0E0E0E012968D919C911397CB
:104D90000097B9F52D913C911197CD010296820FA4
:104DA000931F20915D0730915E072817390739F668
:104DB000309751F51092600710925F07B0935E072D
:104DC000A0935D07BCCFD383C28340815181840F00
:104DD000951FC817D90761F44E5F5F4F888199818D
:104DE000480F591F518340838A819B81938382831B
:104DF0002115310509F0B0CFF0936007E0935F070C
:104E00009ECFFD01DC01C0CF13821282D7CFF89470
:024E1000FFCFD2
:104E1200FF0000610780003F065B4F666D7D077FE4
:104E22006F777C395E79711008044020010200001E
:104E320000002501F800CB03CE00F100DE00CF0018
:104E42000000000041049E03CE038E04FF03DD0335
:104E5200F1030D0A00544F4E494E4F3A0047455454
:104E62004252494748544E4553533A0047455453DA
:104E7200414D504C494E473A00474554434D4F44EB
:104E8200453A0047455443414C494E49543A00473C
:104E920045544C5444454C41593A0069734C696736
:104EA20068743A00706F77657220646F776E006E77
:104EB200616E00696E66006F766600474554434135
:104EC2004C3A004745545343414C494E473A0073CC
:104ED20063616E3A004552523A6469762F30286215
:104EE2006C7565290061766572616765643A003D9B
:104EF2000049495F5343414E3A00445F5343414E98
:104F02003A00757064206164647220002066726FDA
:104F12006D200020746F20003D3E007265616420A8
:104F22006164647220006E6F207570646174652024
:104F3200005345544C5444454C4159204552523A31
:104F4200696E76005345544C5444454C41592045B2
:104F520052524F52005345544C5444454C415920EF
:104F62004552523A72616E676520005345544C5463
:104F720044454C41590053455443414C494E4954D0
:104F82000053455443414C494E4954204552524FD7
:104F920052004552523A756E6B2000534554434DB0
:104FA2004F4445204552523A696E7620005345548B
:104FB200434D4F4445204552524F520053455443AE
:104FC2004D4F4445204552523A72616E676520004A
:104FD200534554434D4F444500534554425249476B
:104FE20048544E455353204552523A696E76206ECC
:104FF200756D20005345544252494748544E45531B
:1050020053204552524F5200534554425249474849
:10501200544E455353204552523A72616E67652091
:10502200005345544252494748544E455353005346
:10503200455453414D504C494E47204552523A69CE
:105042006E76206E756D200053455453414D504C81
:10505200494E47204552524F520053455453414DF9
:10506200504C494E47204552523A72616E67652054
:105072000053455453414D504C494E4700536361D0
:105082006C696E672000206173005B7363616C65FD
:105092005D20005345545343414C494E47204552ED
:1050A200523A696E76206E756D2000534554534313
:1050B200414C494E47204552524F5200534554539A
:1050C20043414C494E470043616C69622E200053B4
:1050D200455443414C204552523A696E76206E75D2
:1050E2006D200053455443414C204552524F5200CB
:1050F20053455443414C0053746F72652064656696
:105102000053616D706C696E673A20004272696784
:1051120068743A2000436F6C206D6F64653A20001A
:10512200446F5F696E69745F63616C3A2000446525
:105132006C61795F74696C6C5F75703A20005245DE
:10514200534554444546007265616400666F756E4E
:1051520064200074696D6573007573696E67200061
:105162002D3E636F7272656374696E67002D3E6FC8
:105172006B00312031203700544F4E494E4F0049C9
:10518200495F5343414E00445F5343414E004745FC
:105192005443414C005345545343414C4900474505
:1051A200545343414C4900534554425249474800E5
:1051B20047455442524947480053455453414D5084
:1051C2004C0047455453414D504C00474554434DC4
:1051D2004F44450053455443414C494E00474554C2
:1051E20043414C494E005345544C5444454C0047AE
:1051F20045544C5444454C00526561642045455029
:10520200524F4D0053616D706C696E673A00427285
:10521200696768743A002069676E6F72656400435B
:105222006F6C206D6F64653A00446F5F696E6974DC
:105232005F63616C3A0044656C61795F74696C6CA0
:105242005F75703A002A3130306D730043616C69CA
:10525200622E3A006572722D3E64656661756C74E9
:10526200005363616C653A00697343616C69623A29
:0E527200002C0043616C2E002F003B2000003A
:00000001FF
